:020000040800F2
:10000000C8500020310200085D24000821200008AB
:1000100059240008CD060008412B0008000000000C
:10002000000000000000000000000000D1240008D3
:10003000D106000800000000612400080527000820
:100040004B0200084B0200084B0200084B0200085C
:100050004B0200084B0200084B0200084B0200084C
:100060004B0200084B0200084B0200084B0200083C
:100070004B0200084B0200084B0200084B0200082C
:100080004B0200084B0200084B0200084B0200081C
:100090004B0200084B0200084B0200084B0200080C
:1000A0004B0200084B0200084B0200084B020008FC
:1000B0004B0200084B0200084B0200084B020008EC
:1000C0004B0200084B0200084B0200084B020008DC
:1000D0004B0200084B0200084B0200084B020008CC
:1000E0004B0200084B0200084B0200084B020008BC
:1000F0004B020008E12700084B0200084B020008F1
:100100004B0200084B0200084B0200084B0200089B
:10011000392900084B0200084B0200084B02000876
:100120004B0200084B0200084B0200084B0200087B
:100130004B0200084B0200084B0200084B0200086B
:100140004B0200084B0200084B0200084B0200085B
:100150004B0200084B0200084B0200084B0200084B
:100160004B0200084B0200084B0200084B0200083B
:100170004B0200084B0200084B0200080000000080
:100180004B0200084B02000800F002F800F041F8B2
:100190000AA090E8000C82448344AAF10107DA45E2
:1001A00001D100F036F8AFF2090EBAE80F0013F0F3
:1001B000010F18BFFB1A43F0010318475453000006
:1001C00074530000103A24BF78C878C1FAD8520797
:1001D00024BF30C830C144BF04680C6070470000C1
:1001E0000023002400250026103A28BF78C1FBD840
:1001F000520728BF30C148BF0B607047632900F029
:10020000ED81002070471FB505F000F91FBD10B546
:1002100010BD00F021FA1146FFF7F5FF02F0B4FE21
:1002200000F03FFA03B4FFF7F2FF03BC00F046FA18
:100230000948804709480047FEE7FEE7FEE7FEE77A
:10024000FEE7FEE7FEE7FEE7FEE7FEE704480549B6
:10025000054A064B70470000CD27000889010008B9
:10026000C84A0020C8500020C84C0020C84C0020BC
:1002700053EA020C00F069802DE9F04B4FF00006C4
:10028000002B1FBFB3FA83F503FA05F424FA05F631
:100290005E4012BF1643B2FA82F502FA05F4C5F1C8
:1002A00020051EBF22FA05FC44EA0C04203556EA5C
:1002B000044C4FEA144418BF641C4FF000084FF080
:1002C0000009904271EB030C39D3002919BFB1FA30
:1002D00081F701FA07F6B0FA80F700FA07F6C7F1DE
:1002E00020071EBF20FA07FC46EA0C062037B6FBA3
:1002F000F4FCA7EB0507103F07F01F0BCBF120061E
:100300002CFA06F60CFA0BFB44BFB3460026202F4E
:10031000A4BF5E464FF0000B5BEA060C08BF4FF02F
:10032000010B19EB0B0948EB0608ABFB027C06FB43
:1003300002CC0BFB03CCC01B71EB0C01C1E70B46DD
:10034000024641464846BDE8F08B13B5084318BF46
:100350004FF0FF300146AFF30080BDE81C4070470E
:100360000FB41CB50C0007AA009007D04142A1426F
:1003700002D32044401E01E04FF0FF30074B7B4486
:1003800069460190069800F004F90020002C01D085
:10039000009908701CBC5DF814FB000037020000D7
:1003A0002DE9F0410E460446002020622046E16817
:1003B000884730B3252805D0D4E901219047206A29
:1003C000401CF2E7E168204600278847050018D066
:1003D000A5F14100192802D820354FF400673246B4
:1003E000294620462760FFF709FF40B1012804D0C5
:1003F000F61D26F007060836D8E7361DD6E728464C
:10040000DAE7206ABDE8F08170B50C460546012A9E
:1004100005D02878800600D5EA69002302E0012390
:1004200005E05B1C934202D2E05C0028F9D1A86988
:10043000E618C01AA861286A184428622846AFF353
:10044000008004E0D5E9012114F8010B9047B44283
:10045000F8D32846AFF3008070BD10B5431C02E00E
:1004600010F8011B71B18107FAD14FF0013202C8B7
:100470008C1A8C4314EAC211F9D0C01A0A0603D0B0
:10048000C01E10BDC01A10BD0A0401D0801E10BDD0
:100490000902FCD0401E10BD032A40F2308010F04B
:1004A000030C00F0158011F8013BBCF1020F62440F
:1004B00098BF11F801CB00F8013B38BF11F8013BA0
:1004C000A2F1040298BF00F801CB38BF00F8013B4D
:1004D00011F0030300F08E80083AC0F0088051F854
:1004E000043B083A51F804CBA0E80810F5E7121DC8
:1004F0005CBF51F8043B40F8043BAFF30080D207E7
:1005000024BF11F8013B11F801CB48BF11F8012BB2
:1005100024BF00F8013B00F801CB48BF00F8012BD5
:10052000704702F0FF0343EA032242EA024200F06E
:1005300002B84FF0000200B51346944696462039A3
:1005400022BFA0E80C50A0E80C50B1F12001BFF48C
:10055000F7AF090728BFA0E80C5048BF0CC05DF8F2
:1005600004EB890028BF40F8042B08BF704748BF40
:1005700020F8022B11F0804F18BF00F8012B7047B4
:10058000704770477047000001694A1C0261087893
:10059000704700B58FB0CDE90131002105910549C3
:1005A0007944CDE9031011466846FFF7F9FE0FB014
:1005B00000BD0000E5FFFFFFD1E900239A4202D20F
:1005C000531C0B601070704710B5436913B1AFF343
:1005D000008001E0FFF718FF012010BD127800F144
:1005E00024010A7000224A700122EDE711684FF0E1
:1005F000FF32E9E710B5203AC0F00B80B1E818509F
:10060000A0E81850B1E81850A0E81850203ABFF4FC
:10061000F5AF5FEA027C24BFB1E81850A0E818509B
:1006200044BF18C918C0BDE810405FEA827C24BFEF
:1006300051F8043B40F8043B08BF7047D20728BF7D
:1006400031F8023B48BF11F8012B28BF20F8023BCC
:1006500048BF00F8012B7047754600F02BF8AE46F6
:1006600005006946534620F00700854618B020B5BE
:10067000FFF7ECFDBDE820404FF000064FF000070B
:100680004FF000084FF0000BAC46ACE8C009ACE8F6
:10069000C009ACE8C009ACE8C00921F007018D46EB
:1006A000704710B50446AFF300802046BDE8104007
:1006B000FFF7B8BD0048704710000020014918201E
:1006C000ABBEFEE72600020070470000FEE7000018
:1006D0007047000070B5866D044600F049F994F843
:1006E0003510022928D105462068216C026822F0C5
:1006F00016020260426922F08002426109B9A16CCF
:1007000019B1016821F008010160016821F00101BF
:10071000016000BF20680068C00715D000F028F90C
:10072000401B0628F6D320206065032084F835009E
:10073000002184F8341070BD802060650120002104
:1007400084F8341070BD00BFE06D3F2101FA00F065
:10075000B060012084F835000020002184F83410B6
:1007600070BD000090F83510022909D1052180F8EC
:1007700035100068016821F0010101600020704718
:100780008021416501207047B0B5044600F0F0F8C3
:10079000054640F20000C2F200000078611C18BF5C
:1007A000044400BF00F0E4F8401BA042FAD3B0BDFF
:1007B0002DE9F04F82B000F13E4241F6004502F1D2
:1007C000FF77C4F20205082243F6004E4FEAB7262F
:1007D000A84208BF0722C4F2010E072E38BF4FEA15
:1007E000B7220125002600274FF00008009208E0FC
:1007F00008F101080437B8F1100F06F1020600F005
:10080000A7800C6805FA08F914EA090FF0D0D1F8AE
:1008100004B003220BF0030CACF10104B240012C34
:100820006FEA020A10D88268CC6802EA0A02B44071
:10083000224382604268CBF3001422EA090204FAE0
:1008400008F42243426005E0BCF1030F02D14FF0EF
:10085000030C20E0C2688C6802EA0A02B44022431A
:10086000BCF1020FC26016D16FF0030202EA580217
:100870000244D2F820C007F01C050F230C69AB40DE
:100880002CEA030304FA05F52B431362D1F804B0F4
:1008900001250BF0030C02680CFA06F302EA0A02C7
:1008A0001A431BF4403F0260A2D0002243F64403E7
:1008B0000192C4F202031A684FF6084C42F48042D7
:1008C0001A601A68CFF6FF7C02F480420192019A06
:1008D00028F00302724452F80C3007F00C050F2484
:1008E000AC40A343009C04FA05F52B4342F80C30BE
:1008F000DEF808204B6842EA090543F60C4CDC029E
:1009000058BF22EA0905CEF80850C4F2010CDCF801
:1009100000209C0242EA090558BF22EA0905CCF8EA
:100920000050DEF804209C0342EA090558BF22EA81
:100930000905CEF80450DEF80020DB0342EA090581
:1009400058BF22EA0905CEF80050012550E700BF44
:1009500002B0BDE8F08F00000069084018BF012018
:1009600070470000002A08BF090481617047000039
:1009700044F2CC30C2F200000068704770B5B8B3E2
:10098000044690F83D0028B9002084F83C00204639
:1009900000F09AF9242084F83D002068016821F0D5
:1009A00001010160016841F400410160016821F426
:1009B0000041016000F088FB48F28041C0F21E0156
:1009C00040F60013D4F804E088424FF00001C0F272
:1009D0003D0348F2A16C4FF0000238BF012198425C
:1009E000C0F2010C38BF0122E64538BF0A460AB101
:1009F000012070BD4DF68361C4F21B31A0FB0112D2
:100A00002168950C4B684FF4967623F03F0343EA38
:100A10009243754344F6D3564B60C1F262060B6AAB
:100A2000A5FB0656B50923F03F03E64538BF950CF4
:100A30006A1C1A430A62CA6948F2A0664CF6FF7340
:100A4000C0F20106B64522EA03020BD801384FEA8C
:100A50004E03B0FBF3F001306FF31F30042898BF52
:100A600004201EE0A368013863B119230EFB03F3D1
:100A7000B0FBF3F001306FF31F3078B100F5804028
:100A800008E000BF0EEB4E03B0FBF3F001306FF354
:100A90001F3028B100F5004003E000BF012000E056
:100AA00001201043C8610868D4E9072320F0C00082
:100AB000104318430860886848F2FF3204F10C06BE
:100AC00090434CCE18431043A5698860C86820F055
:100AD000FF0030432843C860086840F00100086008
:100AE00000202021206484F83D10206384F83E001B
:100AF00070BD00002DE9F04383B01E4617468946BD
:100B00000446FFF735FF94F83D10202920D1054613
:100B1000206800BF8169890716D5FFF729FF411BAF
:100B200020681A29F6D381698907F3D5002020218E
:100B3000206384F83D1084F83E00216C41F02001D0
:100B4000216484F83C0003E094F83C10012903D1AF
:100B5000022003B0BDE8F083012184F83C10016855
:100B6000C90703D1016841F001010160016840F249
:100B7000020821F400610160212184F83D10102158
:100B800084F83E100021216467626685618DC0F2A1
:100B900001082185A8F10211E162E16A0A9E11F5BE
:100BA000803F18BF01291DD1016841F480710160A7
:100BB00020464FF0011100223346009501F092FAD1
:100BC00050B120680068C00544BF4FF40070206435
:100BD000012003B0BDE8F0832069B0F5804F07D154
:100BE000FE2015E00829DFD0216B1229DCD0DFE7D9
:100BF000062000EAD9102168F030086108F10601EA
:100C0000204632462B4601F057FB0028E0D1FF205A
:100C1000216800EA090008612046414632462B4619
:100C200001F04AFB0028D3D10020029020684169DE
:100C3000029180690290029806E000BF204631468A
:100C40002A4601F0EFF918BB208D68B320463146E3
:100C50002A4601F0A1FBD8B9606A2168024612F861
:100C6000013B0B616262628D013A6285228D531EE7
:100C700023854F697F07E1D51B04DFD0437802301D
:100C80000B616062608D01386085901E2085D5E71C
:100C9000206C04289CD12068016841F40071016037
:100CA000012003B0BDE8F0832068016841F40071C1
:100CB0000160202084F83D00002084F83E0084F884
:100CC0003C0003B0BDE8F083B0B586B0016845F2E2
:100CD0000040C4F20000814202D006B0B0BD00BFA7
:100CE000002443F630050194C4F20205296800F59A
:100CF000D83041F002012960296801F00201019118
:100D00000199C02101911221CDE90214032104911E
:100D10000421059101A9FFF74BFD0094286940F4D7
:100D200000102861286900F400100090009806B0B7
:100D3000B0BD000040F2000044F2CC31C2F200002D
:100D4000C2F2000100780A68104408607047000091
:100D500080B543F60040C4F20200016841F400711E
:100D60000160016841F480610160016841F48071B3
:100D70000160032000F0C8F80F2000F005F800F033
:100D800061F8002080BD000070B586B0002543F6F4
:100D900040010195C4F202010A68044642F48072DF
:100DA0000A60096801A801F48071019101996946FE
:100DB00000F06AF9049E002E18BF012600F084F9A5
:100DC0004DF68361B040C4F21B31A0FB01014FF02E
:100DD000FF3000EB914140F2342042F20002C2F2B7
:100DE0000000C4F2000240F2E733C0E90021C0E98C
:100DF00002530561856100F083FB054610B128466A
:100E000006B070BD40F23420C2F2000000F0A8FB32
:100E100005460028F3D12D2000F036F80F2C0DD810
:100E20002D2021460022002500F042F840F2040067
:100E3000C2F200000460284606B070BD01252846B5
:100E400006B070BD82B0002043F640010190C4F2AC
:100E500002014A6842F480424A604A6802F48042D1
:100E60000192019A00900868002240F080500860CA
:100E700008680F2100F08050009000986FF001008A
:100E800002B000F015B80000002848BF7047C1B29A
:100E900000F01F00012202FA00F04EF20012CEF222
:100EA000000242EAD10121F003010860704700000E
:100EB00010B54EF60C5CCEF2000CDCF80030C3F33B
:100EC000022E8EF00704042C28BF0424BEF1030375
:100ED0004FF0FF3E0EFA04F438BF0023A1439940BF
:100EE0000EFA03F39A43114300F00F0200F160433E
:100EF0000901043A03F564436244002848BF02F143
:100F00000C03197010BD00004EF60C51CEF200011A
:100F10000A684FF6FF031A4060F30A2242F080602D
:100F200040F0FD70086070472DE9F041002800F0A6
:100F30008B8043F60808C4F202080446D8F8F80388
:100F40000D4600F00700884207D288F8F853D8F819
:100F5000F80300F00700A84276D12068810717D572
:100F6000410705D5D8F8001041F4E051C8F8001049
:100F7000010705D5D8F8001041F46041C8F8001009
:100F8000D8F80010A26821F0F0011143C8F8001051
:100F9000C0073FD1D8F8F80300F00700A84207D9EE
:100FA00088F8F853D8F8F80300F00700A8424BD1AE
:100FB0002068410707D5D8F80010E26821F4E05115
:100FC0001143C8F80010000708D5D8F800002169BF
:100FD00020F4604040EAC100C8F8000000F09CF82E
:100FE000D8F8001045F22642C1F30311C0F6000202
:100FF000515C40F2080220FA01F140F20400C2F212
:1010000000000068C2F200021160FFF7BDFE002080
:10101000BDE8F0816068811E022907D258F8081CDB
:1010200089015CBF0120BDE8F08111E0012807D1F2
:1010300058F8081C89035CBF0120BDE8F08107E077
:1010400058F8081C890703D40120BDE8F08100BFCF
:10105000D8F8001021F003010843C8F80000FFF79A
:1010600087FC064641F28837D8F80000616800F036
:101070000C00B0EB810F8DD0FFF77AFC801BB842DB
:10108000F2D90320BDE8F0810F22026043F6080286
:10109000C4F20202136803F003034360136803F011
:1010A000F0038360136803F4E053C360D2F800C018
:1010B0004FF4E05303EADC030361D2F8F80300F0D5
:1010C000070008607047000040F2080043F608017E
:1010D000C2F20000C4F202010068096845F236421B
:1010E000C1F38221C0F60002515CC8407047000085
:1010F00040F2080043F60801C2F20000C4F2020107
:101100000068096845F23642C1F34231C0F6000278
:10111000515CC8407047000010B543F60404C4F2A7
:101120000204606800F00C0008280BD0042819BFE6
:1011300042F20040C0F2F40047F64000C0F27D10D9
:1011400010BD00BF206821682368490247F64001AE
:10115000C0F27D1100F03F02C3F388105CBF42F281
:101160000041C0F2F401A1FB00010023FFF780F869
:1011700021680222C1F3014102EB4101B0FBF1F011
:1011800010BD00002DE9F04182B0002868D004466F
:10119000007843F60006C007C4F202060BD0B06820
:1011A00000F00C00042840F09F803068800302D5D6
:1011B0006068002854D0207880071AD5B06810F0F5
:1011C0000C0F09D0B06800F00C00082840F0A68091
:1011D0007068400200F1A2803068800702D5E068A4
:1011E00001283DD13068216920F0F80040EAC100B3
:1011F00030602078000737D4207840074CD4A569A8
:1012000055B3B06800F00C00082840F0BB80012DF9
:1012100026D07068E16900F480028A4220D1216AF8
:1012200000F03F028A421BD147F6C071626A01405A
:10123000B1EB821F14D1A16A4FF6FF73C903994322
:1012400000F44032A1F580318A4209D1E16A00F010
:101250007060B0EB016F03D1002002B0BDE8F081F7
:10126000012002B0BDE8F0816069002840F2000072
:10127000C4F2472076D00121C0F8801EFFF778FB2A
:10128000054600BF706F8007B6D4FFF771FB401BA7
:101290000228F7D9DDE000BF306C10F080580AD189
:1012A00000200190306C40F080503064306C00F0D1
:1012B00080500190019847F20007C4F20007386897
:1012C000C00541D4386840F480703860FFF750FBA7
:1012D000054600BF3868C00536D4FFF749FB401B00
:1012E0000228F7D9B5E000BFB06800F00C0008286C
:1012F00003D1706840023FF558AF6068B0F5803F99
:1013000007D0B0F5A02F40F08D80306840F48020E9
:101310003060306840F4803030608DE0E068002854
:1013200052D00020C4F2472001210160FFF720FBCA
:10133000054600BF306880073FF554AFFFF718FB44
:10134000401B0228F6D984E0A068012805D00528B2
:101350004ED1306F40F004003067306F40F0010034
:1013600030674FE00021C0F8801EFFF701FB054603
:10137000706F80077FF540AFFFF7FAFA401B022835
:10138000F6D966E00027C4F2472700203866FFF749
:10139000EFFA022D05460BD1306880015ED5FFF7CC
:1013A000E7FA401B02284FF00300F5D955E700BFCC
:1013B000306880017FF550AFFFF7DAFA401B022852
:1013C0004FF00300F4D948E70020C4F24720002181
:1013D0000160FFF7CDFA0546306880077FF509AF59
:1013E000FFF7C6FA401B02284FF00300F4D934E798
:1013F000316F002821F001013167316F21F00401C4
:1014000031674DD0FFF7B4FA054641F2883700BF87
:10141000306F800756D4FFF7ABFA401BB842F7D9BC
:1014200017E000BF3168002821F480313160316855
:1014300021F4802131604FD0FFF79AFA054600BFB2
:10144000306880033FF5B7AEFFF792FA401B64287F
:10145000F6D9032002B0BDE8F08100BF04F11C05FD
:101460002FCD084340EA8210D9034FF6FF72914313
:10147000A1F5803140EA05600843706001203866BC
:10148000FFF776FA044600BF306880013FF5E4AE0E
:10149000FFF76EFA001B02284FF00300F4D9DCE6D8
:1014A000FFF766FA054641F2883700BF306F8007C4
:1014B00008D5FFF75DFA401BB8424FF00300F5D99D
:1014C000CBE600BFB8F1000F7FF499AE306C20F08E
:1014D0008050306493E600BFFFF74AFA054600BF2C
:1014E000306880037FF567AEFFF742FA401B64283F
:1014F0004FF00300F4D9B0E67047000070470000D9
:10150000002804BF0120704710B5044690F83D0044
:1015100028B9002084F83C00204600F01FF8022083
:1015200084F83D002068211D01F060F9012084F855
:10153000460084F83E0084F83F0084F8400084F8B8
:10154000410084F8420084F8430084F8440084F8A1
:10155000450084F83D00002010BD000070470000E9
:1015600090F83D1001291CBF01207047022180F82E
:101570003D10006841F2FF72C168C4F2000290425F
:1015800041F00101C1600DDC40F2FF71C4F20001C5
:10159000884215DCB0F1804F2AD040F20041C4F2FD
:1015A000000123E040F2FF31C4F20101884213DC64
:1015B00041F60001C4F20001884219D0002113E075
:1015C00040F60001C4F20001884211D040F600410B
:1015D000C4F200010AE000BF44F20001C4F20101BC
:1015E000884205D040F20041C4F20101884206D190
:1015F000816801F00701062904BF002070470168D7
:1016000041F00101016000207047000070470000B8
:1016100070B504460068C5680669B10716D515F0AF
:10162000020113D06FF0020101610121217780696D
:10163000800703D02046FFF7E9FF05E0204600F0D1
:101640008FF8204600F08EF800202077700719D51B
:1016500015F0040016D020686FF00401016102212A
:101660002177806910F4407F04D02046FFF7CEFF39
:1016700006E000BF204600F073F8204600F072F844
:1016800000202077300717D515F0080014D0206807
:101690006FF00801016104212177C069800703D040
:1016A0002046FFF7B3FF05E0204600F059F820463A
:1016B00000F058F800202077F00619D515F010003A
:1016C00016D020686FF01001016108212177C069F0
:1016D00010F4407F04D02046FFF798FF06E000BFDB
:1016E000204600F03DF8204600F03CF8002020772E
:1016F000F00718BF15F0010002D1300609D412E03E
:1017000020686FF001010161204600F02DF83006DD
:1017100009D515F0800006D020686FF080010161C6
:101720002046FFF7E9FE700609D515F0400006D007
:1017300020686FF040010161204600F01FF8B006FC
:1017400058BF70BD15F0200008D021686FF020024E
:1017500020460A61BDE87040FFF7D0BE70BD0000B2
:101760007047000070470000006842F20001C4F2B8
:101770000001884218BF7047FFF7DCBA70470000CD
:101780007047000070470000B0B582B004460068A2
:101790000168C368426901F02F05202D03F0200580
:1017A00006D12DB1204602B0BDE8B04001F0D0B85E
:1017B0005FEA017C1EBF02F0010E03F4907212EB8F
:1017C0000E0253D1226B012A05D111F0100218BF6D
:1017D00013F0100236D10A0622D513F080021FD072
:1017E00094F8411021293FD1A168B1F5805F03D160
:1017F0002169002900F07282216A4A1C226209785C
:101800004160E18C01390A04E1842DD1C16821F0E5
:101810008001C160C16841F04001C16002B0B0BD4B
:10182000490621D513F040011ED0C16821F04001C6
:10183000C1602021204684F8411002B0BDE8B040CC
:1018400000F0ECBB00210191016801914168019118
:1018500001994069400613D4A08DE18DE28D002AE4
:1018600018BF884240F0BC8102B0B0BDCA0718BFA3
:1018700013F4807240F0B8804A0700F1BB80C0E0EA
:10188000E06B016849688AB2002AEDD0A38D9A42C4
:10189000EAD2E185C069B0F5807F00F09C802068C5
:1018A00050E8030F216820F4807041E80302DAB1A8
:1018B000206850E8030F216820F4807041E803029B
:1018C00092B1206850E8030F216820F4807041E84D
:1018D00003024AB1206850E8030F216820F48070A9
:1018E00041E80302002ADAD1206850E8050F216898
:1018F00020F0010041E80502DAB1206850E8050F48
:10190000216820F0010041E8050292B1206850E80A
:10191000050F216820F0010041E805024AB1206866
:1019200050E8050F216820F0010041E80502002A77
:10193000DAD1206850E8050F216820F0400041E826
:101940000502DAB1206850E8050F216820F0400058
:1019500041E8050292B1206850E8050F216820F0A7
:10196000400041E805024AB1206850E8050F2168AF
:1019700020F0400041E80502002ADAD1202084F856
:10198000420000202063206850E8030F216820F007
:10199000100041E80302DAB1206850E8030F216823
:1019A00020F0100041E8030292B1206850E8030FD4
:1019B000216820F0100041E803024AB1206850E895
:1019C000030F216820F0100041E80302002ADAD159
:1019D000E06BFEF77FFE02206063A08DE18D401A70
:1019E00081B2204675E100BF626C42F00102626480
:1019F0004A0706D5BEF1000F03D0626C42F0020226
:101A000062648A0706D5BEF1000F03D0626C42F013
:101A100004026264BCF1000F09D545EA0E02B2FA75
:101A200082F2520903D1626C42F008026264626C75
:101A3000002A3FF419AF11F0200118BF002D03D088
:101A4000204600F085FF20684069616C00F040008E
:101A500001F00801401800F0B58000BF206850E890
:101A6000030F216820F4907041E80302BAB32068A4
:101A700050E8030F216820F4907041E8030272B32C
:101A8000206850E8030F216820F4907041E80302B9
:101A90002AB3206850E8030F216820F4907041E8D1
:101AA0000302002ADAD11AE0206850E8050F216805
:101AB00020F0010041E80502DAB1206850E8050F86
:101AC000216820F0010041E8050292B1206850E849
:101AD000050F216820F0010041E805024AB12068A5
:101AE00050E8050F216820F0010041E80502002AB6
:101AF000DAD1206B012824D1206850E8030F216837
:101B000020F0100041E80302DAB1206850E8030F2A
:101B1000216820F0100041E8030292B1206850E8EB
:101B2000030F216820F0100041E803024AB1206849
:101B300050E8030F216820F0100041E80302002A5A
:101B4000DAD1202084F84200002020632068406918
:101B500040063FD5206850E8050F216820F040007E
:101B600041E80502DAB1206850E8050F216820F04D
:101B7000400041E8050292B1206850E8050F216855
:101B800020F0400041E805024AB1206850E8050F06
:101B9000216820F0400041E80502002ADAD1E06B1C
:101BA000C0B142F64511C0F600010165FEF7DAFD4D
:101BB00000283FF459AEE06B016D02B0BDE8B040C3
:101BC000084700BF2046FFF7DDFD0020606402B03B
:101BD000B0BD00BF204602B0BDE8B040FFF7D2BDA7
:101BE000401A216851E8031F226821F4907142E8ED
:101BF0000313DBB1216851E8031F226821F49071BF
:101C000042E8031393B1216851E8031F226821F4CD
:101C1000907142E803134BB1216851E8031F226819
:101C200021F4907142E80313002BDAD1216851E8C6
:101C3000051F226821F0010142E80513DBB121688C
:101C400051E8051F226821F0010142E8051393B114
:101C5000216851E8051F226821F0010142E80513BF
:101C60004BB1216851E8051F226821F0010142E8CB
:101C70000513002BDAD1202184F8421000212163C2
:101C8000216851E8031F226821F0100142E8031384
:101C9000DBB1216851E8031F226821F0100142E8FE
:101CA000031393B1216851E8031F226821F010014A
:101CB00042E803134BB1216851E8031F226821F069
:101CC000100142E80313002BDAD1022281B2204630
:101CD000626302B0BDE8B040FFF752BD216A31F83F
:101CE000022B6FF35F22426021628AE5002804BF65
:101CF0000120704710B5044690F8410028B9002033
:101D000084F84000204600F021F8242084F84100A7
:101D10002068C16821F40051C160204600F098FE9F
:101D20002068016921F490410161416921F02A0193
:101D30004161C16841F40051C1600020202160640C
:101D400084F8411084F84210606310BD80B586B0FD
:101D5000016844F60040C4F20000814202D006B09F
:101D600080BD00BF002143F630020191C4F202029F
:101D7000136900F5DA3043F400231361136903F4A7
:101D800000230193019B0191136843F00103136049
:101D90001268022302F001020192019ACDE9023198
:101DA00008210322059101A901920492FEF700FD8A
:101DB000342005210022FFF77BF83420FFF764F878
:101DC00006B080BD90F84230202B1CBF0220704727
:101DD00000294FF0010318BF002A01D118467047AF
:101DE00000230363816222218285C285436480F8D7
:101DF00042100169006819B1C16841F48071C16085
:101E00004169002341F001014161C16841F02001B5
:101E1000C160184670470000B0B586B0006844F64F
:101E20000041C4F20001884202D006B0B0BD00BF3C
:101E300040F27004C2F20004207852281DD11348E9
:101E40000DF1040C009011A0051D2ECD40698CE809
:101E50002E006D4605902846FEF7FFFA04F120019A
:101E600082B2084629464FF0FF3300F01BF8A06805
:101E700021460022002301F013FA04F1200021463C
:101E80000122FFF79FFF06B0B0BD00BF436F6D6D2D
:101E9000616E642052656365697665643A20520A12
:101EA000000000002DE9F041044690F84100202890
:101EB0001CBF0220BDE8F0810D4600294FF0010053
:101EC00000F0AA801646002A08BFBDE8F081002075
:101ED00060642120984684F84100FEF749FDA684FD
:101EE000E684A1680646B1F5805F02D1206900282A
:101EF00062D02F460025E08C002861D018F1010047
:101F000018D0B8F1000F37D1216808E017F8010B9D
:101F10004860E08C0138E084E08C002851D00868EB
:101F2000000673D5002FF1D135F8020B00276FF3AF
:101F30005F20EDE7216802E00868000609D4086820
:101F4000000606D4086800065CBF08685FEA006007
:101F5000F2D51FB117F8010B05E000BF35F8020BF1
:101F600000276FF35F204860E08C0138E084E08C4C
:101F70000028E4D125E000BF216800BF0868000602
:101F800008D4FEF7F5FC801B404541D82168C8689D
:101F9000F4E700BF17B117F8010B04E035F8020BA6
:101FA00000276FF35F204860E08C0138E084E08C0C
:101FB0000028E3D105E000BF0027E08C00289DD178
:101FC0002168086840061FD4B8F1000F1ED018F130
:101FD00001000FD10868400616D40868400613D4E3
:101FE0000868400610D4086840064FF00000F1D59C
:101FF0000FE000BFFEF7BCFC801B404508D82068FE
:10200000C16800684006F5D5002002E0FEF7B0FC8C
:102010000320202184F84110BDE8F08170470000C2
:10202000FEE7000070B50368044653F8140F40073C
:1020300011D40E46481C29D086BB00BF1868400545
:1020400027D4FEF795FC236853F8140F400739D5C1
:1020500018684007F2D5002070BD00BF186840071F
:10206000F9D41868400514D418684007F3D41868E8
:1020700040050ED418684007EDD41868400508D410
:10208000186840074FF0000048BF70BD1868400551
:10209000E4D56FF480601860042014E0154603E076
:1020A00053F8140F4007D6D418684005F1D4FEF752
:1020B0005FFC401B2368B042F2D958694007EFD457
:1020C000202000E0202000212022216384F83D20F0
:1020D00084F83E10226C10432064012084F83C10E8
:1020E00070BD00002DE9F041054600681E4614460B
:1020F00001F47F0201338FB242D0DDF81880B2F5CF
:10210000803F40F0878040693840C01BB0FA80F0C3
:102110004009A04240F0C8804EB924E040693840F0
:10212000C01BB0FA80F04009A04240F0BD80FEF72D
:102130001FFCA0EB08012868B142EFD94169394082
:10214000C91BB1FA81F14909A142E7D19BE000BF67
:1021500040693840C01BB0FA80F04009A0424FF0FF
:10216000000040F0A680FEF703FC28684169394072
:10217000C91BB1FA81F14909A142E9D183E000BF4D
:10218000B2F5803F24D100BF41693940C91BB1FA83
:1021900081F14909A14240F0878041693940C91B5A
:1021A000B1FA81F14909A14240F07E80416939408C
:1021B000C91BB1FA81F14909A14275D14169394080
:1021C000C91BB1FA81F14909A142DDD06CE000BF21
:1021D00081693940C91BB1FA81F14909A14263D132
:1021E00081693940C91BB1FA81F14909A1425BD12A
:1021F00081693940C91BB1FA81F14909A14253D122
:1022000081693940C91BB1FA81F14909A142DFD086
:102210004AE000BF80693840C01BB0FA80F0400936
:10222000A04241D146B923E080693840C01BB0FAD2
:1022300080F04009A0423BD1FEF79AFBA0EB0801D9
:102240002868B142F0D981693940C91BB1FA81F1DE
:102250004909A142E8D116E080693840C01BB0FAB4
:1022600080F04009A0424FF0000018BFBDE8F081A7
:10227000FEF77EFB286881693940C91BB1FA81F1FC
:102280004909A142E8D100202021286385F83D10AA
:1022900085F83E00296C41F02001296485F83C0056
:1022A0000120BDE8F08100BF0020BDE8F08100BF43
:1022B0000020BDE8F0810000F0B581B00446006860
:1022C0001D4643698FB203EA0701B94202D10020DB
:1022D00001B0F0BD41691646013201F4806125D09C
:1022E000002940D1CEB100BFFEF742FB411B206860
:1022F000B14203D941693940B9424BD141693940B2
:10230000B942E4D041694905EED52CE04169394034
:10231000B942DCD04169490525D4FEF729FB206884
:1023200041693940B942F1D0202024E0D9B941694E
:102330003940B942CBD04169490514D4416939408B
:10234000B942C4D0416949050DD441693940B94207
:10235000BDD04169490506D441693940B942B6D07A
:1023600041694905E3D5016841F4007101606FF4EA
:1023700080614161042000212022216384F83D20F6
:1023800084F83E10226C1043206484F83C10012035
:1023900001B0F0BD2020EEE770B50368044653F8A5
:1023A000140F000611D40E46481C29D086BB00BF6E
:1023B0001868400527D4FEF7DBFA236853F8140F9A
:1023C000000639D518680006F2D5002070BD00BFA0
:1023D00018680006F9D41868400514D41868000677
:1023E000F3D4186840050ED418680006EDD41868B8
:1023F000400508D4186800064FF0000048BF70BDC3
:1024000018684005E4D56FF480601860042014E07B
:10241000154603E053F8140F0006D6D4186840059B
:10242000F1D4FEF7A5FA401B2368B042F2D95869EF
:102430000006EFD4202000E020200021202221638C
:1024400084F83D2084F83E10226C10432064012063
:1024500084F83C1070BD0000FEE70000FEE70000BD
:10246000EFF30980BFF36F8F154B1A681EF0100F42
:1024700008BF20ED108A20E9F04F10602DE9090017
:102480004FF0500080F31188BFF34F8FBFF36F8F71
:1024900002F022F84FF0000080F31188BDE8090037
:1024A00019680868B0E8F04F1EF0100F08BFB0ECD4
:1024B000108A80F30988BFF36F8F704700BF00BF99
:1024C000D800002000000000000000000000000014
:1024D000074B19680868B0E8F04F80F30988BFF32C
:1024E0006F8F4FF0000080F31188704700BF00BF6E
:1024F000D800002084B043F23320C0F20A000390D9
:1025000045F22030C4F6545040F27004029047F275
:102510006620C2F20004C6F66F5045F2045104F181
:1025200020050190C0F6000128460B224FF0FF3332
:10253000FFF7B8FC04F11806304600F007FC3046FF
:102540000021002200F02AFC35A1304600F0D2FC28
:10255000284621460122FFF735FC0DF103070DF156
:10256000020A0DF1010B0DF1040914E0284636A111
:102570001A224FF0FF33FFF795FC0FF2E8083046C0
:1025800000F0E4FB30460021002200F007FC30465A
:10259000414600F0AFFCA068394600224FF0FF33FF
:1025A00000F0F0FD0028F6D19DF803005228F2D18A
:1025B000304600F0CBFB30460021002200F0EEFB5D
:1025C00030461AA100F096FC28461BA10C224FF0C1
:1025D000FF33FFF767FCE06852218DF80210514687
:1025E0000022002300F05CFE6068594600224FF490
:1025F000FA6300F0C7FD0028B8D19DF801304846C5
:102600000C211CA2FDF7ACFE4846FDF726FF82B266
:10261000284649464FF0FF33FFF744FCC846AEE773
:1026200066726F6D2053544D333200005265616401
:102630002076616C75657300526561642076616C0B
:102640007565730A000000004E6F206B657920707D
:10265000726573736564206F722074696D656F7540
:10266000740A00004E6F206B657920707265737379
:10267000656400004B657920507265737365643A38
:102680002025630A0000000082B040F27006C2F20A
:1026900000060DF1070406F118050FF260080DF1B0
:1026A000060700BFF068214600224FF0FF3300F01C
:1026B00069FD0028F6D19DF807005228F2D100F0FC
:1026C00041FAFF288DF80600ECD0284600F03EFBCA
:1026D00028460021002200F061FB2846414600F018
:1026E00009FC9DF80610284600F02CFC706839465D
:1026F0000022002300F0D4FDD4E700BF4B65793AF7
:102700000000000080B54EF21000CEF2000000681C
:1027100002F092FC012808BF80BDBDE8804001F0B6
:10272000FBBF0000B0B592B0002443F64000CDE9F5
:102730000A44CDE908440594CDE90344CDE90144B8
:102740000094C4F202000168022541F0805101604A
:10275000006800F080500090009847F2000000945C
:10276000C4F20000016841F480410160006800F497
:10277000804000900098012006904FF48030079030
:102780004FF480000D9010200E90C020CDE90F0571
:102790000420119006A80C95FEF7F4FC10B172B657
:1027A000FEE700BF0F20CDE90105802003904FF424
:1027B0008050CDE9040401A80221FEF7B5FB18B151
:1027C00072B600BFFEE700BF12B0B0BD4EF6885033
:1027D000CEF20000016841F4700101607047000012
:1027E00040F23420C2F20000FEF712BF10B540F6EE
:1027F000FF3E0368C4F2000E40F2004C7045C4F284
:10280000010C27DCB0F1804F31D040F20042C4F21D
:10281000000290422BD040F60002C4F20002904227
:1028200025D041F6FF72C4F20002904229DC7045C7
:102830003CDCB0F1804F5FD040F20042C4F20002B5
:10284000904259D040F60002C4F20002904253D0A8
:1028500056E000BF40F60042C4F20002904206D0AB
:10286000604504D00022C4F201029042D9D14A68E6
:1028700023F07003134341F6FF72C4F2000290424A
:10288000D5DD43F6FF72C4F20102904222DC42F22F
:102890000002C4F2000290422ED00022C4F20102D3
:1028A000904229D0604527D02AE000BF40F6004280
:1028B000C4F2000290421FD041F60002C4F20002AE
:1028C000904219D041F60042C4F20002904213D067
:1028D00016E000BF44F20002C4F2010290420BD0A5
:1028E00044F60002C4F20102904205D044F20042D4
:1028F000C4F20102904203D1CA6823F44073134327
:1029000023F080024B69D1F800E08C681A43026022
:10291000C46240F48062C0F828E0624504BF0969DF
:102920000163012141610169C90708BF10BD016947
:1029300021F00101016110BD40F29000C2F20000DF
:10294000FEF722BF806B0021C185C184FEF71ABF4C
:1029500081B090F84210222921D183680246B3F554
:10296000805F09D152F8281F52F8183C002B63D021
:1029700003685B680AE000BF52F8281F13B90369B7
:10298000002BF5D003685B6803F07F030B701168C0
:1029900001311160C18D01390A04C18502D001B035
:1029A000704700BF0168CA6822F02002CA60CA6886
:1029B00022F48072CA604A6922F001024A61202131
:1029C00080F8421000214163026B012A3CD101636F
:1029D000016851E8031F026821F0100142E8031367
:1029E000DBB1016851E8031F026821F0100142E8E1
:1029F000031393B1016851E8031F026821F010012D
:102A000042E803134BB1016851E8031F026821F04B
:102A1000100142E80313002BDAD101680A68D206DC
:102A200006D5002200920A68009249680091009938
:102A3000818D01B0FEF7A4BE026852686FF35F2279
:102A400021F8022B8162A5E701B0FFF7E5B900008C
:102A500010B504460068D4E902C22369016921F473
:102A6000405111430161626943EA0C01E36911437A
:102A7000C268194349F20C639A431143C16041692A
:102A8000A26921F4407141F20043114340F4806295
:102A9000C4F201039A42416102D1FEF729FB01E031
:102AA000FEF712FBE16963681922B1F5004FA0FB44
:102AB000020123D15A00DB0FFDF7DAFB48F21F5168
:102AC000C5F2EB11A0FB01235A094FF69C73C0F627
:102AD000FF7303F1805302FB0300322303EBC000BA
:102AE000A0FB01014FF4F87000EA111000EB021096
:102AF000C1F3421108442168886010BD9A009B0F01
:102B0000FDF7B6FB48F21F51C5F2EB11A0FB012304
:102B10005A094FF69C73C0F6FF7302FB0300322381
:102B200003EB0010A0FB0101F02000EA511000EBC4
:102B30000210C1F3431108442168886010BD0000F1
:102B4000FEE7000070B540F60044C4F202042046DF
:102B5000012100220026FDF705FF0A20FDF714FEE3
:102B6000204610211025FDF7F7FE002800F0A48074
:102B7000204620212025FDF7EFFE002800F096805A
:102B8000204640214025FDF7E7FE002800F0908018
:102B9000204680218025FDF7DFFE002800F08A8096
:102BA000204601210122FDF7DDFE20460221002200
:102BB0000026FDF7D7FE0A20FDF7E6FD204610218E
:102BC0001025FDF7C9FE002800F086802046202150
:102BD0002025FDF7C1FE002878D020464021402561
:102BE000FDF7BAFE002873D0204680218025FDF72E
:102BF000B3FE00286ED0204602210122FDF7B2FE6E
:102C00002046042100220026FDF7ACFE0A20FDF735
:102C1000BBFD204610211025FDF79EFE00286BD03D
:102C2000204620212025FDF797FE00285ED0204673
:102C300040214025FDF790FE002859D020468021F4
:102C40008025FDF789FE002854D02046042101226A
:102C5000FDF788FE2046082100220026FDF782FEAF
:102C60000A20FDF791FD204610211025FDF774FE86
:102C7000002851D0204620212025FDF76DFE002898
:102C800044D0204640214025FDF766FE00283FD075
:102C9000204680218025FDF75FFE00283AD020469F
:102CA00008210122FDF75EFE51E700BF012603E087
:102CB000022601E0032600BF20462946FDF74CFE10
:102CC0000028F9D0002501212EE000BF012603E0F5
:102CD000022601E0032600BF20462946FDF73CFE00
:102CE0000028F9D0012502211EE000BF012603E0E3
:102CF000022601E0032600BF20462946FDF72CFEF0
:102D00000028F9D0022504210EE000BF012603E0CF
:102D1000022601E0032600BF20462946FDF71CFEDF
:102D20000028F9D00325082120460122FDF71AFECC
:102D300002A000EB8500805D70BD00BF31323341E1
:102D400034353642373839432A3023442DE9F041AF
:102D500084B0044648F68C02C0F60C020068217963
:102D600002924FF0640802AA0423CDF80080FDF718
:102D7000C1FE42F62D164627C0F60D1603AD00BF64
:102D8000206821792A4604230396CDF80080FDF7B8
:102D9000B1FE013FF4D104B0BDE8F08180B582B04E
:102DA000C023002A08BF8023194321F00F02090124
:102DB00002F10C0308328DF804308DF8052001F182
:102DC0000C0203688DF8062001F1080201798DF8E4
:102DD00007204FF0640C01AA18460423CDF800C068
:102DE000FDF788FE02B080BD70B582B00446322087
:102DF000FDF7CAFC43F63C0620682179C0F60C06B4
:102E0000642501AA042301960095FDF773FE0520B1
:102E1000FDF7BAFC2068217901AA042301960095E8
:102E2000FDF768FE0120FDF7AFFC2068217901AABB
:102E3000042301960095FDF75DFE0A20FDF7A4FC32
:102E400042F62C02C0F60C0220682179019201AAF8
:102E500004230095FDF74EFE0A20FDF795FC42F68F
:102E60002C02C8F68C0220682179019201AA042361
:102E70000095FDF73FFE0120FDF786FC40F60C02B1
:102E8000C8F68C0220682179019201AA04230095DA
:102E9000FDF730FE0120FDF777FC40F60C02C1F68D
:102EA0001C0220682179019201AA04230095FDF7F4
:102EB00021FE0220FDF768FC40F60C02C6F66C020B
:102EC00020682179019201AA04230095FDF712FEE2
:102ED0000120FDF759FC40F60C02CCF6CC0220682C
:102EE0002179019201AA04230095FDF703FE02B0A7
:102EF00070BD0000F0B583B00A7802B304464E1EE0
:102F0000642702AD22F00F00110100F10D0209301B
:102F10008DF8090001F10D008DF808208DF80A00E8
:102F200001F10902206821798DF80B202A4604233B
:102F30000097FDF7DFFDB2780136002AE2D103B039
:102F4000F0BD000080B582B001F0F002090102F18D
:102F50000D0309328DF804308DF8052001F10D02C2
:102F600003688DF8062001F1090201798DF8072028
:102F70004FF0640C01AA18460423CDF800C0FDF7F9
:102F8000B9FD02B080BD000086B040F60044C4F236
:102F90000204FDF7DDFEFFF7C5FB002643F6300017
:102FA00005960096C4F202000168002241F08001FB
:102FB000016001680F2501F08001009100990096E1
:102FC000016841F001010160016801F00101009117
:102FD00000990096016841F008010160016801F064
:102FE0000801009100990096016841F0020101601A
:102FF00000680F2100F00200009000982046FDF7C5
:10300000B1FC019501AD012720462946CDE90277A3
:103010000496FDF7CDFBF02001A9C1C12046294649
:10302000FDF7C6FB40F2E015A4F5DC30C2F2000566
:1030300048F2A061C0F201014FF4804285E84300EC
:103040002846C5E90362C5E90566C5E90766FDF7D7
:1030500095FC18B172B600BFFEE700BFA4F5E031E1
:1030600040F27004C2F20004204640F8201F4FF4E2
:10307000E1310C22C0E90116C0E90366C0E905266A
:10308000C661FEF733FE18B172B600BFFEE700BF9F
:1030900044F8185F4E2020712046FFF7A5FE00F08F
:1030A0003FF845F2B842C0F600024FF480700121AB
:1030B00000F0ACF845F2884244F8140CC0F6000267
:1030C0004FF48070012100F0A1F845F2A04244F8CD
:1030D000100CC0F600024FF48070012100F096F849
:1030E00044F80C0C42F2F54045F26442C0F6000090
:1030F000C0F60002002100F027F944F8080C42F263
:10310000896045F24042C0F60000C0F6000200218E
:1031100000F01AF944F8040C00F016F8FEE700007D
:10312000EFF3058000281CBF6FF00500704740F2E8
:10313000DC10C2F200000168002911BF4FF0FF301F
:10314000012101600020704710B5EFF305800028D1
:103150001CBF6FF0050010BD40F2DC10C2F2000091
:10316000016801291CBF4FF0FF3010BD4EF61F5102
:10317000CEF2000100240C700221016001F02CF954
:10318000204610BD10B582B01C46B0FA80F3B1FAEB
:1031900081F25B095209EFF3058CBCF1000F42EAA2
:1031A000030219D0002C18BF0124224315D100229C
:1031B000019201AA01F010FE01281BD10198B0B1C3
:1031C0004EF60450CEF200004FF080510160BFF384
:1031D0004F8FBFF36F8F0AE022B16FF0030002B090
:1031E00010BD00BF224601F025FD012806D10020B8
:1031F00002B010BD6FF0020002B010BD6FF0010010
:10320000002C08BF6FF0020002B010BD70B582B094
:10321000154600294FF00004EFF3058218BF00287F
:1032200002D1204602B070BD002AFAD1B5B1D5E96D
:1032300002321BB3502A26D32A6922B36E6901FBDE
:1032400000F4A6424FF00004EBD3009401F0C0FA62
:1032500006460028E5D02C6807E000BF00220024C5
:1032600001F072FA06460028DBD03046214600F015
:10327000A7FF3446204602B070BD00BF1AB92A69C4
:103280000AB96A6922B10024204602B070BD00BFAD
:103290000022002401F058FA06460028DBD1C0E7DE
:1032A000B0B582B01C46B0FA80F3B1FA81F5EFF305
:1032B00005825B096D09002A43EA05020AD0002C49
:1032C00018BF012422430BD06FF00305284602B03B
:1032D000B0BD00BFF2B16FF00305284602B0B0BD2B
:1032E0000022019201AA002301F0F8FB012821D15C
:1032F000019828B34EF60450CEF200004FF08051F2
:103300000160BFF34F8FBFF36F8F0025284602B0D7
:10331000B0BD00BF22460023002501F0C9FA0128F4
:10332000D4D06FF00105002C08BF6FF002052846CD
:1033300002B0B0BD6FF00205284602B0B0BD00BFBC
:103340000025284602B0B0BD2DE9F04184B08E467C
:1033500000240394EFF3058150B149B94FF0000404
:1033600052B19369002B08BF1823382B16D90024BB
:10337000204604B0BDE8F08180251823002103AF6A
:103380000093AAB27346019701F0EAFD0399012860
:1033900008BF0C46204604B0BDE8F0811179C9078A
:1033A00024D15769D2E902864FEA970C1168002FA1
:1033B000654608BF8025B8F1000F13D05C2E15D3E9
:1033C00012690024002A18BF002FD1D0CDE90032A5
:1033D00062467346CDF8088001F0F2FD04B0BDE806
:1033E000F08100BF16B91269002AC8D00024204617
:1033F00004B0BDE8F08100002DE9F041044600F082
:10340000EFFD40F2D806C2F20006F06840F26C35DB
:103410000130F0603068C2F2000558B13069002810
:1034200040F007813068E16AC06A884298BF346022
:10343000FFE000BF3460F068012840F0FA802846C1
:1034400000F074FD05F1140000F070FD05F1280096
:1034500000F06CFD05F13C0000F068FD05F1500046
:1034600000F064FD05F1640000F060FD05F17800F6
:1034700000F05CFD05F18C0000F058FD05F1A000A6
:1034800000F054FD05F1B40000F050FD05F1C80056
:1034900000F04CFD05F1DC0000F048FD05F1F00006
:1034A00000F044FD05F5827000F040FD05F58C70DC
:1034B00000F03CFD05F5967000F038FD05F5A070B4
:1034C00000F034FD05F5AA7000F030FD05F5B4708C
:1034D00000F02CFD05F5BE7000F028FD05F5C87064
:1034E00000F024FD05F5D27000F020FD05F5DC703C
:1034F00000F01CFD05F5E67000F018FD05F5F07014
:1035000000F014FD05F5FA7000F010FD05F50270ED
:1035100000F00CFD05F5077000F008FD05F50C70D6
:1035200000F004FD05F5117000F000FD05F51670C2
:1035300000F0FCFC05F51B7000F0F8FC05F52070B0
:1035400000F0F4FC05F5257000F0F0FC05F52A709C
:1035500000F0ECFC05F52F7000F0E8FC05F5347088
:1035600000F0E4FC05F5397000F0E0FC05F53E7074
:1035700000F0DCFC05F5437000F0D8FC05F5487060
:1035800000F0D4FC05F54D7000F0D0FC05F552704C
:1035900000F0CCFC05F5577000F0C8FC05F55C7038
:1035A00000F0C4FC05F5617000F0C0FC05F5667024
:1035B00000F0BCFC05F56B7000F0B8FC05F5707010
:1035C00000F0B4FC05F5757000F0B0FC05F57A70FC
:1035D00000F0ACFC05F57F7000F0A8FC05F58260FA
:1035E00000F0A4FC05F2244000F0A0FC05F5876083
:1035F00000F09CFC05F24C4000F098FC40F2B4183E
:10360000C2F20008404600F091FC08F11407384669
:1036100000F08CFC06F1640000F088FC06F13C0030
:1036200000F084FC06F1500000F080FCC6F81C801D
:1036300037627068716A421CE06A72608842626434
:1036400088BF706200EB800005EB8000211D00F058
:10365000AFFC00F0E9FC306988B13068E16AC06A0B
:10366000884228BFBDE8F0814EF60450CEF200003B
:103670004FF080510160BFF34F8FBFF36F8FBDE8F4
:10368000F081000040F2D80540F26C364EF6045846
:10369000C2F20005C2F20006CEF200084FF08057D9
:1036A00003E000BF204600F0D7FCA868D0B100F0CE
:1036B00097FCA86CC468201D00F00AFCE86801387B
:1036C000E860A8680138A86000F0AEFC94F85900E2
:1036D0000228EAD00128E5D070B9206B00F0BCFCCC
:1036E000E0E700BF30680228DFD3C8F80070BFF3FE
:1036F0004F8FBFF36F8FD8E74FF0500080F31188E2
:10370000BFF36F8FBFF34F8FFEE700002DE9F04747
:103710000A9C8246206B16460F46DDE90859910047
:10372000A5229846FCF7FDFE206B002F00EB8600DB
:10373000A0F1040020F0070656D0387884F8340051
:10374000387800284BD0787884F8350078780028CD
:1037500045D0B87884F83600B87800283FD0F8789B
:1037600084F83700F878D0B3387984F8380038799D
:10377000A8B3787984F83900787980B3B87984F877
:103780003A00B87958B3F87984F83B00F87930B347
:10379000387A84F83C00387A08B3787A84F83D00A7
:1037A000787AE0B1B87A84F83E00B87AB8B1F87A9D
:1037B00084F83F00F87A90B1387B84F84000387B79
:1037C00068B1787B84F84100787B40B1B87B84F89D
:1037D0004200B87B00281CBFF87B84F8430000201F
:1037E00084F8430003E000BF002084F83400002781
:1037F000201D372D28BF3725E562C4E9135700F097
:10380000A1FB04F1180000F09DFBC5F13800A06198
:1038100030465146424624616462676584F85870B8
:1038200000F042FBB9F1000F206018BFC9F800405A
:10383000BDE8F08708480068006880F308884FF00A
:10384000000080F3148862B661B6BFF34F8FBFF3F8
:103850006F8F00DF00BF000008ED00E081B00020A6
:10386000009040F20C00C2F2000000684FF05001DE
:1038700081F31188BFF36F8FBFF34F8F013007D0F3
:10388000FEE700BF009830B9009820B9009810B941
:1038900000980028F6D001B07047000088B040F2D0
:1038A000501AC2F2000A0DF11009EB46DAF80800CE
:1038B00005681DB1C068046801E000BF002400F085
:1038C00003FE01F0C9FBDAF810100646884220D347
:1038D000002DCAF8106051D0A6424FD301F0C4FCAD
:1038E000DAF80800C068C7683D1D284600F0F0FA05
:1038F00097F82800410745D400F0FE0087F828001B
:1039000084E000BF6860DAF8080039462D6100F0F5
:103910001DFBDAF80800016831B3C068C5680468A7
:103920002F1D384600F0D4FA296A2846884795F8B2
:1039300028004007EDD5A8692044A042E2D8DAF873
:103940000000002800F04881002004A931C101F0E6
:1039500073FBDAF8000049460022002300F0A8FFBC
:103960000028D6D138E100BFDAF80C10CAF8106090
:10397000CAE9021001F078FC1AE100BF65B100222B
:1039800010E000BFB8693F610119B14279601FD9E9
:103990000AF1080021E000BFDAF80C000068B0FA74
:1039A00080F04209DAF80000A11B00F061FC01F090
:1039B0005BFC002840F0FC804EF60450CEF2000084
:1039C0004FF080510160BFF34F8FBFF36F8FEFE077
:1039D000311B814206D20AF10C000068294600F032
:1039E000B5FA13E0DAF80000002800F01381002097
:1039F00004A991C101F020FBDAF800004946002239
:103A0000002300F055FF002800F00481396A384691
:103A10008847CDE00098B0F1FF3F07DCDDE90120E9
:103A2000039990470098002800F1C280029E7069B7
:103A300010B1301D00F04CFA01F00EFBDAF8101056
:103A4000074688420DD30098CAF8107009283FD95C
:103A5000AEE000BF6860DAF8080021462D6100F092
:103A600075FADAF80800016841B3C068C568D0F893
:103A700000802C1D204600F02BFA296A2846884732
:103A800095F828004007ECD5A86940444045E1D8A6
:103A9000DAF80000002800F095800020CDE9040845
:103AA000069501F0C9FADAF8000049460022002321
:103AB00000F0FEFE0028D4D184E000BFDAF80C103C
:103AC000CAE902100098CAF81070092800F2708044
:103AD000DFE800F00606064448620606444800BFD8
:103AE00096F82800019A40F00101B06986F8281084
:103AF0008318314641F8043FBB42366106D99742EC
:103B00000AF1080007D293420AD204E0BA1A8242AC
:103B100006D20AF10C00006800F018FA48E000BF75
:103B2000316A3046884796F82800400740D5DAF8D1
:103B3000000000285AD00198B16906960844002177
:103B4000CDE9041001F078FADAF8000049460022C5
:103B5000002300F0ADFE58BB48E000BF96F82800F7
:103B600022E000BF96F8280040F00101019886F895
:103B700028100028B06143D0384431460AF10C02C5
:103B800041F8040F3661B84288BF0AF10802106894
:103B900000F0DCF90CE000BF96F82800810703D4A0
:103BA000304600F059FA03E000F0FE0086F82800E5
:103BB000DAF800005946002201F03CF800287FF4B2
:103BC00029AF73E64FF0500080F31188BFF36F8F79
:103BD000BFF34F8FFEE700BF4FF0500080F3118816
:103BE000BFF36F8FBFF34F8FFEE700BF4FF0500062
:103BF00080F31188BFF36F8FBFF34F8FFEE700BFD5
:103C00004FF0500080F31188BFF36F8FBFF34F8FD9
:103C1000FEE700BF4FF0500080F31188BFF36F8FB5
:103C2000BFF34F8FFEE70000F0B581B0044600F00F
:103C3000D7F994F94560012E0FDB04F1240500BF8C
:103C4000286850B1284601F0D5FA002818BF00F0C6
:103C500043FBF0B2013E0128F2D8FF2684F845600C
:103C600000F0E2F900F0BCF994F94470012F0EDB8A
:103C700004F11005286850B1284601F0BBFA00286D
:103C800018BF00F029FBF8B2013F0128F2D884F8F0
:103C9000446001B0BDE8F04000F0C6B970B504461C
:103CA00000F012FC40F28C1CC2F2000CDCF80400A4
:103CB00050B19CF80000002818BF4FF000404FF0B2
:103CC000000574BB8DE000BF40F2CC70C2F2000072
:103CD000C21D22F0070210F00701A0EB020318BF7B
:103CE000104600224FF47055CCE90602002918BF97
:103CF00003F57055411921F00701A1F10803CCF833
:103D0000043041E90222191AC0E9003101208CF87F
:103D100000004FF00040CCE90211002C4FF00005EC
:103D20005FD020405DD124F0070000F11002600751
:103D300008BF04F10802002A4FF0000551D0DCF85A
:103D4000080082424DD8604650F818EFDEF8045063
:103D500095422CD2DEF80010C1B174464D689542F0
:103D600018D20B68B3B15D68954217D21868A8B134
:103D70004568954216D20468A4B16568954215D28B
:103D80002168A6460029E9D111E000BF0CF1180016
:103D90000DE000BF8E46204609E000BF9E46084663
:103DA00005E000BF8646184601E000BFA646DCF8E5
:103DB00004108E4514D00168DEF80040AB1A112BB8
:103DC00004604DD30EEB0205680719D04FF0500088
:103DD00080F31188BFF36F8FBFF34F8FFEE700BFF3
:103DE000002501F041FA68075BD04FF0500080F3E6
:103DF0001188BFF36F8FBFF34F8F00BFFEE700BF87
:103E00000CF118006B60CEF8042000BF0368AB42D1
:103E10000AD21868A8420BD20368AB4204D21868D1
:103E20001A46A842F2D304E00246184601E000BF59
:103E30001A4653686C68D618AE4202D11C44154627
:103E400054602B19834207D1DCF80430984203D028
:103E5000D0E9000323446B60AA42286018BF1560B4
:103E600001F10805DEF80400DCE90212091A9142AA
:103E7000CCF8081038BFCCF80C109CF800100029C2
:103E800018BF40F00040CEF80400DCF8100000211C
:103E90000130CEF80010CCF8100001F0E5F9680709
:103EA000A3D1284670BD0000034643F65D00C0F66E
:103EB00000004FF0807C21F0010103E903106FF056
:103EC000020043F8240CA3F1440043F8202C70476F
:103ED000D0E9013201699A60D1F804C08268844552
:103EE000536008BF4A600022026108680138086018
:103EF0000868704744F2D053C2F20003036044F2F2
:103F0000D030C2F2000008608020106070470000CE
:103F100044F62C23C2F20003036044F22C60C2F288
:103F2000000008604FF48070106070474FF0FF3160
:103F3000024642F8081F00214260C0E903220160E6
:103F400070470000002101617047000010B5D1F8F2
:103F500000E01EF1010213D000F10804626813684A
:103F6000734511D853681C68744511D85A68146891
:103F700074450FD854682368A4467345EED90BE006
:103F80000269D2F804C007E09446224604E000BF6C
:103F90009C4601E094461A46C1F804C0CCF80810CB
:103FA0008A605160086101680131016010BD000044
:103FB000D0F800C0436808619A684B608A609A68CC
:103FC000996051600CF1010101607047DFF80C004D
:103FD000016841F4700101607047000088ED00E065
:103FE0004FF0500080F31188BFF36F8FBFF34F8FF6
:103FF00040F20C00C2F2000001684A1C026009B1E4
:10400000704700BF4EF60450CEF200000068000674
:1040100008BF70474FF0500080F31188BFF36F8FD7
:10402000BFF34F8FFEE7000040F20C00C2F2000029
:10403000016839B10139016018BF7047002080F371
:10404000118870474FF0500080F31188BFF36F8FD5
:10405000BFF34F8FFEE7000070B5002808BF70BDAA
:1040600040F28C15C2F200050446287854F8041C6E
:10407000002818BF4FF0004008420DD0A4F10806F8
:1040800032689AB14FF0500080F31188BFF36F8F00
:10409000BFF34F8FFEE700BF4FF0500080F3118851
:1040A000BFF36F8FBFF34F8FFEE700BF21EA000021
:1040B00044F8040C00F008FA54F8041CA8680844FA
:1040C000A86005F1180000BF0368B3420AD218685F
:1040D000B04225D20368B34204D218681A46B042EF
:1040E000F2D301E0024618465368D418B44202D114
:1040F0001944164651607318834206D16B68984282
:1041000003D0D0E9000319447160B242306018BF97
:104110001660686901306861BDE8704001F0A4B8BC
:104120001A465368D418B442E5D1E1E74EF21000C4
:10413000CEF2000000210160816040F20801C2F26D
:104140000001096844F6D352C1F26202A1FB0212D7
:104150004FF0FF3101EB9211416007210160704780
:1041600040F2AC10EFF305811029C2F2000011D328
:104170004EF2F032CEF20002895C0278914209D20E
:104180004FF0500080F31188BFF36F8FBFF34F8F54
:10419000FEE700BF4EF60C51CEF200010968406800
:1041A00001F4E061814298BF70474FF0500080F306
:1041B0001188BFF36F8FBFF34F8F00BFFEE7000082
:1041C00044F6882CC2F2000CDCF8002022B36346CF
:1041D00053F8082F42B3634653F8102F52B3634687
:1041E00053F8182F62B3634653F8202F72B3634617
:1041F00053F8282F82B3634653F8302F92B36346A7
:1042000053F8382F002A18BF7047072219600CEBAB
:10421000C2014860704700BF0022634619600CEB82
:10422000C2014860704700BF012219600CEBC20157
:1042300048607047022219600CEBC2014860704769
:10424000032219600CEBC201486070470422196018
:104250000CEBC20148607047052219600CEBC201EB
:1042600048607047062219600CEBC2014860704735
:1042700070B515460E460446FFF7B2FE94F84400AA
:10428000FF2804BF002084F8440094F84500FF286C
:1042900004BF002084F84500FFF7C6FEA06B28B1DC
:1042A0002046BDE87040FFF7BFBC00BF04F124000A
:1042B00031462A4600F052F82046BDE87040FFF72C
:1042C000B3BC000040F2D801C2F200018A6B026068
:1042D000896941607047000040F2D800C2F20000D6
:1042E000012101637047000070B5D8B140F2D804D5
:1042F000C2F200040D4621681831FFF727FEA669B7
:1043000020680430FFF7E4FD681C15D02068AD1963
:10431000456019D3206A21680431BDE87040FFF779
:1043200015BE00BF4FF0500080F31188BFF36F8FB0
:10433000BFF34F8FFEE700BF54F8500B011D20461E
:10434000BDE87040FFF734BEE06921680431FFF733
:10435000FDFDE06A854238BFE56270BDF0B581B011
:10436000C0B140F2D804C2F200040D4621681646DE
:104370001831FFF71DFEA76920680430FFF7A8FD7C
:1043800096B154F8500B011D204601B0BDE8F04035
:10439000FFF70EBE4FF0500080F31188BFF36F8F10
:1043A000BFF34F8FFEE700BF2068ED19456007D3CC
:1043B000206A2168043101B0BDE8F040FFF7C6BDB6
:1043C000E06921680431FFF7C1FDE06A854238BF2A
:1043D000E56201B0F0BD000010B588B00020CDE965
:1043E000050006A805A904AAFFF784FD0598002882
:1043F0003ED0069C002C45D05C21049A0791079979
:104400005C2949D107992063022084F8590007A844
:104410000021CDE9001043F28560C0F6000028A11C
:1044200000230294FFF772F92046FEF7E5FF079894
:1044300040F2D804C2F20004A062B0B100F08CFFD8
:10444000411C33D0012810D14FF0500080F3118867
:10445000BFF36F8FBFF34F8F4FF0FF30E06201204B
:1044600020610020A06100F095F808B010BD00BFE9
:104470004FF0500080F31188BFF36F8FBFF34F8F61
:10448000FEE700BF4FF0500080F31188BFF36F8F3D
:10449000BFF34F8FFEE700BF4FF0500080F311884D
:1044A000BFF36F8FBFF34F8FFEE700BF4FF0500099
:1044B00080F31188BFF36F8FBFF34F8FFEE700BF0C
:1044C00049444C450000000040F2D800C2F2000010
:1044D000416901314161704780B540F2D80EC2F2A6
:1044E000000EDEF8141019B10121CEF8301080BD95
:1044F0000021CEF83010DEF8241040F26C3C01EBC5
:104500008103C2F2000C5CF823208AB101EB810226
:104510000CEB820353F8042F5268181D82421A6074
:1045200020D0D068CEF80000CEF8241080BD00BFA7
:104530000CEB8302A2F12803E1B15A6922BB0129E5
:1045400018D01A6812BB022914D053F8142CFAB9E7
:1045500003290FD053F8282C0439002AA3F1500363
:10456000EAD0D3E752681A60D068CEF80000CEF8DF
:10457000241080BD4FF0500080F31188BFF36F8F7F
:10458000BFF34F8FFEE700BF0139BFE70239BDE738
:104590000339BBE7B0B584B04EF2004CCEF2000C4C
:1045A0004CF27021C4F20F11DCF800294B1C9A4226
:1045B0000AD14FF0500080F31188BFF36F8FBFF323
:1045C0004F8F00BFFEE700BFDCF800298A4209D107
:1045D0004FF0500080F31188BFF36F8FBFF34F8F00
:1045E000FEE700BF9CF800100291FF218CF800103C
:1045F0009CF800108DF807109DF8071001F050028C
:1046000040F2AC11C2F200010A7007224A609DF923
:104610000720B2F1FF3F69DC032200BFD31C4B60CF
:104620009DF8070040008DF807009DF90700B0F1E4
:10463000FF3F23DC931C4B609DF8070040008DF882
:1046400007009DF90700B0F1FF3F17DC531C4B60DA
:104650009DF8070040008DF807009DF90700B0F1B4
:10466000FF3F0BDC4A609DF80700043A40008DF8DC
:1046700007009DF907000028D0D4131D032B35D166
:104680004FF44070486002988CF80000DCF8200974
:1046900040F47000CCF82009DCF8200940F07040AC
:1046A000CCF82009FFF742FD40F20C04C2F20004EE
:1046B00000252560FFF78AFC4EF63470CEF200002C
:1046C000016841F040410160FFF7B4F8FFF704FFD3
:1046D000039520684FF0500181F31188BFF36F8F6D
:1046E000BFF34F8F013011D0FEE700BF4FF05000F5
:1046F00080F31188BFF36F8FBFF34F8FFEE700BFCA
:10470000039830B9039820B9039810B9039800288A
:10471000F6D0002004B0B0BD80B54FF0500080F35B
:104720001188BFF36F8FBFF34F8F00F09BFC30B148
:104730004EF60450CEF200004FF080510160002090
:1047400080F3118880BD00002DE9F041B0B306462A
:104750004843503014460F46FFF7A0FA054650B3C1
:104760004FF00008284685F84680002F18BF5030CB
:104770002860C5E90F67FFF733FC2868D5E90F12F9
:10478000C5F8388002FB0103013901FB0201C5E9CC
:104790000103FF20E96085F8440085F8450005F134
:1047A0001000FFF7C3FB05F12400FFF7BFFBFFF785
:1047B0003BFC85F84C402846BDE8F0814FF05000A6
:1047C00080F31188BFF36F8FBFF34F8FFEE70000B8
:1047D00070B582B070B11C46B3B1F9B9F2B14FF007
:1047E000500080F31188BFF36F8FBFF34F8F00BF6E
:1047F000FEE700BF4FF0500080F31188BFF36F8FCA
:10480000BFF34F8FFEE700BF4FF0500080F31188D9
:10481000BFF36F8FBFF34F8FFEE700BF51B14AB9AF
:104820004FF0500080F31188BFF36F8FBFF34F8FAD
:10483000FEE700BF50230193019B502B2ED1019B1B
:10484000069E012384F84630002908BF22462260D4
:10485000C4E90F01FFF7C4FB2068D4E90F1200255B
:1048600002FB0103013901FB0201A563C4E9010355
:10487000FF20E16084F8440084F8450004F1100052
:10488000FFF754FB04F12400FFF750FBFFF7CCFBCC
:10489000204684F84C6002B070BD00BF4FF050005D
:1048A00080F31188BFF36F8FBFF34F8FFEE70000D7
:1048B0002DE9F04F83B00292C0B11D4617460E4657
:1048C0000446E9B1022D03D1E06B012840F0888055
:1048D00000F0B2FB10BB0FB34FF0500080F3118813
:1048E000BFF36F8FBFF34F8FFEE700BF4FF0500055
:1048F00080F31188BFF36F8FBFF34F8FFEE700BFC8
:10490000206C0028DED04FF0500080F31188BFF3F8
:104910006F8FBFF34F8F00BFFEE700BFFFF760FB55
:10492000A06B022D66D0E16B884263D304F11008BE
:1049300001206F460DF108090DE000BF2046FFF78A
:1049400073F900F091FCFFF74BFBA06BE16B884221
:104950004FF000004ED30299002973D0C00702D057
:104960003846FFF7AFFCFFF75FFBFFF7ADFDFFF742
:1049700037FB94F84400FF2804BF002084F844006B
:1049800094F84500FF2804BF002084F84500FFF795
:104990004BFB3846494600F091FA002858D1FFF702
:1049A0001FFBD4F838A0D4F83CB0FFF73DFBDA4544
:1049B000C4D102994046FFF797FC2046FFF734F92F
:1049C00000F052FC0028BED14EF60450CEF200009A
:1049D0004FF080510160BFF34F8FBFF36F8FB2E78D
:1049E0004FF0500080F31188BFF36F8FBFF34F8FEC
:1049F000FEE700BFA76B226CD2B19DB3E0683146E1
:104A0000FBF74AFDE168206C2268091A9142E160D7
:104A100003D2A16840420844E060A81EB0FA80F0CA
:104A200040093946002F18BF012108403F1A26E0EF
:104A30002068002520BBA06800F096FBA560054615
:104A40001EE000BFFFF7F0FA002003B0BDE8F08FD2
:104A50002046FFF7E9F800F007FC002003B0BDE8AE
:104A6000F08F00BF60683146FBF716FD216CD4E97A
:104A7000010208449042606001D320686060002514
:104A8000781CA06354F8240FA0B1204600F0B2FBBC
:104A900050B14EF60450CEF200004FF0805101604C
:104AA000BFF34F8FBFF36F8FFFF7BEFA012003B044
:104AB000BDE8F08F002DF7D04EF60450CEF2000086
:104AC0004FF080510160BFF34F8FBFF36F8FFFF73F
:104AD000ABFA012003B0BDE8F08F00002DE9F047EC
:104AE00000B31E46144605460F4629B3022E02D1D6
:104AF000E86B012852D1FFF733FBEFF311884FF039
:104B0000500080F31188BFF36F8FBFF34F8FA86BF6
:104B1000022E1FD0E96B88421CD3002088F3118835
:104B2000BDE8F0874FF0500080F31188BFF36F8F1E
:104B3000BFF34F8FFEE700BF286C0028D6D04FF0A0
:104B4000500080F31188BFF36F8FBFF34F8F00BF0A
:104B5000FEE700BF95F84590A86BD5F838A02A6C01
:104B600032B36EB3E8683946FBF796FCE968286C07
:104B70002A68091A9142E96003D2A96840420844B0
:104B8000E860B01EB0FA80F040095146BAF1000F5B
:104B900018BF01210840AAEB000A1EE04FF05000A8
:104BA00080F31188BFF36F8FBFF34F8FFEE700BF15
:104BB000286890B9A86800F0D7FA0020A8600CE037
:104BC00068683946FBF768FC296CD5E9010208449E
:104BD0009042686001D3286868600AF10100B9F169
:104BE000FF0FA86310D155F8240FB8B1284600F084
:104BF00001FB0146002C4FF0010018BF002913D122
:104C000088F31188BDE8F08709F1010085F84500B7
:104C1000012088F31188BDE8F08700BF012088F3E8
:104C20001188BDE8F08700BF0120206088F311885B
:104C3000BDE8F0872DE9F04F83B0029290B116469F
:104C40000D460446002947D000F0F6F9A0B99EB100
:104C50004FF0500080F31188BFF36F8FBFF34F8F79
:104C6000FEE700BF4FF0500080F31188BFF36F8F55
:104C7000BFF34F8FFEE700BFFFF7B2F9D4F838A0BB
:104C8000BAF1000F36D0226C52B1D4E9023081184B
:104C9000E160994224BF2168E1602846FBF7FCFBF4
:104CA000AAF10100A06354F8100F70B1204600F083
:104CB000A1FA50B14EF60450CEF200004FF08051F0
:104CC0000160BFF34F8FBFF36F8F0124FFF7ACF983
:104CD000204603B0BDE8F08F206C0028B4D04FF020
:104CE000500080F31188BFF36F8FBFF34F8F00BF69
:104CF000FEE700BF04F1240801206F464FF00009D1
:104D00000DF1080B2EE000BFFFF78EF9FFF7DCFB7B
:104D1000FFF766F994F84400FF2808BF84F8449030
:104D200094F84500FF2808BF84F84590FFF77CF908
:104D30003846594600F0C2F8E0B12046FEF774FF4D
:104D400000F092FAFFF74CF9A66BFFF76DF9002E11
:104D50003CD0FFF745F9D4F838A00020BAF1000F95
:104D60007FF491AF029949B3C007CDD03846FFF721
:104D7000A9FAC9E7FFF734F9A66BFFF755F92EB189
:104D80002046FEF751FF00F06FFAE2E70299404635
:104D9000FFF7AAFA2046FEF747FF00F065FA002861
:104DA000D7D14EF60450CEF200004FF08051016092
:104DB000BFF34F8FBFF36F8FCBE700BF0024FFF728
:104DC00033F9204603B0BDE8F08F00BF0024204631
:104DD00003B0BDE8F08F00002DE9F04381B000285A
:104DE0003ED0914605460E46002943D0FFF7B8F95C
:104DF000EFF311884FF0500080F31188BFF36F8FED
:104E0000BFF34F8FAC6B002C42D095F844702A6CE6
:104E100052B1D5E902308118E960994224BF29686E
:104E2000E9603046FBF738FB601EFF2FA86335D1E1
:104E300055F8100F00283BD0284600F0DBF901465A
:104E4000B9F1000F4FF0010004D000291CBF012070
:104E5000C9F8000088F3118801B0BDE8F08300BFF5
:104E60004FF0500080F31188BFF36F8FBFF34F8F67
:104E7000FEE700BF286C0028B8D04FF0500080F348
:104E80001188BFF36F8FBFF34F8F00BFFEE700BFE6
:104E9000002088F3118801B0BDE8F083781C85F804
:104EA0004400012088F3118801B0BDE8F08300BF01
:104EB000012088F3118801B0BDE8F083B0B5D8B106
:104EC0000D4619B30446FFF78BF840F2D80CC2F236
:104ED000000CDCF8182029684B1C21D0D4E9000E06
:104EE000DCF83830834221D072451FD30124FFF70C
:104EF0009BF82046B0BD00BF4FF0500080F31188F2
:104F0000BFF36F8FBFF34F8FFEE700BF4FF050002E
:104F100080F31188BFF36F8FBFF34F8FFEE700BFA1
:104F20000024FFF781F82046B0BD00BFA2EB0E02BF
:104F300091420DD9881A2860DCF838002060DCF82E
:104F4000180060600024FFF76FF82046B0BD00BF76
:104F5000002001242860FFF767F82046B0BD00005C
:104F60002DE9F04383B007469000984615468946E0
:104F7000FEF794FEF8B106465C20FEF78FFEB8B14E
:104F80000446DDE90A100022266384F85920CDE9A1
:104F90000010384649462A4643460294FEF7B6FBBF
:104FA0002046FEF729FA012003B0BDE8F08300BFD8
:104FB0003046FFF751F84FF0FF3003B0BDE8F08303
:104FC00070B586B00B9CCCB10C9E0EB35C250495DD
:104FD000049D5C2D26D1049DDDF828C0022586F8AD
:104FE000595005AD3463CDE900C50296FEF78EFB3E
:104FF0003046FEF701FA059806B070BD4FF050003C
:1050000080F31188BFF36F8FBFF34F8FFEE700BFB0
:105010004FF0500080F31188BFF36F8FBFF34F8FB5
:10502000FEE700BF4FF0500080F31188BFF36F8F91
:10503000BFF34F8FFEE7000040F2D800C2F200003D
:10504000016900290FBF01204069B0FA80F04009D2
:1050500018BF40007047000040F2D800C2F20000C4
:10506000806970472DE9F04381B040F2D806C2F262
:105070000006706940B1706B0024013070632046F7
:1050800001B0BDE8F08300BFB06910F10109C6F8B6
:10509000189020D3F069006850B14FF0500080F3B1
:1050A0001188BFF36F8FBFF34F8F00BFFEE700BFC4
:1050B000F069316AF1613062B06B0130B063F06960
:1050C000006828B1F069C068C068406802E000BFAD
:1050D0004FF0FF30F062F06A40F26C388145C2F266
:1050E000000801D200242EE0F0690024006813E0DB
:1050F000F86A716A884288BF706200EB800008EB32
:1051000080002946FEF754FFF86A3168C96AF269DF
:10511000884228BF0124106890B1F069C068C76850
:105120003D4655F8040F81450CD32846FEF7D0FEC6
:10513000B86A0028DCD007F11800FEF7C9FED7E7EF
:105140004FF0FF30F0623068C06A00EB800058F822
:105150002000012888BF0124306B002818BF0124DB
:10516000204601B0BDE8F08370B588B140F2D806A2
:10517000C2F2000604463068A0420BD04FF0500047
:1051800080F31188BFF36F8FBFF34F8FFEE700BF2F
:10519000002070BD206D18B3411EE06AE26C2165ED
:1051A00090424FF0000008BF70BDC1B9251D2846D0
:1051B000FEF78EFEE06CC0F13801E062A161716A19
:1051C000884240F26C3188BF706200EB8000C2F20E
:1051D000000101EB80002946FEF7EAFE012070BDC8
:1051E0004FF0500080F31188BFF36F8FBFF34F8FE4
:1051F000FEE7000070B5C068C5686DB105F1180420
:105200002046FEF765FE40F2D806C2F2000670693D
:1052100060B106F164001AE04FF0500080F311888D
:10522000BFF36F8FBFF34F8FFEE700BF2C1D2046EB
:10523000FEF74EFEE86A716A884240F26C3188BF20
:10524000706200EB8000C2F2000101EB8000214699
:10525000FEF7AEFEE86A3168C96A884292BF002054
:105260000120306370BD00002DE9F04140F2D80507
:10527000C2F20005686968B1FEF7B2FE68690138DC
:105280006861686980B10024FEF7CEFE2046BDE863
:10529000F08100BF4FF0500080F31188BFF36F8F93
:1052A000BFF34F8FFEE700BFE8680028EBD0686EC1
:1052B00088B340F26C36C2F200064FF0010800BF1E
:1052C000286FC76807F11800FEF702FE3C1D204654
:1052D000FEF7FEFDF86A696A884288BF686200EBE3
:1052E000800006EB80002146FEF762FEF86A29681E
:1052F000C96A884228BFC5F83080686E0028DFD1AF
:10530000E869006820B1E869C068C068406801E0E9
:105310004FF0FF30E8626C6B4CB10126FFF7A2FE44
:10532000002818BF2E63013CF8D100206863286B69
:105330000028A8D04EF60450CEF200004FF0805165
:105340000160BFF34F8F0124BFF36F8FFEF76CFE38
:105350002046BDE8F081000070B586B0FEF740FE43
:1053600040F25016C2F20006306808BB06F1140481
:105370002046FEF7DBFD06F128052846FEF7D6FDA0
:1053800040F27C2240F21C33C6E902450025C2F2FD
:105390000002C2F200030A2010210095FFF718FA5C
:1053A000306028B145F2FD41C0F60001FEF708FF6C
:1053B000FEF73AFE3068D8B10020CDE9040005A818
:1053C00004A903AAFEF7A4FDDDE903200221059D3F
:1053D000CDE9001043F69D00C0F6000009A10023AE
:1053E0000295FFF7EDFD706010B1012006B070BDB1
:1053F0004FF0500080F31188BFF36F8FBFF34F8FD2
:10540000FEE700BF546D722053766300F1EE100A80
:105410004FF6FF71C0F2C03120EA010040F0407049
:10542000E1EE100A704700000000000000000102D9
:10543000030406070809000000000102030400003D
:10544000EE54000800000000000000000000000012
:105450000000000000020000080000000000000042
:1054600000000000F65400080000000000000000EA
:105470000000000000000000000200001800000012
:105480000000000000000000DC54000800000000E4
:10549000000000000000000000000000000000000C
:1054A000E5540008000000000000000000000000BB
:1054B0000000000000000000D054000800000000C0
:1054C00000000000000000000000000000000000DC
:1054D0006B6579706164517565756500636D6451C4
:1054E00075657565006B657951756575650049323F
:1054F000435461736B0050435461736B00546D727D
:105500005100000066726F6D2053544D33320A0013
:10551000305500080000002010000000C401000801
:105520004055000810000020B8500000E0010008BD
:1055300001000000100000000024F400AAAAAAAA9A
:040000050800018965
:00000001FF
