:020000040800F2
:10000000805000202902000821140008191400085B
:100010001D1400085D0500089D1C0008000000007C
:10002000000000000000000000000000F1160008C1
:10003000610500080000000031140008CD18000818
:10004000430200084302000843020008430200087C
:100050004302000843020008650500084302000847
:10006000430200084302000843020008430200085C
:10007000430200084302000843020008430200084C
:10008000430200084302000843020008430200083C
:10009000430200084302000843020008430200082C
:1000A000430200084302000843020008A5190008A3
:1000B000430200084302000843020008430200080C
:1000C00043020008430200084302000843020008FC
:1000D00043020008430200084302000843020008EC
:1000E00043020008430200084302000843020008DC
:1000F00043020008551A0008091A000843020008C4
:1001000043020008430200084302000843020008BB
:100110004302000843020008A9190008D919000881
:10012000430200084302000843020008430200089B
:10013000430200084302000843020008430200088B
:10014000430200084302000843020008430200087B
:10015000430200084302000843020008430200086B
:10016000430200084302000843020008430200085B
:100170004302000843020008430200080000000098
:10018000430200084302000800F002F800F03CF8C7
:100190000AA090E8000C82448344AAF10107DA45E2
:1001A00001D100F031F8AFF2090EBAE80F0013F0F8
:1001B000010F18BFFB1A43F001031847C83B0000AA
:1001C000E83B0000103A24BF78C878C1FAD852073B
:1001D00024BF30C830C144BF04680C6070470000C1
:1001E0000023002400250026103A28BF78C1FBD840
:1001F000520728BF30C148BF0B6070471FB503F0DE
:100200005FFD1FBD10B510BD00F06EF91146FFF780
:10021000F5FF01F053FD00F08CF903B4FFF7F2FF96
:1002200003BC00F093F900000948804709480047E3
:10023000FEE7FEE7FEE7FEE7FEE7FEE7FEE7FEE796
:10024000FEE7FEE704480549054A064B70470000F3
:100250009119000889010008804A00208050002080
:10026000804C0020804C002053EA020C00F0698092
:100270002DE9F04B4FF00006002B1FBFB3FA83F5BA
:1002800003FA05F424FA05F65E4012BF1643B2FAEB
:1002900082F502FA05F4C5F120051EBF22FA05FC1D
:1002A00044EA0C04203556EA044C4FEA144418BFC3
:1002B000641C4FF000084FF00009904271EB030CF2
:1002C00039D3002919BFB1FA81F701FA07F6B0FA5C
:1002D00080F700FA07F6C7F120071EBF20FA07FCD7
:1002E00046EA0C062037B6FBF4FCA7EB0507103FE7
:1002F00007F01F0BCBF120062CFA06F60CFA0BFBCD
:1003000044BFB3460026202FA4BF5E464FF0000B2B
:100310005BEA060C08BF4FF0010B19EB0B0948EB29
:100320000608ABFB027C06FB02CC0BFB03CCC01B1C
:1003300071EB0C01C1E70B46024641464846BDE859
:10034000F08B13B5084318BF4FF0FF300146AFF3F1
:100350000080BDE81C40704710B5431C02E010F857
:10036000011B71B18107FAD14FF0013202C88C1A1A
:100370008C4314EAC211F9D0C01A0A0603D0C01E79
:1003800010BDC01A10BD0A0401D0801E10BD0902A4
:10039000FCD0401E10BD032A40F2308010F0030C48
:1003A00000F0158011F8013BBCF1020F624498BFC8
:1003B00011F801CB00F8013B38BF11F8013BA2F165
:1003C000040298BF00F801CB38BF00F8013B11F0E0
:1003D000030300F05780083AC0F0088051F8043B4E
:1003E000083A51F804CBA0E80810F5E7121D5CBFED
:1003F00051F8043B40F8043BAFF30080D20724BF20
:1004000011F8013B11F801CB48BF11F8012B24BFB3
:1004100000F8013B00F801CB48BF00F8012B704702
:1004200002F0FF0343EA032242EA024200F002B86C
:100430004FF0000200B5134694469646203922BF7D
:10044000A0E80C50A0E80C50B1F12001BFF4F7AFC8
:10045000090728BFA0E80C5048BF0CC05DF804EBAA
:10046000890028BF40F8042B08BF704748BF20F818
:10047000022B11F0804F18BF00F8012B7047704716
:100480007047704710B5203AC0F00B80B1E81850A3
:10049000A0E81850B1E81850A0E81850203ABFF46E
:1004A000F5AF5FEA027C24BFB1E81850A0E818500D
:1004B00044BF18C918C0BDE810405FEA827C24BF61
:1004C00051F8043B40F8043B08BF7047D20728BFEF
:1004D00031F8023B48BF11F8012B28BF20F8023B3E
:1004E00048BF00F8012B7047754600F02BF8AE4668
:1004F00005006946534620F00700854618B020B530
:10050000FFF7A0FEBDE820404FF000064FF00007C7
:100510004FF000084FF0000BAC46ACE8C009ACE867
:10052000C009ACE8C009ACE8C00921F007018D465C
:10053000704710B50446AFF300802046BDE8104078
:10054000FFF76BBE004870471800002001491820D3
:10055000ABBEFEE72600020070470000FEE7000089
:1005600070470000B0B543F61444C4F201042046BD
:100570000121012501F094FB002808BFB0BD2046F1
:10058000012102F049FA40F27800C2F20000457001
:10059000B0BD000010B543F64400C4F202004FF4B1
:1005A000804102F039FA43F60804C4F201042046FF
:1005B0000F2101F07BFB04F57E70012102F02CFA83
:1005C00004F58060012102F027FA43F60C40C4F2E2
:1005D0000100012101F06AFB4EF20020CEF2000082
:1005E0004021BDE8104002F017BA00002DE9F04F9D
:1005F00082B000F13E4241F6004502F1FF77C4F2BD
:100600000205082243F6004E4FEAB726A84208BF6B
:100610000722C4F2010E072E38BF4FEAB722012588
:10062000002600274FF00008009208E008F10108BA
:100630000437B8F1100F06F1020600F0A7800C682D
:1006400005FA08F914EA090FF0D0D1F804B0032232
:100650000BF0030CACF10104B240012C6FEA020A6A
:1006600010D88268CC6802EA0A02B4402243826051
:100670004268CBF3001422EA090204FA08F4224388
:10068000426005E0BCF1030F02D14FF0030C20E003
:10069000C2688C6802EA0A02B4402243BCF1020F2D
:1006A000C26016D16FF0030202EA58020244D2F887
:1006B00020C007F01C050F230C69AB402CEA030394
:1006C00004FA05F52B431362D1F804B001250BF0B1
:1006D000030C02680CFA06F302EA0A021A431BF43E
:1006E000403F0260A2D0002243F644030192C4F2CC
:1006F00002031A684FF6084C42F480421A601A68E6
:10070000CFF6FF7C02F480420192019A28F00302A6
:10071000724452F80C3007F00C050F24AC40A34390
:10072000009C04FA05F52B4342F80C30DEF8082053
:100730004B6842EA090543F60C4CDC0258BF22EA3A
:100740000905CEF80850C4F2010CDCF800209C0228
:1007500042EA090558BF22EA0905CCF80050DEF844
:1007600004209C0342EA090558BF22EA0905CEF895
:100770000450DEF80020DB0342EA090558BF22EAF4
:100780000905CEF80050012550E700BF02B0BDE8D2
:10079000F08F0000002A08BF090481617047000043
:1007A00044F28030C2F200000068704740F200005E
:1007B00044F28031C2F20000C2F2000100780A68FF
:1007C000104408607047000080B543F60040C4F252
:1007D0000200016841F400710160016841F4806128
:1007E0000160016841F480710160032000F0C8F8E5
:1007F0000F2000F005F800F061F8002080BD000037
:1008000070B586B0002543F640010195C4F202019F
:100810000A68044642F480720A60096801A801F47B
:10082000807101910199694600F06AF9049E002ED9
:1008300018BF012600F084F94DF68361B040C4F280
:100840001B31A0FB01014FF0FF3000EB914140F262
:10085000E81042F20002C2F20000C4F2000240F2CC
:10086000E733C0E90021C0E902530561856100F06A
:1008700071FB054610B1284606B070BD40F2E81085
:10088000C2F2000000F096FB05460028F3D12D20AF
:1008900000F036F80F2C0DD82D202146002200251F
:1008A00000F042F840F20400C2F200000460284662
:1008B00006B070BD0125284606B070BD82B000208C
:1008C00043F640010190C4F202014A6842F48042BA
:1008D0004A604A6802F480420192019A00900868D6
:1008E000002240F08050086008680F2100F080501E
:1008F000009000986FF0010002B000F015B8000001
:10090000002848BF7047C1B200F01F00012202FA60
:1009100000F04EF20012CEF2000242EAD10121F0C4
:10092000030108607047000010B54EF60C5CCEF273
:10093000000CDCF80030C3F3022E8EF00704042C08
:1009400028BF0424BEF103034FF0FF3E0EFA04F467
:1009500038BF0023A14399400EFA03F39A43114391
:1009600000F00F0200F160430901043A03F564430B
:100970006244002848BF02F10C03197010BD00004A
:100980004EF60C51CEF200010A684FF6FF031A40F2
:1009900060F30A2242F0806040F0FD70086070470A
:1009A0002DE9F041002800F08B8043F60808C4F2DE
:1009B00002080446D8F8F8030D4600F00700884204
:1009C00007D288F8F853D8F8F80300F00700A842D7
:1009D00076D12068810717D5410705D5D8F80010D2
:1009E00041F4E051C8F80010010705D5D8F800100F
:1009F00041F46041C8F80010D8F80010A26821F056
:100A0000F0011143C8F80010C0073FD1D8F8F8032F
:100A100000F00700A84207D988F8F853D8F8F8037F
:100A200000F00700A8424BD12068410707D5D8F84D
:100A30000010E26821F4E0511143C8F800100007EB
:100A400008D5D8F80000216920F4604040EAC100D0
:100A5000C8F8000000F09CF8D8F8001043F6DA421D
:100A6000C1F30311C0F60002515C40F2080220FA03
:100A700001F140F20400C2F200000068C2F200027C
:100A80001160FFF7BDFE0020BDE8F0816068811EA7
:100A9000022907D258F8081C89015CBF0120BDE873
:100AA000F08111E0012807D158F8081C89035CBFC8
:100AB0000120BDE8F08107E058F8081C890703D43D
:100AC0000120BDE8F08100BFD8F8001021F003013B
:100AD0000843C8F80000FFF763FE064641F2883776
:100AE000D8F80000616800F00C00B0EB810F8DD0E9
:100AF000FFF756FE801BB842F2D90320BDE8F08113
:100B00000F22026043F60802C4F20202136803F0E7
:100B100003034360136803F0F0038360136803F476
:100B2000E053C360D2F800C04FF4E05303EADC03A3
:100B30000361D2F8F80300F0070008607047000076
:100B400040F2080043F60801C2F20000C4F20201BC
:100B50000068096843F6EA42C1F38221C0F6000248
:100B6000515CC8407047000040F2080043F608019D
:100B7000C2F20000C4F202010068096843F6EA42CA
:100B8000C1F34231C0F60002515CC840704700001A
:100B900010B543F60404C4F20204606800F00C00CF
:100BA000082842F20040C0F2F40018BF10BD2168CE
:100BB0002268236801F03F02C3F38811A1FB000102
:100BC0000023FFF751FB21680222C1F3014102EB30
:100BD0004101B0FBF1F010BD2DE9F04182B00028D9
:100BE00068D00446007843F60006C007C4F2020647
:100BF0000BD0B06800F00C00042840F09F803068F3
:100C0000800302D56068002854D0207880071AD568
:100C1000B06810F00C0F09D0B06800F00C00082884
:100C200040F0A6807068400200F1A2803068800722
:100C300002D5E06801283DD13068216920F0F80034
:100C400040EAC10030602078000737D420784007A0
:100C50004CD4A56955B3B06800F00C00082840F0EA
:100C6000BB80012D26D07068E16900F480028A42C1
:100C700020D1216A00F03F028A421BD147F6C071A1
:100C8000626A0140B1EB821F14D1A16A4FF6FF7373
:100C9000C903994300F44032A1F580318A4209D159
:100CA000E16A00F07060B0EB016F03D1002002B088
:100CB000BDE8F081012002B0BDE8F0816069002844
:100CC00040F20000C4F2472076D00121C0F8801E17
:100CD000FFF766FD054600BF706F8007B6D4FFF7CB
:100CE0005FFD401B0228F7D9DDE000BF306C10F03B
:100CF00080580AD100200190306C40F08050306460
:100D0000306C00F080500190019847F20007C4F267
:100D100000073868C00541D4386840F480703860F6
:100D2000FFF73EFD054600BF3868C00536D4FFF723
:100D300037FD401B0228F7D9B5E000BFB06800F0CE
:100D40000C00082803D1706840023FF558AF606876
:100D5000B0F5803F07D0B0F5A02F40F08D8030680F
:100D600040F480203060306840F4803030608DE0A6
:100D7000E068002852D00020C4F247200121016021
:100D8000FFF70EFD054600BF306880073FF554AF02
:100D9000FFF706FD401B0228F6D984E0A068012871
:100DA00005D005284ED1306F40F004003067306F19
:100DB00040F0010030674FE00021C0F8801EFFF7CF
:100DC000EFFC0546706F80077FF540AFFFF7E8FC4A
:100DD000401B0228F6D966E00027C4F2472700200E
:100DE0003866FFF7DDFC022D05460BD13068800127
:100DF0005ED5FFF7D5FC401B02284FF00300F5D964
:100E000055E700BF306880017FF550AFFFF7C8FCA1
:100E1000401B02284FF00300F4D948E70020C4F239
:100E2000472000210160FFF7BBFC054630688007C2
:100E30007FF509AFFFF7B4FC401B02284FF0030019
:100E4000F4D934E7316F002821F001013167316FA7
:100E500021F0040131674DD0FFF7A2FC054641F2B5
:100E6000883700BF306F800756D4FFF799FC401BCE
:100E7000B842F7D917E000BF3168002821F480316B
:100E80003160316821F4802131604FD0FFF788FC58
:100E9000054600BF306880033FF5B7AEFFF780FC22
:100EA000401B6428F6D9032002B0BDE8F08100BFE2
:100EB00004F11C052FCD084340EA8210D9034FF6F8
:100EC000FF729143A1F5803140EA056008437060EC
:100ED00001203866FFF764FC044600BF30688001DB
:100EE0003FF5E4AEFFF75CFC001B02284FF0030067
:100EF000F4D9DCE6FFF754FC054641F2883700BF21
:100F0000306F800708D5FFF74BFC401BB8424FF00D
:100F10000300F5D9CBE600BFB8F1000F7FF499AE1E
:100F2000306C20F08050306493E600BFFFF738FC4F
:100F3000054600BF306880037FF567AEFFF730FCE1
:100F4000401B64284FF00300F4D9B0E6704700005E
:100F500070470000002804BF0120704710B5044608
:100F600090F83D0028B9002084F83C00204600F0AD
:100F70001FF8022084F83D002068211D00F070FD5C
:100F8000012084F8460084F83E0084F83F0084F88D
:100F9000400084F8410084F8420084F8430084F85B
:100FA000440084F8450084F83D00002010BD000096
:100FB0007047000090F83D1001291CBF01207047C8
:100FC000022180F83D10006841F2FF72C168C4F24E
:100FD0000002904241F00101C1600DDC40F2FF715E
:100FE000C4F20001884215DCB0F1804F2AD040F2F3
:100FF0000041C4F2000123E040F2FF31C4F20101DC
:10100000884213DC41F60001C4F20001884219D085
:10101000002113E040F60001C4F20001884211D023
:1010200040F60041C4F200010AE000BF44F20001B2
:10103000C4F20101884205D040F20041C4F201012E
:10104000884206D1816801F00701062904BF00200B
:101050007047016841F00101016000207047000005
:101060007047000070B504460068C5680669B1079E
:1010700016D515F0020113D06FF0020101610121B4
:1010800021778069800703D02046FFF7E9FF05E05C
:10109000204600F08FF8204600F08EF800202077E0
:1010A000700719D515F0040016D020686FF0040100
:1010B000016102212177806910F4407F04D020462D
:1010C000FFF7CEFF06E000BF204600F073F8204691
:1010D00000F072F800202077300717D515F00800CF
:1010E00014D020686FF00801016104212177C069E4
:1010F000800703D02046FFF7B3FF05E0204600F04D
:1011000059F8204600F058F800202077F00619D54D
:1011100015F0100016D020686FF010010161082151
:101120002177C06910F4407F04D02046FFF798FF74
:1011300006E000BF204600F03DF8204600F03CF8F5
:1011400000202077F00718BF15F0010002D130060B
:1011500009D412E020686FF001010161204600F01F
:101160002DF8300609D515F0800006D020686FF004
:10117000800101612046FFF7E9FE700609D515F0F0
:10118000400006D020686FF040010161204600F069
:101190001FF8B00658BF70BD15F0200008D02168B8
:1011A0006FF0200220460A61BDE87040FFF7D0BE14
:1011B00070BD00007047000070470000006842F2F8
:1011C0000001C4F20001884218BF7047FFF7EEBA71
:1011D00070470000002804BF0120704710B5044686
:1011E00090F8410028B9002084F84000204600F023
:1011F00021F8242084F841002068C16821F40051BE
:10120000C160204600F0D2FC2068016921F49041C1
:101210000161416921F02A014161C16841F4005135
:10122000C16000202021606484F8411084F84210DD
:10123000606310BD80B586B0016844F60040C4F21A
:101240000000814202D006B080BD00BF002143F6FD
:1012500030020191C4F20202136900F5DE3043F45A
:1012600000231361136903F400230193019B01918F
:10127000136843F004031360126802F00402019241
:10128000019A4FF4406201920222CDE9022103212A
:1012900004910821059101A9FFF7A8F906B080BDC6
:1012A0002DE9F041044690F8410020281CBF02209F
:1012B000BDE8F0810D4600294FF0010000F0AA8042
:1012C0001646002A08BFBDE8F08100206064212096
:1012D000984684F84100FFF763FAA684E684A16883
:1012E0000646B1F5805F02D12069002862D02F4602
:1012F0000025E08C002861D018F1010018D0B8F169
:10130000000F37D1216808E017F8010B4860E08C26
:101310000138E084E08C002851D00868000673D5BD
:10132000002FF1D135F8020B00276FF35F20EDE7B6
:10133000216802E00868000609D40868000606D49F
:10134000086800065CBF08685FEA0060F2D51FB15C
:1013500017F8010B05E000BF35F8020B00276FF30B
:101360005F204860E08C0138E084E08C0028E4D104
:1013700025E000BF216800BF0868000608D4FFF719
:101380000FFA801B404541D82168C868F4E700BFC8
:1013900017B117F8010B04E035F8020B00276FF3C3
:1013A0005F204860E08C0138E084E08C0028E3D1C5
:1013B00005E000BF0027E08C00289DD12168086867
:1013C00040061FD4B8F1000F1ED018F101000FD154
:1013D0000868400616D40868400613D4086840061A
:1013E00010D4086840064FF00000F1D50FE000BFB0
:1013F000FFF7D6F9801B404508D82068C16800680F
:101400004006F5D5002002E0FFF7CAF903202021AD
:1014100084F84110BDE8F081FEE70000FEE700001F
:10142000FEE70000000000000000000000000000D7
:10143000EFF30980BFF36F8F154B1A681EF0100F82
:1014400008BF20ED108A20E9F04F10602DE9090057
:101450004FF0500080F31188BFF34F8FBFF36F8FB1
:1014600001F0F6FD4FF0000080F31188BDE809009F
:1014700019680868B0E8F04F1EF0100F08BFB0EC14
:10148000108A80F30988BFF36F8F704700BF00BFD9
:10149000E0000020B0B543F63000C4F2020009219C
:1014A00001F0BAFA0024C4F202042046032100F03D
:1014B000FDFB04F10C00032100F0F8FB04F540658E
:1014C00028464FF0AA4101F0A7FA28464FF02A41DA
:1014D00000F0ECFB40F60445C4F2020528464FF448
:1014E000704100F0E3FB05F108004FF07F4100F090
:1014F000DDFB281D4FF07F4100F0D8FB20464FF464
:10150000403100F0D3FB20464FF4003101F084FA63
:1015100004F12400012101F07FFA04F5006528465A
:101520004FF4405100F0C2FB28464FF4005101F047
:1015300073FA04F502604FF04071BDE8B04001F06D
:101540006BBA000070B543F64404C4F20204201FD5
:10155000302101F061FA41F20005C4F2000528468D
:10156000012100F0A3FB2846842101F055FA05F182
:101570000C00012101F050FA05F1280041F63F71FD
:1015800001F04AFA05F12C0630464FF6FF7100F0E3
:101590008DFB3046632101F03FFA2846012101F01E
:1015A0003BFA05F580652846012100F07FFB2846BF
:1015B000842101F031FA41F22C46C4F20006A6F172
:1015C0002000012101F028FA301F40F69F7101F040
:1015D00023FA30464FF6FF7100F068FB304640F2C8
:1015E000E73101F019FA2846012101F015FA2046E9
:1015F000032101F011FA20464FF4804101F00CFA6A
:101600000024C4F201042046012100F04FFB2046D3
:10161000842101F001FA04F1280528464FF6FF71F4
:1016200000F044FB2846072101F0F6F904F12C05EF
:1016300028464FF6FF7100F039FB284640F2CF7183
:1016400001F0EAF904F134004FF4FA7101F0E4F921
:1016500004F118052846702100F028FB28463021A7
:1016600001F0DAF92846082101F0D6F904F120004A
:10167000012101F0D1F904F144004FF4004101F0DF
:10168000CBF92046012101F0C7F904F5806420461A
:10169000012100F00BFB40F21845C4F2010505F1F1
:1016A000100630464FF6FF7100F000FB3046072170
:1016B00001F0B2F92846032100F0F8FA284601218A
:1016C00001F0AAF905F108063046022100F0EEFA11
:1016D0003046012101F0A0F9A5F10C00022101F032
:1016E0009BF920460121BDE8704001F095B900004A
:1016F000074B19680868B0E8F04F80F30988BFF31A
:101700006F8F4FF0000080F31188704700BF00BF5B
:10171000E000002040F2780444F24026C2F20004C7
:101720000025C0F20F060BE02069B6FBF0F0E06088
:101730004FF47A7000F064FB2571012000F060FB2B
:1017400020790128F9D120690028EDD10020EEE7A9
:1017500040F2780540F20C07C2F200050026C2F202
:10176000000715E03C684FF47041204601F054F941
:101770004FF4FA7000F044FB20464FF4704100F043
:1017800095FA4FF4FA7000F03BFB012000F038FBB3
:10179000687801280ED1287820B12878012803D153
:1017A000022005E0012003E02878022801D1002072
:1017B00028706E7028780028D4D028780128E4D1C9
:1017C0003C684FF48051204601F026F94FF4FA703E
:1017D00000F016FB20464FF48051D0E7ADF5816D47
:1017E00035A040F27809344E4168D0E902AB078A4F
:1017F00090F81280C2F2000902AC09F120050191B3
:101800000AE000BF30464FF4804100F04FFA2A4E04
:101810004FF47A7000F0F4FA019803A981E8010C02
:1018200020460296ADF818708DF81A80FEF794FDE8
:1018300082B2284621464FF47A73FFF731FD99F8BA
:1018400000000228E4D199F8020001281AD140F2E0
:101850000C00C2F200000668002089F80200304641
:101860004FF4005100F01CFA30B130464FF40051F3
:1018700000F01CFA05E000BF30464FF4005101F0C3
:10188000CBF80D4E99F803000128C1D140F20C00AD
:10189000C2F200000668002089F8030030464FF4C9
:1018A000804100F0FDF90028ACD130464FF4804172
:1018B00001F0B2F8ABE700BF48656C6C6F20667250
:1018C0006F6D207461736B20350A000080B54EF295
:1018D0001000CEF20000006802F008F8012808BFEE
:1018E00080BDBDE8804001F0D3BC0000B0B592B02F
:1018F000002443F64000CDE90A44CDE908440594AC
:10190000CDE90344CDE901440094C4F2020001682A
:10191000022541F080510160006800F08050009085
:10192000009847F200000094C4F20000016841F4FE
:1019300080410160006800F4804000900098012020
:1019400006904FF4803007904FF480000D900820EF
:101950000E904020CDE90F050420119006A80C95AB
:10196000FFF73AF910B172B6FEE700BF0F20CDE9DC
:1019700001059020CDE9030401A800210594FFF79B
:101980000FF818B172B600BFFEE700BF12B0B0BDCD
:101990004EF68850CEF20000016841F470010160FB
:1019A0007047000070470000B0B541F21004C4F267
:1019B000000420460121012500F072F9002808BF2B
:1019C000B0BD2046012100F071F940F27800C2F26A
:1019D00000008570B0BD0000B0B541F21044C4F203
:1019E000000420460121012500F05AF9002808BF13
:1019F000B0BD2046012100F059F940F27800C2F252
:101A00000000C570B0BD0000B0B540F21044C4F293
:101A100001042046022100F043F9002808BFB0BDB0
:101A200004F1240000F0F2FF40F27805C2F2000554
:101A3000A968AA688842014638BF01F58031891A31
:101A40002961A8602046022100F030F901202871A8
:101A5000B0BD000040F2E810C2F20000FFF702BB88
:101A600010B540F6FF3E0368C4F2000E40F2004C91
:101A70007045C4F2010C27DCB0F1804F31D040F248
:101A80000042C4F2000290422BD040F60002C4F2A1
:101A90000002904225D041F6FF72C4F2000290424B
:101AA00029DC70453CDCB0F1804F5FD040F2004251
:101AB000C4F20002904259D040F60002C4F2000283
:101AC000904253D056E000BF40F60042C4F20002FC
:101AD000904206D0604504D00022C4F20102904238
:101AE000D9D14A6823F07003134341F6FF72C4F260
:101AF00000029042D5DD43F6FF72C4F2010290422B
:101B000022DC42F20002C4F2000290422ED00022F7
:101B1000C4F20102904229D0604527D02AE000BFDC
:101B200040F60042C4F2000290421FD041F600028B
:101B3000C4F20002904219D041F60042C4F2000201
:101B4000904213D016E000BF44F20002C4F201023A
:101B500090420BD044F60002C4F20102904205D03C
:101B600044F20042C4F20102904203D1CA6823F455
:101B70004073134323F080024B69D1F800E08C6876
:101B80001A430260C46240F48062C0F828E06245F3
:101B900004BF09690163012141610169C90708BFE7
:101BA00010BD016921F00101016110BD10B50446AD
:101BB0000068D4E902C22369016921F4405111434C
:101BC0000161626943EA0C01E3691143C268194388
:101BD00049F20C639A431143C1604169A26921F43F
:101BE000407141F20043114340F48062C4F20103AA
:101BF0009A42416102D1FEF7B7FF01E0FEF7A0FF74
:101C0000E16963681922B1F5004FA0FB020123D1FD
:101C10005A00DB0FFEF728FB48F21F51C5F2EB110B
:101C2000A0FB01235A094FF69C73C0F6FF7303F122
:101C3000805302FB0300322303EBC000A0FB010131
:101C40004FF4F87000EA111000EB0210C1F34211DA
:101C500008442168886010BD9A009B0FFEF704FBC2
:101C600048F21F51C5F2EB11A0FB01235A094FF6B0
:101C70009C73C0F6FF7302FB0300322303EB0010DA
:101C8000A0FB0101F02000EA511000EB0210C1F3AB
:101C9000431108442168886010BD0000FEE7000081
:101CA0000068084018BF012070470000002808BFE6
:101CB0007047026822EA01010160704786B0FEF7B2
:101CC00083FDFFF713FE002543F6300005950095D0
:101CD000C4F20200016840F6004441F08001016056
:101CE0000168C4F2020401F080010091009900959E
:101CF0000168002241F00801016001684FF470465C
:101D000001F00801009100990095016841F004017B
:101D1000016000684FF4704100F0040000900098EA
:101D20002046FEF737FD0120CDE9020501A9204636
:101D300001960495FEF75AFCA4F5E03140F27804D0
:101D4000C2F20004204640F8201F4FF4E1310C227B
:101D5000C0E90115C0E90355C0E90525C561FFF7D4
:101D600039FA18B172B600BFFEE700BFFFF792FB69
:101D7000FEF710FCFFF7E6FB062000210022FEF72D
:101D8000D3FD4EF20410CEF20000402140F8041CB6
:101D90004FF4800101604FF4000101604FF00061D9
:101DA00040F8041C4FF48041016000F039F841F222
:101DB000157043F6F442C0F60000C0F600020021A0
:101DC00000F060F8606141F2517043F61852C0F6BD
:101DD0000000C0F60002002100F054F8A06141F2BA
:101DE000DD7043F63C52C0F60000C0F60002002150
:101DF00000F048F8E06100F027F800BFFEE70000BF
:101E0000EFF3058100291CBF6FF005007047002823
:101E100004BF0020704780B500F0D0FF002080BDD7
:101E2000EFF3058000281CBF6FF00500704740F2FB
:101E3000E410C2F200000168002911BF4FF0FF302A
:101E4000012101600020704710B5EFF305800028E4
:101E50001CBF6FF0050010BD40F2E410C2F200009C
:101E6000016801291CBF4FF0FF3010BD4EF61F5115
:101E7000CEF2000100240C700221016001F068F82C
:101E8000204610BD2DE9F04184B08E460024039415
:101E9000EFF3058150B149B94FF0000452B1936995
:101EA000002B08BF1823382B16D90024204604B075
:101EB000BDE8F08180251823002103AF0093AAB26A
:101EC0007346019701F0A6FC0399012808BF0C4650
:101ED000204604B0BDE8F0811179C90724D15769C3
:101EE000D2E902864FEA970C1168002F654608BFB9
:101EF0008025B8F1000F13D05C2E15D31269002491
:101F0000002A18BF002FD1D0CDE9003262467346B7
:101F1000CDF8088001F0AEFC04B0BDE8F08100BF50
:101F200016B91269002AC8D00024204604B0BDE8C2
:101F3000F08100002DE9F041044600F0FDFD40F283
:101F4000E006C2F20006F06840F220350130F06091
:101F50003068C2F2000558B13069002840F00781AE
:101F60003068E16AC06A884298BF3460FFE000BF11
:101F70003460F068012840F0FA80284600F082FDC5
:101F800005F1140000F07EFD05F1280000F07AFD57
:101F900005F13C0000F076FD05F1500000F072FD07
:101FA00005F1640000F06EFD05F1780000F06AFDB7
:101FB00005F18C0000F066FD05F1A00000F062FD67
:101FC00005F1B40000F05EFD05F1C80000F05AFD17
:101FD00005F1DC0000F056FD05F1F00000F052FDC7
:101FE00005F5827000F04EFD05F58C7000F04AFD9D
:101FF00005F5967000F046FD05F5A07000F042FD75
:1020000005F5AA7000F03EFD05F5B47000F03AFD4C
:1020100005F5BE7000F036FD05F5C87000F032FD24
:1020200005F5D27000F02EFD05F5DC7000F02AFDFC
:1020300005F5E67000F026FD05F5F07000F022FDD4
:1020400005F5FA7000F01EFD05F5027000F01AFDAE
:1020500005F5077000F016FD05F50C7000F012FD97
:1020600005F5117000F00EFD05F5167000F00AFD83
:1020700005F51B7000F006FD05F5207000F002FD6F
:1020800005F5257000F0FEFC05F52A7000F0FAFC5D
:1020900005F52F7000F0F6FC05F5347000F0F2FC49
:1020A00005F5397000F0EEFC05F53E7000F0EAFC35
:1020B00005F5437000F0E6FC05F5487000F0E2FC21
:1020C00005F54D7000F0DEFC05F5527000F0DAFC0D
:1020D00005F5577000F0D6FC05F55C7000F0D2FCF9
:1020E00005F5617000F0CEFC05F5667000F0CAFCE5
:1020F00005F56B7000F0C6FC05F5707000F0C2FCD1
:1021000005F5757000F0BEFC05F57A7000F0BAFCBC
:1021100005F57F7000F0B6FC05F5826000F0B2FCBA
:1021200005F2244000F0AEFC05F5876000F0AAFC43
:1021300005F24C4000F0A6FC40F2BC18C2F20008C8
:10214000404600F09FFC08F11407384600F09AFC66
:1021500006F1640000F096FC06F13C0000F092FCF1
:1021600006F1500000F08EFCC6F81C8037627068E3
:10217000716A421CE06A72608842626488BF706261
:1021800000EB800005EB8000211D00F0BDFC00F09D
:10219000F7FC306988B13068E16AC06A884228BFBC
:1021A000BDE8F0814EF60450CEF200004FF08051B1
:1021B0000160BFF34F8FBFF36F8FBDE8F081000068
:1021C00040F2E00540F220364EF60458C2F2000517
:1021D000C2F20006CEF200084FF0805703E000BFC5
:1021E000204600F0E5FCA868D0B100F0A5FCA86C82
:1021F000C468201D00F018FCE8680138E860A86891
:102200000138A86000F0BCFC94F859000228EAD01C
:102210000128E5D070B9206B00F0CAFCE0E700BFF0
:1022200030680228DFD3C8F80070BFF34F8FBFF3C8
:102230006F8FD8E74FF0500080F31188BFF36F8F96
:10224000BFF34F8FFEE700002DE9F0470A9C82465E
:10225000206B16460F46DDE908599100A5229846E5
:10226000FEF7DEF8206B002F00EB8600A0F10400E3
:1022700020F0070656D0387884F8340038780028E3
:102280004BD0787884F835007878002845D0B87835
:1022900084F83600B87800283FD0F87884F8370002
:1022A000F878D0B3387984F838003879A8B37879D9
:1022B00084F83900787980B3B87984F83A00B8792D
:1022C00058B3F87984F83B00F87930B3387A84F859
:1022D0003C00387A08B3787A84F83D00787AE0B127
:1022E000B87A84F83E00B87AB8B1F87A84F83F003A
:1022F000F87A90B1387B84F84000387B68B1787BFD
:1023000084F84100787B40B1B87B84F84200B87B08
:1023100000281CBFF87B84F84300002084F84300A9
:1023200003E000BF002084F834000027201D372D73
:1023300028BF3725E562C4E9135700F0AFFB04F16D
:10234000180000F0ABFBC5F13800A06130465146E3
:10235000424624616462676584F8587000F042FB6D
:10236000B9F1000F206018BFC9F80040BDE8F08740
:1023700008480068006880F308884FF0000080F388
:10238000148862B661B6BFF34F8FBFF36F8F00DF63
:1023900000BF000008ED00E081B00020009040F296
:1023A0001000C2F2000000684FF0500181F3118864
:1023B000BFF36F8FBFF34F8F013007D0FEE700BF31
:1023C000009830B9009820B9009810B900980028FA
:1023D000F6D001B07047000088B040F2581AC2F23F
:1023E000000A0DF11009EB46DAF8080005681DB186
:1023F000C068046801E000BF002400F021FE01F085
:1024000085FADAF810100646884220D3002DCAF863
:10241000106051D0A6424FD301F080FBDAF80800DB
:10242000C068C7683D1D284600F0FEFA97F82800EE
:10243000410745D400F0FE0087F8280084E000BF83
:102440006860DAF8080039462D6100F02BFBDAF8F5
:102450000800016831B3C068C56804682F1D38469C
:1024600000F0E2FA296A2846884795F828004007D4
:10247000EDD5A8692044A042E2D8DAF8000000288F
:1024800000F04881002004A931C101F02FFADAF8E8
:10249000000049460022002300F082FF0028D6D128
:1024A00038E100BFDAF80C10CAF81060CAE902106F
:1024B00001F034FB1AE100BF65B1002210E000BF5B
:1024C000B8693F610119B14279601FD90AF108006A
:1024D00021E000BFDAF80C000068B0FA80F0420991
:1024E000DAF80000A11B00F03FFC01F017FB002808
:1024F00040F0FC804EF60450CEF200004FF08051C8
:102500000160BFF34F8FBFF36F8FEFE0311B81424C
:1025100006D20AF10C000068294600F0C3FA13E065
:10252000DAF80000002800F01381002004A991C10E
:1025300001F0DCF9DAF8000049460022002300F03F
:102540002FFF002800F00481396A38468847CDE023
:102550000098B0F1FF3F07DCDDE9012003999047C7
:102560000098002800F1C280029E706910B1301DF1
:1025700000F05AFA01F0CAF9DAF81010074688425A
:102580000DD30098CAF8107009283FD9AEE000BFFB
:102590006860DAF8080021462D6100F083FADAF865
:1025A0000800016841B3C068C568D0F800802C1DE0
:1025B000204600F039FA296A2846884795F828000D
:1025C0004007ECD5A86940444045E1D8DAF800005E
:1025D000002800F095800020CDE90408069501F060
:1025E00085F9DAF8000049460022002300F0D8FE01
:1025F0000028D4D184E000BFDAF80C10CAE9021038
:102600000098CAF81070092800F27080DFE800F026
:102610000606064448620606444800BF96F82800AD
:10262000019A40F00101B06986F8281083183146FC
:1026300041F8043FBB42366106D997420AF10800CF
:1026400007D293420AD204E0BA1A824206D20AF1B1
:102650000C00006800F026FA48E000BF316A3046FE
:10266000884796F82800400740D5DAF8000000288F
:102670005AD00198B169069608440021CDE90410AA
:1026800001F034F9DAF8000049460022002300F096
:1026900087FE58BB48E000BF96F8280022E000BF44
:1026A00096F8280040F00101019886F828100028CB
:1026B000B06143D0384431460AF10C0241F8040FAE
:1026C0003661B84288BF0AF10802106800F0EAF9E2
:1026D0000CE000BF96F82800810703D4304600F0D4
:1026E00067FA03E000F0FE0086F82800DAF8000040
:1026F0005946002200F06AFF00287FF429AF73E6F4
:102700004FF0500080F31188BFF36F8FBFF34F8FEE
:10271000FEE700BF4FF0500080F31188BFF36F8FCA
:10272000BFF34F8FFEE700BF4FF0500080F31188DA
:10273000BFF36F8FBFF34F8FFEE700BF4FF0500026
:1027400080F31188BFF36F8FBFF34F8FFEE700BF99
:102750004FF0500080F31188BFF36F8FBFF34F8F9E
:10276000FEE70000F0B581B0044600F0E5F994F909
:102770004560012E0FDB04F1240500BF286850B12D
:10278000284601F091F9002818BF00F061FBF0B273
:10279000013E0128F2D8FF2684F8456000F0F0F9E8
:1027A00000F0CAF994F94470012F0EDB04F1100512
:1027B000286850B1284601F077F9002818BF00F0CA
:1027C00047FBF8B2013F0128F2D884F8446001B019
:1027D000BDE8F04000F0D4B970B5044600F030FC1C
:1027E00040F2941CC2F2000CDCF8040050B19CF8DA
:1027F0000000002818BF4FF000404FF0000574BBE8
:102800008DE000BF40F28070C2F20000C21D22F0D5
:10281000070210F00701A0EB020318BF10460022C8
:102820004FF47055CCE90602002918BF03F5705526
:10283000411921F00701A1F10803CCF8043041E966
:102840000222191AC0E9003101208CF800004FF073
:102850000040CCE90211002C4FF000055FD0204071
:102860005DD124F0070000F11002600708BF04F1F9
:102870000802002A4FF0000551D0DCF8080082421F
:102880004DD8604650F818EFDEF8045095422CD22F
:10289000DEF80010C1B174464D68954218D20B683D
:1028A000B3B15D68954217D21868A8B145689542E2
:1028B00016D20468A4B16568954215D22168A6466F
:1028C0000029E9D111E000BF0CF118000DE000BFB4
:1028D0008E46204609E000BF9E46084605E000BF40
:1028E0008646184601E000BFA646DCF804108E4577
:1028F00014D00168DEF80040AB1A112B04604DD3F0
:102900000EEB0205680719D04FF0500080F31188D4
:10291000BFF36F8FBFF34F8FFEE700BF002501F0BD
:10292000FDF868075BD04FF0500080F31188BFF3CB
:102930006F8FBFF34F8F00BFFEE700BF0CF1180091
:102940006B60CEF8042000BF0368AB420AD218685F
:10295000A8420BD20368AB4204D218681A46A842B8
:10296000F2D304E00246184601E000BF1A4653685D
:102970006C68D618AE4202D11C44154654602B191F
:10298000834207D1DCF80430984203D0D0E9000339
:1029900023446B60AA42286018BF156001F1080546
:1029A000DEF80400DCE90212091A9142CCF80810A2
:1029B00038BFCCF80C109CF80010002918BF40F06C
:1029C0000040CEF80400DCF8100000210130CEF801
:1029D0000010CCF8100001F0A1F86807A3D1284638
:1029E00070BD0000034642F29930C0F600004FF07F
:1029F000807C21F0010103E903106FF0020043F82D
:102A0000240CA3F1440043F8202C7047002814BF85
:102A10000068002070470000002808BF7047026867
:102A20001143016070470000D0E9013201699A60EA
:102A3000D1F804C082688445536008BF4A60002210
:102A400002610868013808600868704744F28453DE
:102A5000C2F20003036044F28430C2F20000086056
:102A6000802010607047000044F6E013C2F20003BB
:102A7000036044F2E050C2F2000008604FF480703E
:102A8000106070474FF0FF31024642F8081F0021E6
:102A90004260C0E90322016070470000002101612B
:102AA0007047000010B5D1F800E01EF1010213D00C
:102AB00000F1080462681368734511D853681C68F4
:102AC000744511D85A68146874450FD8546823683F
:102AD000A4467345EED90BE00269D2F804C007E0C2
:102AE0009446224604E000BF9C4601E094461A4604
:102AF000C1F804C0CCF808108A6051600861016810
:102B00000131016010BD0000D0F800C043680861C9
:102B10009A684B608A609A68996051600CF1010173
:102B200001607047DFF80C00016841F4700101603A
:102B30007047000088ED00E04FF0500080F31188EE
:102B4000BFF36F8FBFF34F8F40F21000C2F200004F
:102B500001684A1C026009B1704700BF4EF604507C
:102B6000CEF200000068000608BF70474FF050002A
:102B700080F31188BFF36F8FBFF34F8FFEE7000024
:102B800040F21000C2F20000016839B10139016061
:102B900018BF7047002080F3118870474FF0500035
:102BA00080F31188BFF36F8FBFF34F8FFEE70000F4
:102BB00070B5002808BF70BD40F29415C2F2000540
:102BC0000446287854F8041C002818BF4FF0004031
:102BD00008420DD0A4F1080632689AB14FF05000B7
:102BE00080F31188BFF36F8FBFF34F8FFEE700BFF5
:102BF0004FF0500080F31188BFF36F8FBFF34F8FFA
:102C0000FEE700BF21EA000044F8040C00F018FAC7
:102C100054F8041CA8680844A86005F1180000BF17
:102C20000368B3420AD21868B04225D20368B3429F
:102C300004D218681A46B042F2D301E002461846A0
:102C40005368D418B44202D119441646516073181F
:102C5000834206D16B68984203D0D0E9000319443F
:102C60007160B242306018BF1660686901306861F7
:102C7000BDE8704000F052BF1A465368D418B44201
:102C8000E5D1E1E74EF21000CEF200000021016034
:102C9000816040F20801C2F20001096844F6D35293
:102CA000C1F26202A1FB02124FF0FF3101EB92115F
:102CB000416007210160704744F63C2CC2F2000CD1
:102CC000DCF8002022B3634653F8082F42B3634672
:102CD00053F8102F52B3634653F8182F62B363466C
:102CE00053F8202F72B3634653F8282F82B36346FC
:102CF00053F8302F92B3634653F8382F002A18BF89
:102D00007047072219600CEBC2014860704700BF92
:102D10000022634619600CEBC2014860704700BF97
:102D2000012219600CEBC201486070470222196051
:102D30000CEBC20148607047032219600CEBC20122
:102D400048607047042219600CEBC201486070476C
:102D5000052219600CEBC201486070470622196019
:102D60000CEBC2014860704770B515460E4604462C
:102D7000FFF7E2FE94F84400FF2804BF002084F827
:102D8000440094F84500FF2804BF002084F8450063
:102D9000FFF7F6FEA06B28B12046BDE87040FFF7B4
:102DA000E1BC00BF04F1240031462A4600F092F84D
:102DB0002046BDE87040FFF7D5BC000070B588B371
:102DC00040F2E005C2F200050446686950B14FF0D8
:102DD000500080F31188BFF36F8FBFF34F8F00BF98
:102DE000FEE700BF686901306861AE692868043099
:102DF000FFF71AFE2868A419446005D3286A2968D9
:102E00000431FFF74FFE08E0E86929680431FFF755
:102E100049FEE86A844238BFEC6200F07FFE002879
:102E200018BF70BD4EF60450CEF200004FF0805136
:102E30000160BFF34F8FBFF36F8F70BD40F2E001B1
:102E4000C2F200018A6B026089694160704700002C
:102E500040F2E000C2F2000001210163704700006F
:102E600070B5D8B140F2E004C2F200040D4621680A
:102E70001831FFF717FEA66920680430FFF7D4FD6C
:102E8000681C15D02068AD19456019D3206A2168E7
:102E90000431BDE87040FFF705BE00BF4FF05000A1
:102EA00080F31188BFF36F8FBFF34F8FFEE700BF32
:102EB00054F8500B011D2046BDE87040FFF724BEBA
:102EC000E06921680431FFF7EDFDE06A854238BF13
:102ED000E56270BDF0B581B0C0B140F2E004C2F26D
:102EE00000040D46216816461831FFF70DFEA7694C
:102EF00020680430FFF798FD96B154F8500B011D7F
:102F0000204601B0BDE8F040FFF7FEBD4FF0500095
:102F100080F31188BFF36F8FBFF34F8FFEE700BFC1
:102F20002068ED19456007D3206A2168043101B09B
:102F3000BDE8F040FFF7B6BDE06921680431FFF756
:102F4000B1FDE06A854238BFE56201B0F0BD000026
:102F500010B588B00020CDE9050006A805A904AA8F
:102F6000FFF774FD059800283ED0069C002C45D044
:102F70005C21049A079107995C2949D1079920633C
:102F8000022084F8590007A80021CDE9001042F280
:102F9000C110C0F6000028A100230294FFF754F9E5
:102FA0002046FEF7C7FF079840F2E004C2F2000493
:102FB000A062B0B100F02AFE411C33D0012810D12C
:102FC0004FF0500080F31188BFF36F8FBFF34F8F26
:102FD0004FF0FF30E062012020610020A06100F08E
:102FE00095F808B010BD00BF4FF0500080F3118875
:102FF000BFF36F8FBFF34F8FFEE700BF4FF050005E
:1030000080F31188BFF36F8FBFF34F8FFEE700BFD0
:103010004FF0500080F31188BFF36F8FBFF34F8FD5
:10302000FEE700BF4FF0500080F31188BFF36F8FB1
:10303000BFF34F8FFEE700BF49444C45000000003E
:1030400040F2E000C2F20000416901314161704785
:1030500080B540F2E00EC2F2000EDEF8141019B195
:103060000121CEF8301080BD0021CEF83010DEF8FE
:10307000241040F2203C01EB8103C2F2000C5CF80A
:1030800023208AB101EB81020CEB820353F8042F59
:103090005268181D82421A6020D0D068CEF8000015
:1030A000CEF8241080BD00BF0CEB8302A2F12803F0
:1030B000E1B15A6922BB012918D01A6812BB022952
:1030C00014D053F8142CFAB903290FD053F8282C34
:1030D0000439002AA3F15003EAD0D3E752681A60FA
:1030E000D068CEF80000CEF8241080BD4FF050001C
:1030F00080F31188BFF36F8FBFF34F8FFEE700BFE0
:103100000139BFE70239BDE70339BBE7B0B584B089
:103110004EF2004CCEF2000C4CF27021C4F20F11B2
:10312000DCF800294B1C9A420AD14FF0500080F382
:103130001188BFF36F8FBFF34F8F00BFFEE700BF53
:10314000DCF800298A4209D14FF0500080F3118841
:10315000BFF36F8FBFF34F8FFEE700BF9CF80010E7
:103160000291FF218CF800109CF800108DF80710D8
:103170009DF8071001F0500240F2B411C2F20001B4
:103180000A7007224A609DF90720B2F1FF3F69DC0F
:10319000032200BFD31C4B609DF8070040008DF850
:1031A00007009DF90700B0F1FF3F23DC931C4B6043
:1031B0009DF8070040008DF807009DF90700B0F169
:1031C000FF3F17DC531C4B609DF8070040008DF853
:1031D00007009DF90700B0F1FF3F0BDC4A609DF846
:1031E0000700043A40008DF807009DF90700002809
:1031F000D0D4131D032B35D14FF440704860029892
:103200008CF80000DCF8200940F47000CCF82009AC
:10321000DCF8200940F07040CCF82009FFF732FDBF
:1032200040F21004C2F2000400252560FFF77AFC8A
:103230004EF63470CEF20000016841F0404101606A
:10324000FFF796F8FFF704FF039520684FF0500151
:1032500081F31188BFF36F8FBFF34F8F013011D00F
:10326000FEE700BF4FF0500080F31188BFF36F8F6F
:10327000BFF34F8FFEE700BF039830B9039820B922
:10328000039810B903980028F6D0002004B0B0BD10
:1032900080B54FF0500080F31188BFF36F8FBFF3FC
:1032A0004F8F00F039FB30B14EF60450CEF20000E3
:1032B0004FF080510160002080F3118880BD000034
:1032C00070B582B070B11C46B3B1F9B9F2B14FF02C
:1032D000500080F31188BFF36F8FBFF34F8F00BF93
:1032E000FEE700BF4FF0500080F31188BFF36F8FEF
:1032F000BFF34F8FFEE700BF4FF0500080F31188FF
:10330000BFF36F8FBFF34F8FFEE700BF51B14AB9D4
:103310004FF0500080F31188BFF36F8FBFF34F8FD2
:10332000FEE700BF50230193019B502B2ED1019B40
:10333000069E012384F84630002908BF22462260F9
:10334000C4E90F01FFF7F8FB2068D4E90F1200254C
:1033500002FB0103013901FB0201A563C4E901037A
:10336000FF20E16084F8440084F8450004F1100077
:10337000FFF788FB04F12400FFF784FBFFF700FC54
:10338000204684F84C6002B070BD00BF4FF0500082
:1033900080F31188BFF36F8FBFF34F8FFEE70000FC
:1033A0002DE9F04F83B00292C0B11D4617460E467C
:1033B0000446E9B1022D03D1E06B012840F088807A
:1033C00000F094FA10BB0FB34FF0500080F3118857
:1033D000BFF36F8FBFF34F8FFEE700BF4FF050007A
:1033E00080F31188BFF36F8FBFF34F8FFEE700BFED
:1033F000206C0028DED04FF0500080F31188BFF31E
:103400006F8FBFF34F8F00BFFEE700BFFFF794FB46
:10341000A06B022D66D0E16B884263D304F11008E3
:1034200001206F460DF108090DE000BF2046FFF7AF
:1034300099F900F073FBFFF77FFBA06BE16B88420B
:103440004FF000004ED30299002973D0C00702D07C
:103450003846FFF7F3FCFFF793FBFFF7F1FDFFF7AB
:103460006BFB94F84400FF2804BF002084F844005C
:1034700094F84500FF2804BF002084F84500FFF7BA
:103480007FFB3846494600F073F9002858D1FFF712
:1034900053FBD4F838A0D4F83CB0FFF771FBDA4501
:1034A000C4D102994046FFF7DBFC2046FFF75AF9EA
:1034B00000F034FB0028BED14EF60450CEF20000DE
:1034C0004FF080510160BFF34F8FBFF36F8FB2E7B2
:1034D0004FF0500080F31188BFF36F8FBFF34F8F11
:1034E000FEE700BFA76B226CD2B19DB3E068314606
:1034F000FCF751FFE168206C2268091A9142E160F3
:1035000003D2A16840420844E060A81EB0FA80F0EF
:1035100040093946002F18BF012108403F1A26E014
:103520002068002520BBA06800F078FAA560054659
:103530001EE000BFFFF724FB002003B0BDE8F08FC2
:103540002046FFF70FF900F0E9FA002003B0BDE8CC
:10355000F08F00BF60683146FCF71DFF216CD4E995
:10356000010208449042606001D320686060002539
:10357000781CA06354F8240FA0B1204600F094FA00
:1035800050B14EF60450CEF200004FF08051016071
:10359000BFF34F8FBFF36F8FFFF7F2FA012003B035
:1035A000BDE8F08F002DF7D04EF60450CEF20000AB
:1035B0004FF080510160BFF34F8FBFF36F8FFFF764
:1035C000DFFA012003B0BDE8F08F00002DE9F04FD5
:1035D00083B0029290B116460D460446002947D0AA
:1035E00000F084F9A0B99EB14FF0500080F311882B
:1035F000BFF36F8FBFF34F8FFEE700BF4FF0500058
:1036000080F31188BFF36F8FBFF34F8FFEE700BFCA
:10361000FFF792FAD4F838A0BAF1000F36D0226C36
:1036200052B1D4E902308118E160994224BF216887
:10363000E1602846FCF7AFFEAAF10100A06354F850
:10364000100F70B1204600F02FFA50B14EF6045022
:10365000CEF200004FF080510160BFF34F8FBFF3F7
:103660006F8F0124FFF78CFA204603B0BDE8F08F7E
:10367000206C0028B4D04FF0500080F31188BFF3C5
:103680006F8FBFF34F8F00BFFEE700BF04F1240828
:1036900001206F464FF000090DF1080B2EE000BF2E
:1036A000FFF76EFAFFF7CCFCFFF746FA94F84400F8
:1036B000FF2808BF84F8449094F84500FF2808BF0D
:1036C00084F84590FFF75CFA3846594600F050F808
:1036D000E0B12046FFF746F800F020FAFFF72CFA99
:1036E000A66BFFF74DFA002E3CD0FFF725FAD4F871
:1036F00038A00020BAF1000F7FF491AF029949B3CE
:10370000C007CDD03846FFF799FBC9E7FFF714FA99
:10371000A66BFFF735FA2EB12046FFF723F800F02D
:10372000FDF9E2E702994046FFF79AFB2046FFF7D2
:1037300019F800F0F3F90028D7D14EF60450CEF274
:1037400000004FF080510160BFF34F8FBFF36F8FC8
:10375000CBE700BF0024FFF713FA204603B0BDE813
:10376000F08F00BF0024204603B0BDE8F08F0000BA
:10377000B0B5D8B10D4619B30446FFF7DDF940F2F4
:10378000E00CC2F2000CDCF8182029684B1C21D098
:10379000D4E9000EDCF83830834221D072451FD3C3
:1037A0000124FFF7EDF92046B0BD00BF4FF05000F7
:1037B00080F31188BFF36F8FBFF34F8FFEE700BF19
:1037C0004FF0500080F31188BFF36F8FBFF34F8F1E
:1037D000FEE700BF0024FFF7D3F92046B0BD00BFCD
:1037E000A2EB0E0291420DD9881A2860DCF838004D
:1037F0002060DCF8180060600024FFF7C1F9204663
:10380000B0BD00BF002001242860FFF7B9F92046B1
:10381000B0BD00002DE9F04383B007469000984604
:1038200015468946FEF7D8FFF8B106465C20FEF73C
:10383000D3FFB8B10446DDE90A100022266384F8FC
:103840005920CDE90010384649462A46434602949D
:10385000FEF7FAFC2046FEF76DFB012003B0BDE841
:10386000F08300BF3046FFF7A3F94FF0FF3003B0FD
:10387000BDE8F08370B586B00B9CCCB10C9E0EB346
:103880005C250495049D5C2D26D1049DDDF828C09F
:10389000022586F8595005AD3463CDE900C502967E
:1038A000FEF7D2FC3046FEF745FB059806B070BD2A
:1038B0004FF0500080F31188BFF36F8FBFF34F8F2D
:1038C000FEE700BF4FF0500080F31188BFF36F8F09
:1038D000BFF34F8FFEE700BF4FF0500080F3118819
:1038E000BFF36F8FBFF34F8FFEE7000040F2E000A1
:1038F000C2F20000016900290FBF01204069B0FA3F
:1039000080F0400918BF40007047000040F2E0001E
:10391000C2F20000806970472DE9F04381B040F2A7
:10392000E006C2F20006706940B1706B00240130FD
:103930007063204601B0BDE8F08300BFB06910F1AC
:103940000109C6F8189020D3F069006850B14FF013
:10395000500080F31188BFF36F8FBFF34F8F00BF0C
:10396000FEE700BFF069316AF1613062B06B01308F
:10397000B063F069006828B1F069C068C068406849
:1039800002E000BF4FF0FF30F062F06A40F22038F2
:103990008145C2F2000801D200242EE0F069002423
:1039A000006813E0F86A716A884288BF706200EBB1
:1039B000800008EB80002946FFF7A6F8F86A316816
:1039C000C96AF269884228BF0124106890B1F06981
:1039D000C068C7683D4655F8040F81450CD328469A
:1039E000FFF722F8B86A0028DCD007F11800FFF7CB
:1039F0001BF8D7E74FF0FF30F0623068C06A00EB89
:103A0000800058F82000012888BF0124306B00286E
:103A100018BF0124204601B0BDE8F08370B588B11D
:103A200040F2E006C2F2000604463068A0420BD025
:103A30004FF0500080F31188BFF36F8FBFF34F8FAB
:103A4000FEE700BF002070BD206D18B3411EE06A84
:103A5000E26C216590424FF0000008BF70BDC1B913
:103A6000251D2846FEF7E0FFE06CC0F13801E0625A
:103A7000A161716A884240F2203188BF706200EB18
:103A80008000C2F2000101EB80002946FFF73CF8FC
:103A9000012070BD4FF0500080F31188BFF36F8F8D
:103AA000BFF34F8FFEE7000070B5C068C5686DB109
:103AB00005F118042046FEF7B7FF40F2E006C2F217
:103AC0000006706960B106F164001AE04FF0500022
:103AD00080F31188BFF36F8FBFF34F8FFEE700BFF6
:103AE0002C1D2046FEF7A0FFE86A716A884240F26A
:103AF000203188BF706200EB8000C2F2000101EB50
:103B000080002146FFF700F8E86A3168C96A8842F8
:103B100092BF00200120306370BD00002DE9F0410C
:103B200040F2E005C2F20005686968B1FFF704F8E9
:103B3000686901386861686980B10024FFF720F87E
:103B40002046BDE8F08100BF4FF0500080F311889F
:103B5000BFF36F8FBFF34F8FFEE700BFE868002809
:103B6000EBD0686E88B340F22036C2F200064FF008
:103B7000010800BF286FC76807F11800FEF754FF5F
:103B80003C1D2046FEF750FFF86A696A884288BFEC
:103B9000686200EB800006EB80002146FEF7B4FF70
:103BA000F86A2968C96A884228BFC5F83080686EFB
:103BB0000028DFD1E869006820B1E869C068C06802
:103BC000406801E04FF0FF30E8626C6B4CB10126B9
:103BD000FFF7A2FE002818BF2E63013CF8D1002099
:103BE0006863286B0028A8D04EF60450CEF200007F
:103BF0004FF080510160BFF34F8F0124BFF36F8FEF
:103C0000FEF7BEFF2046BDE8F081000070B586B02B
:103C1000FEF792FF40F25816C2F20006306808BB69
:103C200006F114042046FEF72DFF06F1280528466C
:103C3000FEF728FF40F2302240F2D023C6E90245C9
:103C40000025C2F20002C2F200030A2010210095F2
:103C5000FFF736FB306028B143F67E51C0F6000115
:103C6000FFF72AF8FEF78CFF3068D8B10020CDE9C5
:103C7000040005A804A903AAFEF7F6FEDDE9032067
:103C80000221059DCDE9001042F2D930C0F60000B6
:103C900009A100230295FFF7EDFD706010B101202E
:103CA00006B070BD4FF0500080F31188BFF36F8FE6
:103CB000BFF34F8FFEE700BF546D72205376630051
:103CC000F1EE100A4FF6FF71C0F2C03120EA010098
:103CD00040F04070E1EE100A704700000000000064
:103CE00000000102030406070809000000000102A9
:103CF00003040000723D0008000000000000000006
:103D00000000000000000000000200001800000099
:103D10000000000000000000603D000800000000FE
:103D20000000000000000000000000000002000091
:103D3000180000000000000000000000693D0008BD
:103D40000000000000000000000000000000000073
:103D50000002000018000000000000000000000049
:103D60006D795461736B3032006D795461736B30CF
:103D7000330064656661756C745461736B00546DD7
:103D800072510000A83D000800000020180000004B
:103D9000C4010008C03D0008180000206850000061
:103DA000E001000800000000010000001000000019
:103DB0000024F400140C0240AAAAAAAA00000000E1
:040000050800018965
:00000001FF
