:020000040800F2
:10000000185100200103000837320008472D00086E
:10001000353200082B160008B93600080000000031
:100020000000000000000000000000004102000885
:100030002D160008000000009D020008393200085B
:100040001B0300081B0300081B0300081B03000818
:100050001B0300081B030008311600081B030008DF
:100060001B0300081B0300081B0300081B030008F8
:100070001B0300081B0300081B0300081B030008E8
:100080001B0300081B0300081B0300081B030008D8
:100090001B0300081B0300081B0300081B030008C8
:1000A0001B030008F53200081B0300081B030008AF
:1000B0001B0300081B0300081B0300081B030008A8
:1000C0001B0300081B0300081B0300081B03000898
:1000D0001B0300081B0300081B0300081B03000888
:1000E0001B0300081B0300081B0300081B03000878
:1000F0001B0300081B0300081B0300081B03000868
:100100001B0300081B0300081B0300081B03000857
:10011000D93300081B0300081B0300081B03000859
:100120001B0300081B0300081B0300081B03000837
:100130001B0300081B0300081B0300081B03000827
:100140001B0300081B0300081B0300081B03000817
:100150001B0300081B0300081B0300081B03000807
:100160001B0300081B0300081B0300081B030008F7
:100170001B0300081B0300081B030008000000000D
:100180001B0300081B03000800F002F800F049F808
:100190000AA090E8000C82448344AAF10107DA45E2
:1001A00001D100F03EF8AFF2090EBAE80F0013F0EB
:1001B000010F18BFFB1A43F00103184760640000E9
:1001C00080640000103A24BF78C878C1FAD852077A
:1001D00024BF30C830C144BF04680C6070470000C1
:1001E0000023002400250026103A28BF78C1FBD840
:1001F000520728BF30C148BF0B607047662906F020
:100200002881002070471FB506F019F900F010FD95
:1002100004000020002105F02FFCE0601FBD10B598
:1002200010BD00F005FE1146FFF7EDFF03F092FC54
:1002300000F023FE03B4FFF7F2FF03BC00F026FE3C
:100240002C4B19680868B0E8F04F80F30988BFF3B9
:100250006F8F4FF0000080F311887047000000009E
:1002600008480068006880F308884FF0000080F3B9
:10027000148862B661B6BFF34F8FBFF36F8F00DF94
:1002800000BF00BF08ED00E0DFF80C00016841F49A
:1002900070010160704700BF88ED00E0EFF3098056
:1002A000BFF36F8F134B1A681EF0100F08BF20EDBD
:1002B000108A20E9F04F106009B44FF0500080F32D
:1002C0001188BFF34F8FBFF36F8F04F039FE4FF0EB
:1002D000000080F3118809BC19680868B0E8F04F85
:1002E0001EF0100F08BFB0EC108A80F30988BFF32E
:1002F0006F8F704760000020EFF3058070470000AB
:100300000948804709480047FEE7FEE7FEE7FEE7A9
:10031000FEE7FEE7FEE7FEE7FEE7FEE704480549E5
:10032000054A064B70470000E532000889010008C5
:10033000184B002018510020184D0020184D0020A7
:1003400053EA020C00F069802DE9F04B4FF00006F3
:10035000002B1FBFB3FA83F503FA05F424FA05F660
:100360005E4012BF1643B2FA82F502FA05F4C5F1F7
:1003700020051EBF22FA05FC44EA0C04203556EA8B
:10038000044C4FEA144418BF641C4FF000084FF0AF
:100390000009904271EB030C39D3002919BFB1FA5F
:1003A00081F701FA07F6B0FA80F700FA07F6C7F10D
:1003B00020071EBF20FA07FC46EA0C062037B6FBD2
:1003C000F4FCA7EB0507103F07F01F0BCBF120064D
:1003D0000CFA0BFB2CFA06F644BFB3460026202F7E
:1003E000A4BF5E464FF0000B5BEA060C08BF4FF05F
:1003F000010B19EB0B09ABFB027C48EB0608C01B99
:1004000006FB02CC0BFB03CC71EB0C01C1E70B46E6
:10041000024641464846BDE8F08B13B54FF0000058
:100420004FF00001AFF30080BDE81C4070470000B2
:100430000FB41CB50C0007AA009001D02044401E48
:10044000074B7B4469460190069800F07CFB002C2A
:1004500003D06946002000F089FB1CBC5DF814FB4A
:10046000310700002DE9F0474FF0000A89460446A5
:10047000C0F820A02046E1688847002876D02528CB
:1004800006D0D4E901219047206A401C2062F1E7A0
:10049000E168204600258847C4F81CA006460027CE
:1004A000C4F818A02A2E09D0304603F035FB38B323
:1004B00004EB8708303EC8F8186019E059F8041BAF
:1004C000204604EB87029161E1688847012F0646C8
:1004D00018D1E069002820DA25F020051DE0D8F8C1
:1004E000180000EB800006EB40003038C8F8180018
:1004F0002046E1688847064603F00EFB0028EED14F
:10050000012F0AD02E2E08D12046E16888477F1C93
:100510000646022F45F02005C4DBA069002803DA57
:10052000404245F00105A061E80701D025F0100523
:10053000B6B1A6F14100192802D8203645F400656D
:100540004A463146204625604D46FFF757FE58B1D2
:10055000012806D0ED1D25F0070000F1080989E704
:1005600004E005F1040985E730468AE7206ABDE822
:10057000F08710B5431C02E010F8011B71B1810730
:10058000FAD14FF0013202C88C1A8C4314EAC2111E
:10059000F9D0C01A0A0603D0C01E10BDC01A10BD83
:1005A0000A0401D0801E10BD0902FCD0401E10BDFF
:1005B000032A40F2308010F0030C00F0158011F88F
:1005C000013BBCF1020F624498BF11F801CB00F867
:1005D000013B38BF11F8013BA2F1040298BF00F8BB
:1005E00001CB38BF00F8013B11F0030300F0CB82D0
:1005F000083AC0F0088051F8043B083A51F804CB9F
:10060000A0E80810F5E7121D5CBF51F8043B40F864
:10061000043BAFF30080D20724BF11F8013B11F86F
:1006200001CB48BF11F8012B24BF00F8013B00F8B3
:1006300001CB48BF00F8012B704702F0FF0343EAEB
:10064000032242EA024200F0D2BA4FF0000200B5A3
:10065000134694469646203922BFA0E80C50A0E8E5
:100660000C50B1F12001BFF4F7AF090728BFA0E893
:100670000C5048BF0CC05DF804EB890028BF40F85F
:10068000042B08BF704748BF20F8022B11F0804FA1
:1006900018BF00F8012B70474FF0013C50F8042BB5
:1006A00051F8043B9A4221D1A2EB0C03934313EA85
:1006B000CC1317D150F8042B51F8043B9A4215D1B2
:1006C000A2EB0C03934313EACC130BD150F8042B89
:1006D00051F8043B9A4209D1A2EB0C03934313EA6D
:1006E000CC13DBD04FF00000704700BFD01A01BA26
:1006F000B1FA81F101F0180122FA01F0CB40C1F109
:100700002001DBB2C0B2C01A2CFA01F3D11A914316
:1007100011EAC311E6D170477047704770477047C0
:100720002DE9FF4F0C461E464FF0FF378BB0D2E944
:100730000001DDF860800A908A46C1F30A5505B9C8
:100740003D46002108464FF00000BAF1000F00F4CA
:10075000400005DA00EB80004FF4400101EA500050
:100760004FEA9059B9F1010F00DDB9460A9850EAF5
:100770004A000ED044F61050A5F2FF3545432F1421
:10078000B8F1000F1ED07542291E1EDDC9F100020E
:100790001CE0B8F1010F4FF0000001D0302103E060
:1007A000F24305E02154401CB042FBDB30460022FE
:1007B000002121540B99C1F80880C1E900200FB035
:1007C000BDE8F08FBD1B6D1CDEE74A4600DA6942CA
:1007D00006A800F0B7FA06AB93E8070003AB83E87E
:1007E000070050460A9900F058FB8DE80700A0F575
:1007F00000501F3800900398002D0ADD42F21F01BF
:100800004A460844002303A90390684600F0C1FD4E
:1008100009E0A0F500504A461F38002303A90390C1
:10082000684600F0CBFD8DE807000004000C03D003
:100830004FF0FF30410800E01046B8F1000F03D040
:100840000022009215461EE0751E05D400F0F4F952
:10085000303262556D1EF9D5B3460122084302D0ED
:1008600000227F1C04E02078302801D100227F1E66
:10087000002A099784D01DE0112D07DA00F0DCF979
:10088000303262556D1C50EA0102F5D1084302D0A6
:100890000098C8B10EE00021681E05E0235C625C90
:1008A00063542254401E491C8142F7DBAB46A81B0F
:1008B000401E0990002004F80B000B98099AC0F81C
:1008C0000880C0E9002B7AE711264FF0000857E7AF
:1008D0002DE9F04F88460446D21D22F0070191B061
:1008E000D1E90001CDE90A0102F0E7FE02460B98CA
:1008F000C00F01D02D2007E02068810701D52B20F3
:1009000002E0202101EAC000032A099001D0072A51
:1009100005DB03464146204600F0D4F90BE1207880
:10092000800601D5E06900E00620B8F1650F814638
:1009300006D0B8F1660F18D0B8F1670F70D131E06A
:100940000020B9F1110F009001DB112301E009F142
:1009500001030AAA01A90CA8FFF7E2FEDDE90C7069
:10096000002609F10105834647E001204B4600902F
:100970004FF000470AAA01A90CA8FFF7D1FEDDE954
:100980000DB00C995D46002610B909F101000D1853
:10099000B9EB050003D4C0F1FF3609F10105A5EB61
:1009A00009002BE0B9F1010F01DA4FF00109002035
:1009B000B9F1110F0090484601DD112300E0034614
:1009C0000AAA01A90CA8FFF7ABFEDDE90C704D46A1
:1009D00000268346207800070AD4AB4500DA5D463E
:1009E00001A8012D04DD411911F8011C302907D09F
:1009F0004F4502DA17F1040F04DA012082460FE0B6
:100A00006D1EEEE7002F02DCED1B3E4403E0781C78
:100A1000A84200DD7D1CB81B00F1010A4FF0004721
:100A20002078000703D4AA4501DB4FF0FF3A0021EC
:100A3000B7F1004F0DF143088DF8431024D0022088
:100A40002B23002F01DA7F422D230A21021EA0F161
:100A5000010000DC5FB197FBF1FC97FBF1F201FBB9
:100A60001C7C17460CF1300C08F801CDEEE7A8F11C
:100A7000010003702188090501D5452100E06521A9
:100A8000A0F1010800F8011C09980FA9A1EB0807C3
:100A9000FF1D00B10120411901EBEA70A169384442
:100AA000081A401EA0612078C00602D42046AFF389
:100AB0000080099828B1D4E901219047206A401CA0
:100AC00020622078C00622D52046AFF300801EE0C9
:100AD000002E04DBB34502DD01A8805D00E030207C
:100AE000D4E901219047206A401C2062761CAAF1BB
:100AF00001005FEA000A0AD100F09AF8C0680168B4
:100B0000405CD4E901219047206A401C2062281EE5
:100B1000A5F10105DCDC07E0D4E9012118F8010B9F
:100B20009047206A401C2062381EA7F10107F3DCC1
:100B30002046AFF30080032011B041E601694A1C52
:100B400002610878704700B58FB0CDE9013100210E
:100B5000059105497944CDE9031011466846FFF730
:100B600081FC0FB000BD0000E5FFFFFF0A6802F83E
:100B7000010B0A607047D1E900239A4202D2531C4C
:100B80000B601070704710B5203AC0F00B80B1E8D0
:100B90001850203AA0E81850B1E81850A0E81850B2
:100BA000BFF4F5AF5FEA027C24BFB1E81850A0E8BB
:100BB000185044BF18C918C0BDE810405FEA827CD5
:100BC00024BF51F8043B40F8043B08BF7047D207EC
:100BD00028BF31F8023B48BF11F8012B28BF20F88D
:100BE000023B48BF00F8012B70474FF00002042978
:100BF000C0F0128010F0030C3FF429ADCCF1040CCE
:100C0000BCF1020F18BF00F8012BA8BF20F8022B7F
:100C1000A1EB0C01FFF71BBD5FEAC17C24BF00F80C
:100C2000012B00F8012B48BF00F8012B7047000092
:100C300000487047D84A002030B5B0F10A024FEAA8
:100C4000900E71F100034EEA817EB0EB0E0061EB75
:100C500091014FEA101E4EEA017E10EB0E0041EBAF
:100C600011114FEA102E4EEA016E10EB0E0041EB0F
:100C700011214FEA104E4EEA014E10EB0E0041EBEF
:100C80001141401841F100014FEAD00040EA4170A3
:100C90004FEAD10110EB80054FEA810444EA9074D9
:100CA00044EB01046D1944EB0404521BA3414FF0C3
:100CB000000348BF0A3200D530BD401C41F100019D
:100CC00030BD00002DE9F0411F46044603260168AF
:100CD000072A01F4006004DB08B116A505E016A59B
:100CE00003E008B115A500E015A521F01000206073
:100CF000A069C01EA0610FB1401EA0612046AFF3E5
:100D000000804FB1D4E9012138469047206A401C49
:100D10002062C01C206206E0206AFAE7D4E90121C3
:100D200015F8010B9047761EF8D22046AFF30080ED
:100D3000BDE8F0814E414E006E616E00494E4600A6
:100D4000696E66002DE9F047814616468AB035483F
:100D500078440DC88DE80D0032487844801C03ACFF
:100D60000DC884E80D0041F69B300844372190FB04
:100D7000F1F290FBF1F5A5F1800501FB12041B3C9B
:100D800002D56442012000E00020DFF898A08046F0
:100D90000027FA44AAF1BE0A0EE0E0070AD0324664
:100DA000684607EB470101230AEB810100F006FBCF
:100DB0008DE8070064107F1C002CEED1194F7F4492
:100DC000AE3F19E0E80715D007EB04100DF1180A43
:100DD00090E80E008AE80E00C068F04201D1981930
:100DE00008903246012306A903A800F0E7FA03ABF6
:100DF00083E807006D10641C002DE3D14FF0010360
:100E000032466946B8F1000F03A802D000F0C1FADB
:100E100001E000F0D3FAC9E90001C9F808200AB0DE
:100E2000BDE8F0879058000000487047B84A00209D
:100E30007546FFF7F9FFAE4605006946534620F0B8
:100E40000700854618B020B5FFF768FABDE82040D6
:100E50004FF000064FF000074FF000084FF0000B76
:100E600021F00701AC46ACE8C009ACE8C009ACE829
:100E7000C009ACE8C0098D46704710B50446AFF311
:100E800000802046BDE81040FFF7D4B90149182082
:100E9000ABBEFEE72600020070475FEA400C08BFC9
:100EA00091F0000F4FEA8C234FEAC12243EA5151DF
:100EB0004FEA1C5018BF00F5F0404FEA300018BF51
:100EC00041F000415FEA6C5C00F02980BCF1FF3F1B
:100ED00008BF40F080407047130C06BF12044FF06B
:100EE000100C4FF0000C130E04BF12020CF1080C92
:100EF000130F04BF12010CF1040C930F04BF9200F6
:100F00000CF1020CD30F04BF52000CF1010C11467E
:100F10004FF00002A0F11F00A0EB0C00704711F091
:100F2000004F08BF704731F000413FF4D5AF0B0CC4
:100F300006BF09044FF0100C4FF0000C0B0E04BF5D
:100F400009020CF1080C0B0F04BF09010CF1040C91
:100F50008B0F04BF89000CF1020CCB0F04BF4900BA
:100F60000CF1010CCCF12003A0EB0C0022FA03F3EE
:100F700002FA0CF241EA030100F10100704720F08F
:100F80007F4C80EA030023F07F47ACEB070303F5B7
:100F90007C5300F0004003F1FF032DE980494FEA44
:100FA000154B09B44FEA144325EA0B4E24EA0348D3
:100FB0000FF2042606EB132749083E785FEA320257
:100FC00003FB0667C7F5000707FB06F64FEA543731
:100FD0004FEAD64606F1020607FB066CCCF1005C30
:100FE0004FEA1C472CEA074C07FB06F40CFB06F5FE
:100FF00004EB15464FEA961634BF00204FF0004030
:101000004FEAD13706FB07FC4FEA1C4C0CFB0BF7F1
:10101000D21B03FB0CF761EB07010CFB0EF7B0EBE7
:10102000074072EB17420CFB08F734BFA2EB0742F4
:10103000B2EB074261EB17414FEA0C444FEA9107CC
:1010400006FB07FC4FEA1C4C0CFB0BF7B0EBC74050
:1010500072EB573203FB0CF734BFA2EBC742B2EB83
:10106000C74261EB57310CFB0EF7B0EBC70072EBD8
:1010700057720CFB08F734BFA2EBC702B2EBC702F2
:1010800061EB5771039F4FEA816141EA921104EBD2
:10109000CC044FEAD1374FEA826206FB07FC42EAF2
:1010A00090124FEA80604FEA1C4C0CFB0BF7D21BEE
:1010B00003FB0CF761EB07010CFB0EF7B0EB0740ED
:1010C00072EB17420CFB08F734BFA2EB0742B2EBFE
:1010D000074261EB17414FEA8C554FEA910704EB49
:1010E0009C2406FB07FC4FEA1C4C0CFB0BF7B0EBF7
:1010F000C74072EB573203FB0CF734BFA2EBC74279
:10110000B2EBC74261EB57310CFB0EF7B0EBC700F7
:1011100072EB57720CFB08F734BFA2EBC702B2EBBD
:10112000C70261EB577115EB4C254FEA816141EA2B
:1011300092114FEA82624FEAD13742EA901206FBDF
:1011400007FC44F100044FEA80604FEA1C4C0CFBA2
:101150000BF7D21B03FB0CF761EB07010CFB0EF73F
:10116000B0EB074072EB17420CFB08F734BFA2EB61
:101170000742B2EB074261EB174115EB1C154FEA32
:10118000813141EA92414FEA823242EA90424FEA8B
:1011900080304FEA0C7644F1000448EA03434EEAFB
:1011A0000B484FF0000EB2EB080C71EB030724BFA5
:1011B000624639464EEB0E0E4FF0000B00185241BE
:1011C00049414BEB0B0BB2EB080C71EB03077BF1C6
:1011D000000B24BF624639464EEB0E0E4FF0000B5B
:1011E0000018524149414BEB0B0BB2EB080C71EB71
:1011F00003077BF1000B24BF624639464EEB0E0E0F
:1012000051EA020718BF46F0010616EB0E7655F1BB
:10121000000254F1000103D5BDE88901BDE8008852
:10122000BDE88901BDE80048B619524141EB010112
:10123000A3F10103704780807F7E7D7C7B7A797883
:10124000777676757473727171706F6E6E6D6C6C8B
:101250006B6A6A696868676666656464636362612D
:101260006160605F5F5E5E5D5D5C5C5B5B5A5A59AE
:10127000595858575756565555555454535352521A
:101280005251515050504F4F4F4E4E4D4D4D4C4C72
:101290004C4B4B4B4A4A4A494949484848474747BB
:1012A00047464646454545444444444343434342F8
:1012B000424242414141002B9C4630D477002BD022
:1012C0001CB54FEA370703B44FF010004FF0100180
:1012D000BAF1000F06D0BCF1000FDCBF40F00800EF
:1012E00040F008014FF000000FBCBDE810400BF1CA
:1012F000010BBBF1010F08BF5FEA170722BF12F114
:10130000010211F101014FF0004143F1000300F02F
:10131000004043EA00007047F9D35708D0E746EA97
:10132000064613F1400F4FEA16461FDD13F1200F5A
:10133000DFBF16430A46002120335B42BED0C3F113
:10134000200746EA064602FA07F74FEA164646EA3B
:101350000706C3F1200722FA03F201FA07F721FA80
:1013600003F14FF0000342EA0702A7E746EA02064C
:1013700046EA06464FEA164646EA0106BCBF46EA7A
:101380000646360C4FF000034FF000024FF000010C
:1013900094E72DE9804C9A46934670B491E8380062
:1013A00007C831EA400C48BF34EA430C03D5FFF7C5
:1013B000E6FDFFF780FFF0BCBDE8008C2DE9804C16
:1013C0009A46934670B491E8380007C810F0804FF1
:1013D00008BF13F0804F03D100F005F8FFF76BFF53
:1013E000F0BCBDE8008C20F07F4780EA030023F0CA
:1013F0007F4C07EB0C03A3F57C5300F00040A3F1F6
:10140000FE0392F0000F00F0B38095F0000F00F0A3
:1014100077802DE901494FEA11404FEA144621EA4D
:10142000004800FB06FC24EA064708FB06F607FB1B
:1014300008F800FB07F718EB06484CEB164C4FEA90
:10144000124B18EB07484FEA15464CEB174022EABF
:101450000B4E0BFB06FC25EA06470EFB06F607FBC8
:101460000EFE0BFB07F71EEB064E4CEB164C4FF037
:1014700000061EEB074E4CEB174B18EB0B0840F128
:10148000000018EB0E0B58EB000840F100008F1A1B
:101490004FF000013CBFC943661B14BFB5EB040C01
:1014A00000213CBFC943F61B4FEA17444EEA8E0E9B
:1014B00027EA04454FEA1C4704FB07622CEA074C65
:1014C00005FB07F70CFB05F604FB0CFC16EB0746C7
:1014D00042EB174216EB0C4642EB1C421BEB060696
:1014E00058EB0202414146EA9E0601D5BDE801895A
:1014F000B619524141EB0101A3F10103BDE8018995
:101500004FEA14454FEA114724EA054621EA074C01
:1015100005FB07F406FB07F70CFB06F105FB0CFCCB
:1015200011EB074144EB17444FEA124711EB0C4112
:1015300044EB1C4422EA074C05FB07F206FB07F7C5
:101540000CFB06F605FB0CFC16EB074642EB1742BC
:1015500016EB0C4642EB1C456A1854F1000148BFDB
:101560007047B619524141EB0101A3F101037047E5
:1015700095F0000F37D04FEA11424FEA144721EAA5
:10158000024624EA074C02FB07F106FB07F70CFBB7
:1015900006F402FB0CFC14EB074441EB17414FEA45
:1015A000154714EB0C4441EB1C4125EA074C02FBA8
:1015B00007F506FB07F70CFB06F602FB0CFC16EB27
:1015C000074645EB174516EB0C4645EB1C42121936
:1015D00051F1000148BF7047B619524141EB01017A
:1015E000A3F1010370474FEA14454FEA114724EA7B
:1015F000054621EA074C05FB07F106FB07F70CFB44
:1016000006F24FF0000605FB0CFC12EB074241EB23
:10161000174112EB0C4251EB1C4148BF7047921826
:1016200041EB0101A3F101037047FEE770470000A1
:1016300010B50121024802F076FA02F07DFA10BDE1
:10164000143C01402DE9F0410446876D00F06EF92D
:10165000064694F835000025022806D080206065F3
:1016600084F834500120BDE8F0812068016821F041
:10167000160101602068416921F080014161206C00
:1016800008B9A06C20B12068016821F00801016050
:101690002068016821F0010101600CE000F046F9CA
:1016A000801B052807D920206065032084F83500B9
:1016B00084F83450D7E720680068C007EED194F86A
:1016C0005C103F208840B860012084F8350084F821
:1016D00034500020C7E790F83510022903D080214C
:1016E000416501207047052180F8351000680168C8
:1016F00021F00101016000207047000070B5044630
:1017000000F014F90546601C02D004480078044437
:1017100000F00CF9401BA042FAD370BD100000206D
:101720002DE9F84FDFF8BCA10022012503264FF078
:101730000F090AF1040BAAF1040E00BF0B6805FAA9
:1017400002F42340A34270D10F7907F00307012F61
:1017500001D0022F16D187684FEA420806FA08FC2A
:1017600027EA0C07D1F80CC00CFA08FC4CEA070C6D
:10177000C0F808C04768A7430C79C4F3001494402C
:101780003C4344600C79E443A4070AD0C4684FEAA0
:10179000420C06FA0CF7BC438F6807FA0CF7274394
:1017A000C7600C7904F00304022C12D1D40800EBBA
:1017B000840CDCF820405707FF0E09FA07F824EAEA
:1017C0000804D1F8108008FA07F848EA0408CCF8B1
:1017D000208004684FEA420C06FA0CF7BC430F79EC
:1017E00007F0030707FA0CF7274307604C6814F467
:1017F000403F70D03C4C276847F4804727602468FE
:1018000022F0030704F480440094384C07EB040CE6
:10181000DCF8084897074FEA177809FA08F7BC433D
:10182000334FB84202D1002724E054E0314FB84290
:1018300001D101271EE0304FB84201D1022719E043
:101840002E4FB84201D1032714E02D4FB84201D1E9
:1018500004270FE02B4FB84201D105270AE02A4F99
:10186000B84201D1062705E0284FB84201D1072729
:1018700000E0082707FA08F72743CCF80878DAF8D9
:1018800000405746D1F804C09C435FEACC2C00D5F9
:101890001C433C60DBF800405F46D1F804C09C4329
:1018A0005FEA8C2C00D51C433C60DEF80040774694
:1018B000D1F804C09C435FEA8C3C00D51C433C60DB
:1018C000084F083F3C68D1F804C09C435FEACC3C19
:1018D00000D51C433C60521C102AFFF42FAFBDE81A
:1018E000F88F0000083C01404438024000300140BD
:1018F000000002400004024000080240000C0240C8
:10190000001002400014024000180240001C024077
:10191000426921EA02030A4043EA024181617047B9
:101920000AB1816170470904FBE700000148806843
:10193000704700001000002070B5040025D094F816
:101940003D00002520B984F83C50204600F008FBFB
:10195000242084F83D002068016821F00101016025
:101960002068016841F4004101602068016821F4A9
:101970000041016000F0A6FC4D4A6168914201D827
:101980004C4900E04C49884201D2012070BD4B49CE
:101990002368B0FBF1F15E6826F03F060E435E60FF
:1019A0006368934206D94FF4967359434FF47A73A0
:1019B000B1FBF3F12368491C1E6A26F03F06314350
:1019C00019626168914210D84900401EB0FBF1F2E3
:1019D000521CC2F30B02042A01D2042022E0B0FB05
:1019E000F1F0401CC0F30B001CE0A268F2B301EB65
:1019F000C10303EB0116431EB3FBF6F35B1C43F478
:101A000080431B0549D092B301EBC10202EB0111E7
:101A1000401EB0FBF1F0401CC0F30B0040F48040CE
:101A200040F400402168CA694CF6FF739A431043A2
:101A3000C861D4E9071001432068026822F0C0029F
:101A400011430160D4E9030101432068826848F230
:101A5000FF339A4311438160D4E9050108432168AB
:101A6000CA6822F0FF021043C86001E00EE016E0F1
:101A70002068016841F0010101602564202084F89C
:101A80003D00256384F83E50002070BD01EB410607
:101A9000431EB3FBF6F35B1CB3E70120C2E701EB87
:101AA0004101401EB0FBF1F0401CC0F30B00B7E752
:101AB000A086010080841E0000093D0040420F0006
:101AC0002DE9FF4F81B089460446FFF72FFF0546F9
:101AD00094F83D004FF0000820287DD11923012201
:101AE00050492046009501F045FA002874D194F839
:101AF0003C00012870D0012084F83C002068016877
:101B0000C90703D1016841F0010101602068016843
:101B100021F400610160242084F83D000026266441
:101B20004148E0624FF0011B20272068016841F422
:101B3000807101600095002259462046049B01F007
:101B400019FA50B120680068C00502D54FF4007042
:101B50002064032005B0BDE8F08F216809F0FE0085
:101B60000861FFF7E3FE2168054648694969C0F34B
:101B70004000C1F380214FF0A00A0FE0FFF7D6FE2E
:101B8000411B0498814200D808B984F83DA021681F
:101B900048694969C0F34000C1F3802194F83D20B1
:101BA000A02A02D008B90029E8D084F83D70206846
:101BB0004169C943890716D4016841F40071016085
:101BC0002068416980691923012216492046009541
:101BD00001F0D0F9B8B900E021E084F83D7084F854
:101BE0003C600020B6E7016841F4007101602168A3
:101BF0006FF480604861192301220A49204600954C
:101C000001F0B8F908B10120A4E7039808F1010830
:101C100080458AD384F83D7084F83C60F3E7022065
:101C200098E70000020010000000FFFF2DE9FF4FC1
:101C300083B09A46DDE9118793460446DDF840906B
:101C4000FFF774FE054694F83D00202870D1192353
:101C5000012274492046009501F08CF90028F5D145
:101C600094F83C00012863D0012084F83C002068EF
:101C70000168C90703D1016841F0010101602068D2
:101C8000016821F400610160222084F83D004020B9
:101C900084F83E0000262664C4F82490A4F82A8024
:101CA000608D20856048E062CDE9007553465A4654
:101CB0002046049901F060F8002879D1208DD0B138
:101CC000012821D00228206824D041698069009031
:101CD000208D032866D801282BD0544902283B4682
:101CE0004FF00002009557D08846204601F042F997
:101CF00000285DD13AE0206841698169009101685E
:101D000041F4007101607DE02068016821F4806188
:101D10000160F0E7016821F48061016020680168DA
:101D200041F400610160206841698069009069E0C8
:101D300075E02A463946204601F0C2F988BB54E0D6
:101D40002068016841F40071016020680069616ADF
:101D50000870606A401C6062218D491E2185618D7A
:101D6000491E618521680969017042E020680168A7
:101D700021F48061016020680069616A0870606A0E
:101D8000401C6062208D401E2085608D401E608555
:101D90003B46002241460095204601F0EBF800B991
:101DA000CEE705E02A463946204601F089F918B108
:101DB000012007B0BDE8F08F20680069616A0870F3
:101DC000606A401C6062208D401E81B22185608D5A
:101DD000401E608520684269D243520712D403290D
:101DE00003D1016821F48061016020680069616AA3
:101DF0000870606A401C6062208D401E2085608DE6
:101E0000401E6085208D00287FF462AF202084F87A
:101E10003D0084F83E6084F83C600020C9E7022061
:101E2000C7E70000020010000000FFFF04000100EF
:101E30002DE9FF4F83B09A46DDE91197934604469A
:101E4000DDF84080FFF772FD054694F83D0020283C
:101E50007FD11923012240492046009501F08AF8DC
:101E6000002876D194F83C00012872D0012084F833
:101E70003C0020680168C90703D1016841F00101F5
:101E800001602068016821F400610160212084F86C
:101E90003D00402084F83E0000262664C4F82480DB
:101EA000A4F82A90608D20852C48E062CDE9007569
:101EB00053465A462046049900F0DCFF70B930E0E2
:101EC0002A463946204601F033F958B1206C0428DF
:101ED00004D12068016841F400710160012007B05D
:101EE000BDE8F08F606A216800780861606A401C74
:101EF0006062218D491E89B22185628D521E6285E4
:101F000022685369DB435B070BD469B10078106129
:101F1000606A401C6062208D401E2085608D401EDE
:101F20006085208D0028CBD12A463946204600F016
:101F3000F5FF0028CAD154F83D0B016841F4007147
:101F40000160202004F81E09E67766770020C6E7C6
:101F5000FFE70220C3E70000020010000000FFFFBF
:101F600010B586B0044614216846FEF76EFB13498F
:101F70002068884220D112480021026842F0020203
:101F80000260006800F002000590C020009012205E
:101F9000CDE901010320039004200490694609481B
:101FA000FFF7BEFB06481030016841F400110160E4
:101FB000006800F40010059006B010BD0054004009
:101FC000303802400004024002488168027811441F
:101FD00081607047100000200B4810B5016841F483
:101FE00000710160016841F480610160016841F4A1
:101FF00080710160032000F099F80F2000F006F8CE
:1020000000F04AF8002010BD003C024030B5054603
:102010001C4887B00024016841F00101016000689C
:1020200006A900F00100009001A800F02BF900F0D3
:1020300059F91549154AB0FBF1F11548491E0260DE
:1020400040F2E732C0E90324C0E90114846100F0E2
:1020500041FB040012D10E4800F06AFB04000DD1D0
:10206000192000F035F8102D07D20022294619203A
:1020700000F03CF80748056000E0012407B0204666
:1020800030BD00004438024040420F0000000140D3
:102090009C010020140000200C4882B0016841F42B
:1020A00080410160006800F4804000900748001FF4
:1020B000016841F0805101600068002200F080500A
:1020C00000900F21901E02B000F010B8443802407A
:1020D000002809DB00F01F02012191404009800027
:1020E00000F1E020C0F8001170470000F0B40E4B82
:1020F0001B680C46C3F30223C3F10705042D00D966
:102100000425191D072901D2002300E0DB1E01264A
:1021100006FA05F1491E214099409E40761E164060
:102120003143F0BC01F0E1BA0CED00E0064900F0EB
:10213000070208684FF6FF03184040EA0220034AEE
:1021400010430860704700000CED00E00000FA0545
:102150002DE9F0470E46050065D0DFF81481D8F868
:102160000000F7B200F00700B04207D288F8007014
:10217000D8F8000000F00700B04254D128683D4C68
:10218000810712D5400703D5206840F4E050206055
:102190002878000703D5206840F46040206020685C
:1021A000A96820F0F000084320602878C0072DD0EF
:1021B000304968680839012812D0022813D0032852
:1021C00011D00968890700292DDA216821F003015F
:1021D00001432160FFF7AAFB814641F2883A0EE0F5
:1021E00009688903EFE709688901ECE7FFF79EFBBF
:1021F000A0EB0901514502D90320BDE8F087206812
:10220000696800F00C00B0EB810FEFD1D8F8001036
:10221000404601F00701B14207D90770006800F09D
:102220000700B04201D00120E7E72878400705D534
:102230002068E96820F4E05008432060287800070F
:1022400006D52068296920F4604040EAC10020607A
:1022500000F058F82168084AC1F30311515CC840E6
:102260000649086006480068FFF7D0FE0020C4E772
:10227000003C024008380240B86400081C000020FE
:10228000140000200F2202600C4A136803F00303BD
:102290004360136803F0F0038360136803F4E053B2
:1022A000C36012684FF4E05303EAD20202610448AB
:1022B000006800F00700086070470000083802401E
:1022C000003C02400448054900680968044AC1F31B
:1022D0008221515CC84070471C0000200838024031
:1022E000C86400080448054900680968044AC1F345
:1022F0004231515CC84070471C0000200838024041
:10230000C8640008154810B5006810F00C021448A5
:1023100013D04110042A0FD0082A0ED10F4C241FCD
:102320002268236802F03F025B0207D52068C0F3F1
:102330008810A0FB010106E0084610BD2168C1F32A
:102340008811A1FB00010023FDF7FAFF2168C1F30A
:102350000141491C4900B0FBF1F010BD08380240B2
:102360000024F4002DE9F84F04006ED02078DFF847
:102370004C93C007A9F104054AD009F10400016893
:10238000C1F38101012908D00068C0F3810002284F
:102390000AD1D9F80000400206D52868800337D555
:1023A00060680028E1D033E06068B0F5803F10D06D
:1023B000B0F5A02F286810D020F48030286028685D
:1023C00020F4802028606068A8B1FFF7AFFA0646C5
:1023D0000DE0286840F48030F4E740F48020286065
:1023E000F7E700BFFFF7A2FA801B642873D82868BC
:1023F0008003F7D50CE0FFF799FA064605E000BF29
:10240000FFF794FA801B6428F0D828688003F7D47B
:102410002078DFF8AC8280074FF0000A3ED5A7484D
:10242000001D016811F00C0F08D00068C0F3810096
:1024300002280BD1D9F80000400207D42868800791
:1024400016D5E068012800D112E033E1E068B8B1A8
:102450000120C8F80000FFF769FA064605E000BF52
:10246000FFF764FA801B0228C0D828688007F7D5D8
:102470002868216920F0F80040EAC10028600DE0DA
:10248000C8F800A0FFF752FA064604E0FFF74EFA3C
:10249000801B02281FD828688007F7D420780007FF
:1024A00022D5864F87486169703771B1012101607B
:1024B000FFF73CFA064604E0FFF738FA801B0228D3
:1024C00009D838688007F7D50EE0C0F800A0FFF7FC
:1024D0002DFA064605E082E0FFF728FA801B022865
:1024E0007DD838688007F7D42078400768D5DFF8B2
:1024F000CCB100270BF13C0BDBF80000C0000BD483
:10250000DBF8001041F08051CBF80010DBF8000040
:10251000012700F0805000906B4E3068C00510D449
:10252000306840F480703060FFF700FA009005E0FA
:10253000FFF7FCF90099401A022850D83068C0050E
:10254000F6D55E4EA0686C3601280FD0052830689D
:1025500010D020F001003060306820F004003060BE
:10256000A068B8B1FFF7E2F900900FE0306840F0E2
:102570000100F4E740F004003060F7E7FFF7D6F918
:102580000099411A41F28830814266D8306880074C
:10259000F4D50EE0FFF7CAF9009007E0FFF7C6F99F
:1025A0000099411A41F28830814256D8306880073C
:1025B000F4D42FB1DBF8001021F08051CBF80010DB
:1025C000A069C8B33D49091D0968C1F38101022909
:1025D0004AD00228504607D0C8F8600000E03CE02E
:1025E000FFF7A4F904463BE04746C8F86000FFF750
:1025F0009DF9064605E000BFFFF798F9801B022809
:102600002BD828688001F7D4D4E907010843A16AD0
:102610002E4A490802EB0141626A41EA82110843ED
:1026200094F82C1040EA0161C9F8001001203866C6
:10263000FFF77CF9044606E03EE000BFFFF776F9BD
:10264000001B022809D828688001F7D534E000BFB4
:10265000FFF76CF9001B022802D90320BDE8F88FB0
:1026600028688001F4D427E00128F7D0D9F80000C9
:10267000E26900F4800191421CD1226A00F03F011E
:10268000914217D147F6C071626A0140B1EB821FD7
:1026900010D1A26A4FF0FF3300F4403103EB520235
:1026A000B1EB024F06D194F82C1000F07060B0EB43
:1026B000016F01D00120D1E70020CFE704380240AC
:1026C00000004742800E4742007000400000FFFFBC
:1026D0007047704710B5040003D094F83D0010B166
:1026E00007E0012010BD002084F83C00204600F0E7
:1026F0001EF8022084F83D00211D206800F000FE35
:10270000012084F8460084F83E0084F83F0084F8F5
:10271000400084F8410084F8420084F8430084F8C3
:10272000440084F8450084F83D00002010BD704747
:1027300090F83D10012901D001207047022180F856
:102740003D100168CA6842F00102CA600068114980
:10275000884214D0B0F1804F11D00F4988420ED07A
:102760000E4988420BD00E49884208D00D49884254
:1027700005D00D49884202D00C49884204D18168B5
:1027800001F00701062903D0016841F00101016051
:102790000020704700000140000400400008004095
:1027A000000C0040000401400040014000180040BF
:1027B00070472DE9F04104460068C66805694FF08E
:1027C0000007A90713D5B10711D5F91E0161012032
:1027D0002077206880698007204602D0FFF7E8FF55
:1027E00004E000F07EF8204600F07CF827776807C8
:1027F00016D5700714D521686FF004000861022017
:1028000020772068806910F4407F204602D0FFF7CF
:10281000CFFF04E000F065F8204600F063F827776A
:10282000280715D5300713D521686FF00800086117
:10283000042020772068C0698007204602D0FFF777
:10284000B7FF04E000F04DF8204600F04BF8277782
:10285000E80616D5F00614D521686FF0100008615F
:10286000082020772068C06910F4407F204602D0FD
:10287000FFF79EFF04E000F034F8204600F032F845
:102880002777E80708D0F00706D021686FF001002D
:102890000861204600F028F8280608D5300606D53D
:1028A00021686FF0800008612046FFF711FF68067D
:1028B00008D5700606D521686FF0400008612046F3
:1028C00000F01CF8A8060AD5B00608D521686FF0FC
:1028D000200008612046BDE8F041FFF7FABEBDE8E0
:1028E000F08170477047000000680349884201D1B9
:1028F000FFF76ABB70470000000001407047704757
:1029000070470000F8B5016804460868CA684B695A
:1029100010F00F0F4FF0000559D003F0010602F43C
:102920009077374365D0C10705D0D10503D5616CD9
:1029300041F001016164410705D5D90703D0616CFD
:1029400041F002016164810705D5D90703D0616CAC
:1029500041F004016164010707D502F02001314311
:1029600003D0616C41F008016164616C00293AD0C8
:10297000800604D5900602D5204600F062FD20684E
:102980004069616CC0F38010090700D460B3204631
:1029900000F030FD20684069400621D520681430E1
:1029A00050E8001F21F0400140E80012002AF5D154
:1029B000E06BA8B16E490165E06BFEF78CFE002864
:1029C00011D0E06B016D01B0BDE8F040084783060F
:1029D0000FD593060DD52046BDE8F84000F031BD77
:1029E0002046FFF78DFFF8BD2046FFF789FF65649D
:1029F000F8BD266B2023012E7DD1C6067BD5D606D9
:102A000079D508684868009048694FF0020640068A
:102A100041D5E16B086840680004000CE8D0A28D45
:102A20008242E5D9E085C869B0F5807F2DD0206865
:102A30000C3050E8001F21F4807140E80012002A99
:102A4000F5D12068143050E8001F21F0010140E862
:102A50000012002AF5D12068143050E8001F21F040
:102A6000400140E80012002AF5D184F84230256385
:102A700020680C3050E8001F21F0100140E80012DF
:102A8000002AF5D1E06BFEF7DDFD6663A08DE18DD8
:102A9000401A81B22AE0A08DE18D401A81B2E08D0A
:102AA0000028A5D00029A3D022680C3252E8000FDC
:102AB00020F4907042E80007002FF5D12068143010
:102AC00050E8002F22F0010240E80027002FF5D146
:102AD00084F84230256320680C3050E8002F22F043
:102AE000100240E80023002BF5D166632046FFF773
:102AF00006FFF8BDFFE705062BD5150629D594F886
:102B000041002128F5D1A068B0F5805F01D120698E
:102B1000B0B1206A411C2162216800784860E08CD5
:102B2000401E0004000CE084E3D12068C16821F05D
:102B30008001C1602068C16841F04001C160D8E7F0
:102B4000206A0088C0F308004860206A801C206268
:102B5000E5E74006CDD55006CBD5CA68204622F021
:102B60004002CA6084F8413000F0ECF8C1E7000090
:102B7000E533000870B5040004D094F84100002546
:102B800010B106E0012070BD84F84050204600F0EE
:102B900023F8242084F841002068C16821F4005102
:102BA000C160204600F0AEFC2068016921F490412C
:102BB00001612068416921F02A0141612068C168F2
:102BC00041F40051C1606564202084F8410084F81C
:102BD00042006563002070BD10B586B00446142124
:102BE0006846FDF732FD17492068884227D116480C
:102BF0000021026842F400220260006800F4002014
:102C0000059011481038026842F001020260006825
:102C1000022200F0010005900320CDE90210CDE969
:102C200000020820049069460848FEF779FD00225A
:102C300005213420FFF75AFA3420FFF749FA06B08D
:102C400010BD0000004C004040380240000002402F
:102C500090F84230202B01D00220704721B11AB1E8
:102C60000023036300F0D4BC012070470B490068C7
:102C70000968884211D10A490A780A2A06D0074B06
:102C8000487848331A54401C487001E0012088708D
:102C9000012203490148FFF7DBBF704734010020E0
:102CA000000000202DE9F843044690F841009846C2
:102CB00016460D46202802D00220BDE8F88385B1D3
:102CC0007EB100206064212084F84100FEF72EFED2
:102CD000A6848146E684A0682027B0F5805F02D0F4
:102CE00003E00120E9E7206910B12E4600250EE03F
:102CF00000260CE08021204600F0A5FCA8B9C6B152
:102D000016F8010B21684860E08C401EE084E08CDE
:102D10004B464FF00002CDF800800028EAD14FF07A
:102D20004001204600F08FFC40B184F84170032040
:102D3000C3E735F8020BC0F30800E3E784F84170FD
:102D40000020BAE77047FEE701684A69D24352059E
:102D50000FD46FF480624A61002140F8301F2022B6
:102D600042738173026942F004020261017301201F
:102D700070470020704700002DE9F84F04460068B6
:102D800089460B9D01689846174641F480610160B1
:102D90002068016841F48071016000954FF0011BCB
:102DA0000022594620460A9B00F0E4F84FF4007ACE
:102DB00040B120680068C00501D5C4F840A00320D8
:102DC000BDE8F88F216809F0FE0008612B4628490C
:102DD00020460A9A00F016F9F0BB20684169806924
:102DE00000902A4620460A9900F0A2F940B1206CD2
:102DF00004283AD12068016841F40071016034E090
:102E0000FEB2B8F1010F09D02168380A08612A46DC
:102E100020460A9900F08CF90028E8D12068066164
:102E20002A4620460A9900F083F90028DFD120685D
:102E3000016841F4807101600095002259462046E6
:102E40000A9B00F097F80028B3D1216809F0FF0031
:102E500040F00100086100E007E02B4604492046ED
:102E60000A9A00F0CFF80028AAD00120A8E70000B5
:102E7000020001002DE9F843044600680D46DDE933
:102E8000089701689846164641F4807101604B46E8
:102E900000224FF001112046009700F06BF848B176
:102EA00020680068C00502D54FF40070206403203C
:102EB000BDE8F883216805F0FE0008613B464A46FC
:102EC0001549204600F09EF888B92068416980695C
:102ED00000903A464946204600F02AF948B1206C55
:102EE000042804D12068016841F4007101600120C8
:102EF000DEE7F5B2B8F1010F09D02168300A0861A8
:102F00003A464946204600F013F90028E7D12068E8
:102F100005610020CCE700000200010070B51646F4
:102F20000D4604461EE02046FFF70EFF08B10120C3
:102F300070BD681C16D0FEF7F9FC801BA84200D8B3
:102F400085B920684069C04340070BD5002044F88C
:102F5000300F20216173A073216941F020012161AC
:102F60002073E4E720684069C0434007DBD40020B9
:102F700070BD00002DE9F047984617460D460446FF
:102F8000C1F30746DDF820902AE000BFB8F1FF3F0B
:102F900026D0FEF7CBFCA0EB0901414502D8B8F1E1
:102FA000000F1DD12068012E16D0806925EA00008F
:102FB0000004000C12D00020B84211D1002044F8C7
:102FC000300F20216173A073216941F0200121613C
:102FD00020730120BDE8F0874069E7E70120EBE7B7
:102FE0002068012E0AD0806925EA00000004000C48
:102FF00006D00020B842C9D00020EBE74069F3E7D3
:103000000120F7E72DE9F047984616460D4604469D
:103010004FF000094FF0200AC1F3074723E0206872
:103020004069C043400515D42068016841F400712F
:10303000016021686FF480604861C4F8309084F8C2
:103040003DA084F83E90216C41F00401216484F895
:103050003C9021E0701C06D0FEF768FCA0EB080055
:10306000B04203D816B1012F1FD021E02068012FF4
:1030700015D0806925EA00000004000C18D000BFBC
:1030800044F8309F84F80DA084F80E90216941F037
:103090002001216184F80C900120BDE8F08740698F
:1030A00025EA00000004000CEAD12068406901E034
:1030B0002068806925EA00000004000CAFD1ECE72D
:1030C0002DE9F041002590460E460446202728E0D1
:1030D0004069C043C0060CD454F8301B6FF0100098
:1030E000486144F810596777A577206A20622577F0
:1030F00014E0FEF71BFCA0EB0800B04200D886B934
:1031000020684069C04340060BD544F8305F6773C0
:10311000A573206940F02000206125730120BDE8DF
:10312000F08120684169C9434906D1D40020F6E7FF
:1031300070B516460D4604461EE02046FFF704FE15
:1031400008B1012070BD681C16D0FEF7EFFB801B94
:10315000A84200D885B920684069C04300060BD555
:10316000002044F8300F20216173A073216941F0E1
:10317000200121612073E4E720684069C043000614
:10318000DBD4002070BD000070B586B01421684605
:10319000FDF75BFA24480024016841F00401016056
:1031A000016801F004010591016841F080010160AE
:1031B000016801F080010591016841F001010160A1
:1031C000016801F001010591016841F0020101600F
:1031D000016801F002010591016841F008010160F8
:1031E0000068124E00F008004FF440550590002290
:1031F00029463046FEF794FB301500900220CDE9B9
:1032000001040520CDE9034069460948FEF788FA24
:1032100001200095CDE90104694630460394FEF78C
:103220007FFA06B070BD000030380240000C02404A
:1032300000040240FEE7FEE710B54FF0E020006911
:1032400002F064FA012803D0BDE8104001F024BF69
:1032500010BD000030B593B030216846FDF7F5F998
:1032600014210CA8FDF7F1F91C480025016841F074
:1032700080510160006800F080501190184801688A
:1032800041F4804101600068022400F48040119004
:1032900001200090000401908001CDE90640042047
:1032A00008903220CDE9090407200B906846FFF70B
:1032B00059F808B172B6FEE70F20CDE90C04802062
:1032C0000E904001CDE90F0500210CA8FEF740FF4C
:1032D000002801D072B6FEE713B030BD403802407E
:1032E000007000400248016841F4700101607047BD
:1032F00088ED00E00148FFF75CBA00009C01002067
:10330000F0B50268294C2A4D2A4E2B4F2B4B4FF01B
:10331000804CA04209D0604507D0A84205D0B042F9
:1033200003D0B84201D0984204D122F0700E4A680E
:1033300042EA0E02A0421BD0604519D0A84217D025
:10334000B04215D0B84213D0984211D01C4DA842BB
:103350000ED01C4DA8420BD01B4DA84208D01B4DCF
:10336000A84205D01A4DA84202D01A4DA84203D156
:1033700022F44075CA682A434D6922F080022A432C
:1033800002608A68C2620A688262A04201D09842E2
:1033900001D109690163012141610169C90703D0B4
:1033A000016921F001010161F0BD00000000014050
:1033B0000004004000080040000C004000040140F0
:1033C0000040014000440140004801400018004016
:1033D000001C0040002000400148FFF793BA0000A5
:1033E0003401002010B5806B0021C185C184FFF736
:1033F00087FA10BD01680C3151E8002F22F4907259
:1034000041E80023002BF5D10168143151E8002F69
:1034100022F0010241E80023002BF5D1016B0129C4
:1034200009D101680C3151E8002F22F0100241E867
:103430000023002BF5D1202180F8421000210163E8
:10344000704708B590F84210222901D0022008BD2B
:1034500082684FF480539A4201D1016921B1816A97
:103460009A421BD04AB10AE00268816A5268C2F3EC
:1034700008020A80816A891C08E0026972B1026848
:10348000526802F07F020A70816A491C8162C18D14
:10349000491E0904090CC18503D01BE0026852686B
:1034A000F1E70168CA6822F02002CA600168CA68B0
:1034B00022F48072CA6001684A6922F001024A61FE
:1034C000202180F8421000214163026B012A03D0C1
:1034D000FFF7CCFB002008BD016301680C3151E807
:1034E000002F22F0100241E80023002BF5D10168E3
:1034F0000A68D20602D50A6849680091818DFFF7F3
:10350000FEF9E7E770B5044600680169E26821F456
:103510004051114301612169A068E2690843616972
:10352000114308432168CA6849F20C639A43024375
:10353000CA6020684169A26921F440711143416168
:1035400031492068884202D03049884202D1FEF7D2
:10355000C9FE01E0FEF7B6FEE269002319216425E9
:103560003226B2F5004F626828D0A0FB0101930F0C
:103570009200FCF7E5FE0146B0FBF5F06FF0180293
:10358000504301EB800006EB0010B0FBF5F000F0BB
:10359000F002B1FBF5F002EB0012B1FBF5F06FF0B9
:1035A0001803584301EB800006EB0010B0FBF5F068
:1035B00000F00F0021681044886070BDA0FB01017D
:1035C00092185B41FCF7BCFE0146B0FBF5F002012E
:1035D000B1FBF5F06FF01803584301EB800006EBE8
:1035E000C000B0FBF5F000F0F80002EB4002B1FBC8
:1035F000F5F0584301EB800006EBC000B0FBF5F09E
:1036000000F00700D6E70000001001400014014060
:1036100081628285C28500214164222180F84210A6
:10362000016921B10168CA6842F48072CA60016808
:103630004A6942F001024A610068C16841F0200114
:10364000C160002070472DE9F843984617460D46A3
:103650000446089E24E0701C22D0FEF767F9A0EB18
:103660000800B0421AD8CEB12068C168490717D502
:10367000802D15D0402D13D00168C94309070FD400
:1036800001680025406800902046FFF7B3FE08203F
:10369000606484F840500120BDE8F8830320FBE714
:1036A0002068006835EA000004D00020B842D2D07B
:1036B0000020F1E70120F9E7FEE703B4019841009B
:1036C000009850EAC12018BF04204A0D18BF40F0EE
:1036D000010040F2FF72B2EB515F08BF40F0020000
:1036E000012808BF052002B070470907090E00280D
:1036F00004DB00F1E02080F80014704700F00F00B8
:1037000000F1E02080F8141D704700000000000068
:1037100070B59B482DED020B2DED068B079D25F016
:103720000044A04218DC9748844202DC0AD1069883
:1037300040B19DED060BBDEC068B02B0BDE87040BC
:1037400000F0CEB9002DCCBF9FED8F0B9FED900BFD
:10375000BDEC068B02B070BD8F48A04215DD8F48CE
:10376000A042D8BF4FF0FF3458DD9DED060B51EC61
:10377000100BFFF7A2FF042808BF00F0BDF99DED74
:10378000060BBDEC068B02B070BD9DED060B51EC37
:10379000100B00F0D2F9CDE9060181489FED828B34
:1037A000A0423CDD8248A0421FDD00249FED82AB99
:1037B0009DED060B53EC1A2B51EC100B02F0B0F9F7
:1037C0009DED060B41EC190B53EC1A2B51EC100B31
:1037D00002F0D0FB53EC182B02F0D6FC53EC192B63
:1037E00002F046FACDE9060149E09DED060B012401
:1037F00053EC182B51EC100B02F092F99DED060BD7
:1038000041EC190B53EC182B51EC100B02F0BCFCE3
:1038100053EC192B02F02CFACDE906012FE0684891
:10382000A0421FDD02249FED689B9DED060B53EC2B
:10383000192B51EC100B02F09DFB53EC182B02F0EE
:103840006FF99DED060B41EC180B53EC192B51EC65
:10385000100B02F099FC53EC182B02F009FACDE999
:1038600006010CE09DED060B032453EC102B9FED9D
:10387000580B51EC100B02F0FBF9CDE906019DED60
:10388000060B53EC102B51EC100B02F073FB41ECC8
:10389000180B53EC182B02F06DFB41EC190B4E4842
:1038A0000621B0EE490AF0EE690A784400F09CF86F
:1038B00053EC182B51EC100B02F05CFB41EC180B95
:1038C0004648B0EE490AF0EE690A0521784400F056
:1038D0008BF853EC192B51EC100B02F04BFB41EC25
:1038E000100B51EC180B53EC102B002C0EDA02F0DD
:1038F00017F99DED061B53EC112B02F03BFB9DEDE0
:10390000061B53EC112B02F033FC35E002F008F9F2
:103910009DED061B53EC112B02F02CFB41EC100B20
:103920002F48784400EBC40090ED001B51EC100BC5
:1039300053EC112B02F028FC9DED061B53EC112BD0
:1039400002F022FC41EC100B2648784400EBC40046
:1039500090ED001B51EC100B53EC112B02F008FC06
:1039600041EC100B002DA2BFBDEC068B02B070BD68
:1039700051EC100B02F096F841EC100B01E700003F
:10398000000010440000F07F182D4454FB21F93F43
:10399000182D4454FB21F9BF0000DC3F0000203EFD
:1039A0000000F33F00000000000000000000F03FB6
:1039B0000000E63F000000000000000000000040A2
:1039C0000080034000000000000000000000F83FFD
:1039D000000000000000F0BF8A2C0000402C000016
:1039E000CA2B0000822B000070B504462DED028B1F
:1039F0004D1E00EBC500B0EE408AF0EE608A90EDFF
:103A0000000B35F0060017D053EC182B51EC100BBF
:103A100002F0B0FA41EC100B6D1E04EBC50090ED06
:103A2000001B51EC100B53EC112B02F079F841EC18
:103A3000100B35F00600E7D1022D36D0042D1CD036
:103A4000062D1CBFBDEC028B70BD53EC182B51EC46
:103A5000100B02F08FFA94ED0A1B53EC112B02F0BD
:103A60005FF853EC182B02F085FA94ED081B53EC29
:103A7000112B02F055F841EC100B53EC182B51ECC4
:103A8000100B02F077FA94ED061B53EC112B02F0A9
:103A900047F853EC182B02F06DFA94ED040B53EC3D
:103AA000102B02F03DF841EC100B53EC182B51ECAD
:103AB000100B02F05FFA94ED021B53EC112B02F095
:103AC0002FF853EC182B02F055FA94ED001B53EC31
:103AD000112B02F025F8BDEC028B41EC100B70BDF0
:103AE00010B553EC102B51EC100B02F019F841EC0F
:103AF000100B10BD000000009FED050B10B553EC3E
:103B0000102B51EC100B02F035FA41EC100B10BDEC
:103B1000000000000000001030380A2801D2012007
:103B200070470020704708B5020004D000F086FFFF
:103B300008430090106008BD704782B0CDE90001D5
:103B400021F0004001909DED000B02B051EC100BF4
:103B500070470000FEF740FAFFF77CFBFFF714FB0D
:103B600021482049002401604FF4E131C0E90114EB
:103B70000C21C460C0E904418461C461FEF7FAFF0E
:103B800008B172B6FEE71848184954380160184960
:103B9000C0E901144FF48041C0E9034144618461EC
:103BA000C4610462FDF7C8FE08B172B6FEE700F01A
:103BB000F1F9104A0421012000F04CFA0E4C0D4A94
:103BC0000021E060483A0D4800F0A4FA094A60601C
:103BD000243A00210A4800F09DFAA06000F0ECF9B8
:103BE000FEE70000004C004034010020005400407B
:103BF000A0860100A064000800000020214B0008FE
:103C0000053C000808B5144800F09AF80A2000F0B6
:103C1000B3F9124E4FF0FF344FF4FA750C2000F058
:103C200089FE009000F040F8009880ED000A00F056
:103C300017F8009880ED010A00F056F80098234626
:103C4000002280ED020A6946F06800F02FFA28464B
:103C500000F092F9E2E70000E00000200000002000
:103C600010B500F09BF80F4890ED070A90ED061A8A
:103C700060EE000A90ED080A40EE000A81EE200A8C
:103C800010EE100A02F06AFB41EC100BFFF740FD4A
:103C900051EC100B01F012FF00EE100AB1EE400AD9
:103CA00010BD00002000002010B500F0E9F80D481C
:103CB000D0ED070A90ED080A20EEA01A00EE001AD7
:103CC00080EE810A10EE100A02F048FB41EC100B66
:103CD000FFF71EFD51EC100B01F0F0FE00EE100A94
:103CE00010BD00002000002010B52DED028BFDF767
:103CF0001DFE104C2169401A02F029F99FED0E1BA0
:103D000053EC112B01F0B4FF01F0D8FE08EE100ABD
:103D100000F0B6F8D4ED038A94ED0B0A40EE088A61
:103D2000FDF704FE2061C4ED038AB0EE680ABDEC25
:103D3000028B10BD200000200000000000408F40DA
:103D400070B51449C82305224861D021FDF7B8FE9B
:103D500068B1114E31244FF4005529463046FDF725
:103D6000D7FD1420FDF7CAFC641EE4B2F5D200F0C2
:103D7000DBF80721192000F0EDF800211B2000F0EE
:103D8000E9F800211C2000F0E5F8BDE8704064204F
:103D9000FDF7B4BC20000020000C024070B50020EC
:103DA0002DED028B86B0642203900490062103A8B7
:103DB0008DE80700294C01233B22D0216069FDF7E3
:103DC00035FF9DF80C009DF80D10000200B208436D
:103DD000E0809DF80E1009020DB29DF80F100D4302
:103DE00025819DF8101009020EB29DF811100E43A6
:103DF000668102F095F89FED1A8B53EC182B02F0B8
:103E0000B9F89FED191B53EC112B02F0BDF901F02D
:103E100055FEA061284602F083F853EC182B02F0FF
:103E2000A9F89FED131B53EC112B01F079FE01F063
:103E300045FEE061304602F073F853EC182B02F0B7
:103E400099F89FED0D1B53EC112B02F09DF901F039
:103E500035FE206206B0BDEC028B70BD2000002054
:103E6000000000000000103F7B14AE47E17AA43F41
:103E70007B14AE47E17A843F7B14AE47E17AB43FCE
:103E800070B500202DED028B86B064220390049063
:103E9000062103A88DE80700204C01234322D021EE
:103EA0006069FDF7C3FE9DF80C009DF80D1000023F
:103EB00000B2084320809DF80E1009020DB29DF853
:103EC0000F100D4365809DF8101009020EB29DF889
:103ED00011100E43A68002F023F89FED118B53ECD6
:103EE000182B01F0C5FE01F0E9FD6062284602F0E2
:103EF00017F853EC182B01F0BBFE01F0DFFDA062B8
:103F0000304602F00DF853EC182B01F0B1FE01F031
:103F1000D5FDE06206B0BDEC028B70BD2000002034
:103F2000000000000060604010B580216B2000F0B0
:103F300011F86420FDF7E2FB0721682000F00AF881
:103F40006420FDF7DBFB0021BDE810406B2000F092
:103F500001B8000003B583B06423012204A98DE8F1
:103F60000E00134602460348D0214069FDF760FF6A
:103F700005B000BD2000002010B5EFF3058111B1A0
:103F80006FF0050403E0002408B100F025FF20468F
:103F900010BD0000EFF3058010B16FF00500704711
:103FA0000448016811B14FF0FF30704701210160F2
:103FB00000207047B000002010B5EFF3058010B16D
:103FC0006FF0050010BD08480168012902D04FF0CC
:103FD000FF3010BD054A002182F8141D0221016046
:103FE00000F062FF002010BDB00000200BE000E0F8
:103FF000F8B51D466FF003026FF002064FF00004A3
:10400000EFF30583A3B1F0B1E9B1E5B90022009265
:104010006A4601F09BFA012817D10098B0B10C490B
:104020004FF080500860BFF34F8FBFF36F8F0DE0EC
:1040300048B141B12A4601F0EDF9012806D025B179
:104040006FF0010402E0144600E034462046F8BD5B
:1040500004ED00E0F8B514464FF00005EFF30582DB
:1040600012BB08B301B3A4B1D4E9023263B1502A40
:104070001AD32269C2B1676900FB01F6B74213D3B4
:10408000009501F040F807E072B9226962B96269EF
:1040900052B9002201F016F8050005D00CB12168D4
:1040A00000E0002100F062FE2846F8BDF8B51D468C
:1040B0006FF003026FF002064FF00004EFF3058388
:1040C000ABB100B3F9B1F5B90022134600926A46CC
:1040D00001F040F9012818D10098B8B10C494FF00F
:1040E00080500860BFF34F8FBFF36F8F0EE050B169
:1040F00049B100232A4601F07DF8012806D025B1F8
:104100006FF0010402E0144600E034462046F8BD9A
:1041100004ED00E02DE9FF414FEA01034FF00005F7
:10412000EFF30581039549BB40B380271821002494
:104130004AB3166806B1344696691EB13146761EFA
:10414000382E02D21679F60703D0002004B0BDE85D
:10415000F081566906B1B708D2F808C0BCF1000F6B
:104160000DD0D5685C2D18D312693AB136B18DE8FF
:1041700006103A46214601F09EFA03900DE0D668FB
:104180005EB912694AB903AACDE90012BAB2214652
:1041900001F064FA012800D003950398D6E70000E7
:1041A0002DE9F041134C0F460546E6682068001DD6
:1041B00000F0DEFC681C07D137B12168BDE8F04192
:1041C0000D48091D00F024BD20683544B542456006
:1041D000216805D2A06BBDE8F041091D00F000BDCB
:1041E000606B091D00F0FCFCA06A854200D2A5624C
:1041F000BDE8F08160000020D40600202DE9F041E8
:10420000054600F011FD2D4CA068401CA060206800
:104210002B4F10B1606930B32BE02560A0680128F6
:1042200027D1002606EB860007EB800000F0CAFCD1
:10423000761C382EF6D3234800F0C4FC21481430F5
:1042400000F0C0FC1F48283000F0BCFC1D483C308A
:1042500000F0B8FC1B48503000F0B4FC1948606313
:104260001430A06305E02068E96AC06A884200D87B
:104270002560606A401C60626864E86A216988425F
:1042800000D9206100EB800007EB8000291D00F0C1
:10429000BFFC00F0E9FC606900280CD02068E96AE6
:1042A000C06A884207D208494FF080500860BFF3C7
:1042B0004F8FBFF36F8FBDE8F081000060000020DA
:1042C000240200208406002004ED00E038B500F050
:1042D000ABFC104C2068C8B90F4800F073FC0E48C6
:1042E000143000F06FFC0C48E060143020610A4B81
:1042F0000020F03B009003F1500210210A2000F052
:1043000002FF206010B105A100F030FDBDE838408B
:1043100000F0AABC9C000020D8070020546D725108
:104320000000000030B4026C0B46002A0BD0C168BC
:104330001144C1608468A14201D30168C16030BCEE
:104340001846FCF735B930BC70472DE9F041856B54
:10435000174604460026026C82B1C7B1E068FCF73C
:1043600027F9E168206C091AE1602268914202D2C3
:10437000A168081AE060022F16D017E02068A8B9DB
:10438000A06801F03BFA06460020A0600EE06068DD
:10439000FCF70EF9216C606808446060A1688842EF
:1043A00004D32068606001E005B16D1E6D1CA5633B
:1043B0003046BDE8F08110B5044690F8590058B178
:1043C00001280CD002280FD0502080F31188BFF3B1
:1043D0004F8FBFF36F8FFEE7206B00F059FC204634
:1043E000BDE8104000F054BC10BD000010484FF470
:1043F0007051420706D0C01D0D4920F00700411A38
:10440000C1F570510B4A00230144C2E90003083989
:10441000183A21F0070111604B600B600B1AC0E9DC
:10442000001393604FF000405360506170470000EC
:10443000B80E0020CC000020144E154CA6F29C476C
:104440004FF08058DFF84C9012E000BF00F0ECFB1A
:10445000F068C568281D00F08BFBA068401EA060B6
:104460006068401E606000F0FFFB2846FFF7A3FF76
:1044700060680028EAD138680128F9D9C9F80080B5
:10448000BFF34F8FBFF36F8FF2E70000C00600202D
:104490006000002004ED00E070B51D46049C51B1A1
:1044A000C4F80020C4E90F010121204600F05EFE9F
:1044B00084F84C5070BD2460F4E700002DE9F05FF3
:1044C0008846DDE90B941546834691009A460A9E7C
:1044D000A522206BFCF7B1F86FF00301206B01EB14
:1044E0008501084420F00707780707D0502080F3A3
:1044F0001188BFF34F8FBFF36F8FFEE70025B8F130
:10450000000F0FD05FF00000221818F8001082F89A
:10451000341018F8001011B1401C1028F4D384F89E
:10452000435001E084F83450382E00D33726E66239
:10453000C4E91365201D00F050FB04F1180000F0E1
:104540004CFB2461C6F138006462A061656584F8A3
:10455000585052465946384600F05AFA2060B9F190
:10456000000F01D0C9F80040BDE8F09F30B51149F7
:1045700000E011460A688242FBD34B685C18844213
:1045800003D1406818444860084643681C189442A8
:1045900009D1084C183C2468A24209D052681A4438
:1045A00042600A6812680260814200D0086030BD33
:1045B0000460F9E7CC00002070B5002441600B4D89
:1045C0000061914206D8D11A8269914206D2011D3A
:1045D000286907E09A4203D2994201D3012403E0FB
:1045E000011DE86800F0FCFA204670BD9C00002028
:1045F00010B5044600F018FBA06B28B15FF0000472
:1046000000F032FB204610BD0124F9E730B589B037
:104610003C4D6EE00498002806DADDE90601059AB3
:1046200090470498002864DB069C606910B1201D47
:1046300000F09EFA03A800F0D7F8024604980A2872
:1046400057D2DFE800F00505052D334A05052D3367
:1046500094F8280040F0010084F828000599A0692A
:10466000059B01442046FFF7A7FF68B3216A204657
:10467000884794F8280040073BD500200090059813
:10468000A169002342181946204601F0C1F9D8B9A2
:10469000502080F31188BFF34F8FBFF36F8FFEE779
:1046A00014F8280F20F00100207022E094F8280070
:1046B00040F0010084F828000598A06128B1811815
:1046C00013462046FFF778FF13E0502080F311884F
:1046D000BFF34F8FBFF36F8FFEE794F82800810779
:1046E00003D4204600F0D4FA03E020F0010084F85F
:1046F0002800002204A9286800F08CFE002889D137
:1047000009B030BD9C0000202DE9FC410F46054654
:1047100000F00EFC01A800F067F80446019818B1FB
:1047200001F0E4F8BDE8FC81254EAFB130690068C6
:10473000D0B30027291B3A46306800F02BFB01F06C
:10474000D5F80028EED11F494FF080500860BFF324
:104750004F8FBFF36F8FE5E7A542EBD801F0C6F8A6
:10476000F0682746C068C468201D00F001FA94F87C
:104770002800410719D5A0692B4641193A46204621
:10478000FFF71AFFA8B100200346014600902A4611
:10479000204601F03DF960B9502080F31188BFF345
:1047A0004F8FBFF36F8FFEE707E020F0010084F822
:1047B0002800216A20468847B4E70127BAE70000AD
:1047C0009C00002004ED00E00648416B096829B117
:1047D000416BC968C9684968816270474FF0FF3111
:1047E000FAE700006000002070B5054600F09CFF6D
:1047F000064E0446B068844203D200F009F8012056
:1048000000E0002028602046B46070BD9C000020BD
:10481000F8B5194D20E0C068C4680668201D00F096
:10482000A7F9216A2046884794F82800400713D545
:10483000A0693044B04206D924616060211DE86857
:1048400000F0CEF908E00020034601460090324611
:10485000204601F0DDF838B1E86801680029DAD1B6
:104860002969C5E90310F8BD502080F31188BFF312
:104870004F8FBFF36F8FFEE79C0000200848406811
:10488000401C4FF0500080F3118804D0BFF34F8FCD
:10489000BFF36F8FFEE7BFF34F8FBFF36F8FFEE75E
:1048A000D4000020074CE068016841B1C0680021D5
:1048B000D0F80000FFF728FFFFF7A8FEF3E701217B
:1048C0000020F7E79C0000202DE9F041044600F0AD
:1048D000ABF994F9455004F1240609E0606A48B147
:1048E000304600F0CBFF08B100F0A4FA6D1E6DB2A7
:1048F000002DF3DC4FF0FF3684F8456000F0B4F98A
:1049000000F092F994F9445004F1100709E020698D
:1049100048B1384600F0B2FF08B100F08BFA6D1EC6
:104920006DB2002DF3DC84F84460BDE8F04100F086
:104930009BB900002DE9F0410546002700F0F8FA88
:10494000324E306808B9FFF751FD706905424ED10B
:10495000C5B3083568070ED005F00700C0F10800A0
:104960000544680707D0502080F31188BFF34F8FAC
:10497000BFF36F8FFEE72DB37068854237D82348A9
:10498000183001460C6801E020460C466168A942D7
:1049900002D221680029F7D131688C4227D00768FC
:1049A0002168016060680837411B10290FD9601920
:1049B000420708D0502080F31188BFF34F8FBFF318
:1049C0006F8FFEE713E041606560FFF7CFFD616820
:1049D0007068401A7060B268904200D2B06070692E
:1049E00001430020C4E90001F068401CF06000F0C1
:1049F0007DFF780707D0502080F31188BFF34F8FD9
:104A0000BFF36F8FFEE73846BDE8F081B4000020A9
:104A100010B5031F4FF080741C601B1F21F00101B3
:104A20001960191F044B0B6014390A60091F6FF0DD
:104A3000020244380A6010BD7D480008002800D0FA
:104A400000687047F0B507462DED028BADF20C4DB6
:104A5000254800231A460DF58161C068FFF7C8FAA2
:104A600000283CD1DDF8082420480ECA80E80E005A
:104A70001FA13846FBF710FE1C4C9FED208B4FF416
:104A800080654FF47A7650B11EA13846FBF704FEDC
:104A900038B11FA13846FBF7FFFD20B11BE02068AD
:104AA00002E0606800E0A06801F058FC53EC182BAD
:104AB00001F060FACDE9000117A2294602A8FBF730
:104AC000B7FC02A8FBF755FD82B20848334602A99D
:104AD0005C38FEF7E7F8DDF8080400F0D9F80DF2CD
:104AE0000C4DBDEC028BF0BD0000002090010020B9
:104AF00067657420726F6C6C00000000295C8FC2C7
:104B0000F5A84C4067657420706974636800000004
:104B10006765742079617700252E32660A000000EF
:104B2000012207490748FEF793F80A20FFF724FA05
:104B30004FF4FA7400F008F82046FFF71DFAF9E781
:104B4000000000203401002070B5074CA078002838
:104B500009D00025A5700548FFF774FF6178034868
:104B6000FBF773FD657070BD000000207C01002024
:104B7000D0E9013201699A60D0E901235A604A689C
:104B8000824201D182684A60002202610868401EA8
:104B90000860086870470000034B036003F15C0085
:104BA000086080201060704700080020044B0360FC
:104BB00003F15C0008604FF48070106070470000E3
:104BC0005C0A002000F108014FF0FF32C0E9011239
:104BD000C1600161002101607047002101617047DF
:104BE00030B50B685A1C02D000F1080202E00269DD
:104BF00004E02246546825689D42FAD953684B6008
:104C000099608A60516008610168491C016030BD8B
:104C100042684A6093688B6093685960916008614C
:104C20000168491C01607047502080F31188BFF370
:104C30004F8FBFF36F8F0A494868401C48600128B6
:104C40000CD10848006810F0FF0F07D0502080F307
:104C50001188BFF34F8FBFF36F8FFEE770470000DF
:104C6000D400002004ED00E00849486828B1401E47
:104C7000486001D180F311887047502080F311887B
:104C8000BFF34F8FBFF36F8FFEE70000D40000200B
:104C900070B500282AD0164DA0F108046068696933
:104CA000084207D1502080F31188BFF34F8FBFF324
:104CB0006F8FFEE722683AB1502080F31188BFF36E
:104CC0004F8FBFF36F8FFEE78843606000F030F9CD
:104CD00060686968084468602046FFF747FC2869F7
:104CE000401C2861BDE8704000F000BE70BD0000AF
:104CF000B40000204FF0E0200021016181610549EE
:104D00004FF47A720968B1FBF2F1491E4161072143
:104D1000016170471C00002010B5FBF7EDFA114946
:104D200010280ED300F1E02090F8F0030A789042AA
:104D300007D2502080F31188BFF34F8FBFF36F8FDE
:104D4000FEE709480068896800F4E060884207D9F6
:104D5000502080F31188BFF34F8FBFF36F8FFEE7B2
:104D600010BD0000D40000200CED00E010B5084B91
:104D7000002200BF53F832401CB1521C082AF9D35C
:104D800010BD43F8321003EBC201486010BD0000B3
:104D9000E401002070B515460E460446FFF744FFB7
:104DA00094F944100020491C01D184F8440094F97E
:104DB0004510491C01D184F84500FFF755FFA06B51
:104DC00028B92A46314604F1240000F051F8204663
:104DD000BDE87040FFF778BD10B5020014D00F4851
:104DE000006B38B1502080F31188BFF34F8FBFF3B1
:104DF0006F8FFEE700F09CF800211046FFF7D0F916
:104E000000F074FD002807D105494FF0805008607C
:104E1000BFF34F8FBFF36F8F10BD00006000002005
:104E200004ED00E002490A6A0260C9684160704707
:104E30006000002001490120C86170476000002027
:104E400010B50C4650B1094909681831FFF7C8FE82
:104E50002046BDE810400121FFF7A2B9502080F3A1
:104E60001188BFF34F8FBFF36F8FFEE76000002004
:104E700070B514460D4668B10A4909681831FFF744
:104E8000C7FE0CB14FF0FF3521462846BDE8704003
:104E9000FFF786B9502080F31188BFF34F8FBFF31F
:104EA0006F8FFEE76000002030B587B000240394C8
:104EB00005AA04A903A80494FFF76EFEDDE9030127
:104EC0000094CDE90110002315A11748059A00F0C0
:104ED000F2FB164D0028E8621FD000F069FD0128A2
:104EE00009D0401C19D1502080F31188BFF34F8F97
:104EF000BFF36F8FFEE7502080F31188BFF34F8F11
:104F0000BFF36F8F4FF0FF30A86201206861EC6043
:104F100007B0BDE8304000F045B807B030BD000034
:104F200049444C450000000039440008600000205E
:104F30000248016B491C01637047000060000020BB
:104F4000164810B5016B11B10121C16110BD0021DE
:104F5000C1610169124A01E0B9B1491E01EB810347
:104F600052F82330002BF7D001EB810302EB8302D0
:104F700002F1080453685B685360A34201D15B6887
:104F80005360DA680260016110BD502080F311881F
:104F9000BFF34F8FBFF36F8FFEE70000600000206C
:104FA000240200201CB537480168374A914207D1D6
:104FB000502080F31188BFF34F8FBFF36F8FFEE750
:104FC00000683149491E884207D1502080F311887A
:104FD000BFF34F8FBFF36F8FFEE72C490878019026
:104FE000FF20087008788DF800009DF800009DF8FB
:104FF000002000F0F000904207D0502080F311888C
:10500000BFF34F8FBFF36F8FFEE79DF80000204C7A
:1050100000F0500020700720A06005E09DF80020FF
:1050200052008DF80020401E9DF800201206F5D495
:10503000A060032807D0502080F31188BFF34F8F62
:10504000BFF36F8FFEE74FF44070A06001980870C7
:105050000C482030016841F470010160016841F0A2
:1050600070410160FFF746FE00206060FBF70CF91D
:105070000848016841F040410160FBF7F1F8002069
:105080001CBD000000ED00E071C20F4100E400E033
:10509000D400002034EF00E010B5502080F31188D8
:1050A000BFF34F8FBFF36F8F00F044FB18B104497B
:1050B0004FF080500860002080F3118810BD000080
:1050C00004ED00E0F8B517460E46050013D005FBC9
:1050D00006F05030FFF72EFC04000AD0002084F8C0
:1050E000460004F150023B46314628460094FFF743
:1050F000D3F92046F8BD502080F31188BFF34F8FBD
:10510000BFF36F8FFEE738B5049D18B153B1CAB134
:1051100081B120E0502080F31188BFF34F8FBFF39F
:105120006F8FFEE7502080F31188BFF34F8FBFF3DE
:105130006F8FFEE7502080F31188BFF34F8FBFF3CE
:105140006F8FFEE739B1502080F31188BFF34F8F86
:10515000BFF36F8FFEE750241C46012384F84630CE
:105160002B460094FFF798F9204638BD70B50D46E0
:10517000040025D0FFF758FDD4E90F20216802FB79
:105180000011A1600021A163216861600A46D4E991
:105190000F01401E00FB0121E16021464FF0FF306E
:1051A00001F8440F487004F110008DB1FFF70AFDBB
:1051B00004F12400FFF706FDFFF756FD012070BD46
:1051C000502080F31188BFF34F8FBFF36F8FFEE73E
:1051D00021690029F0D000F051FB0028ECD00449EF
:1051E0004FF080500860BFF34F8FBFF36F8FE3E73E
:1051F00004ED00E02DE9FF4782B01D468A464FF0DE
:105200000008040003D0BAF1000F08D011E05020CC
:1052100080F31188BFF34F8FBFF36F8FFEE7206CD1
:1052200038B1502080F31188BFF34F8FBFF36F8FD9
:10523000FEE7022D0AD1E06B012807D0502080F351
:105240001188BFF34F8FBFF36F8FFEE700F05EFA58
:105250003F4F4FF000094FF0805648B9049838B1DD
:10526000502080F31188BFF34F8FBFF36F8FFEE79D
:10527000FFF7DAFCA06BE16B884207D3022D05D063
:105280000498D0B1B8F1000F1AD01EE02A4651465A
:105290002046FFF75AF8616A19B104F1240000F0C2
:1052A000EDFA20B13E60BFF34F8FBFF36F8FFFF772
:1052B000DBFC012006B0BDE8F087FFF7D5FC22E05B
:1052C0006846FFF7AFFD4FF00108FFF7CDFCFFF791
:1052D0002FFEFFF7A9FC94F94400401C01D184F88B
:1052E000449094F94500401C01D184F84590FFF7A3
:1052F000BBFC04A9684600F077F930B12046FFF7FF
:10530000E3FA00F0F3FA0020D4E7FFF78DFCA06B7E
:10531000E16B884213D1FFF7A7FC04F11000049958
:10532000FFF78EFD2046FFF7CFFA00F0DFFA0028E6
:105330009ED13E60BFF34F8FBFF36F8F98E7FFF7AB
:1053400093FC2046FFF7C0FA00F0D0FA90E7000087
:1053500004ED00E02DE9F0471F4690468946040021
:1053600003D0B9F1000F08D011E0502080F311886C
:10537000BFF34F8FBFF36F8FFEE7206C38B1502023
:1053800080F31188BFF34F8FBFF36F8FFEE7022FBB
:105390000AD1E06B012807D0502080F31188BFF3B9
:1053A0004F8FBFF36F8FFEE7FFF7B6FC5020EFF390
:1053B000118680F31188BFF34F8FBFF36F8FA06BFF
:1053C000E16B884206D3022F04D0002086F31188B7
:1053D000BDE8F08794F94550A06B3A46494620460F
:1053E000FEF7B3FF681C04D06D1C84F84550012003
:1053F000ECE7606A0028FAD004F1240000F03EFADD
:105400000028F4D0B8F1000FF1D00121C8F8001045
:10541000EDE700002DE9F747002683B08A46040037
:1054200003D0BAF1000F08D011E0502080F31188AA
:10543000BFF34F8FBFF36F8FFEE7206C38B1502062
:1054400080F31188BFF34F8FBFF36F8FFEE700F03B
:105450005DF9DFF8F4804FF000094FF0805748B94C
:10546000059838B1502080F31188BFF34F8FBFF3F8
:105470006F8FFEE7FFF7D8FBA56BC5B151462046FD
:10548000FEF750FF6D1EA563206950B104F11000B6
:1054900000F0F4F928B1C8F80070BFF34F8FBFF3E4
:1054A0006F8FFFF7E1FB012006B0BDE8F08705989C
:1054B00008B11EB106E0FFF7D7FB27E06846FFF70B
:1054C000B1FC0126FFF7D0FBFFF732FDFFF7ACFB85
:1054D00094F94400401C01D184F8449094F94500AB
:1054E000401C01D184F84590FFF7BEFB05A9684632
:1054F00000F07AF8002820460AD0FFF7E5F900F01E
:10550000F5F92046FFF774F80028B3D00020CBE768
:10551000FFF76EF890B104F124000599FFF790FCB5
:105520002046FFF7D1F900F0E1F90028A2D1C8F830
:105530000070BFF34F8FBFF36F8F9BE72046FFF7DD
:10554000C3F900F0D3F995E704ED00E02DE9F04749
:1055500090468946040003D0B9F1000F08D011E04D
:10556000502080F31188BFF34F8FBFF36F8FFEE79A
:10557000206C38B1502080F31188BFF34F8FBFF3F8
:105580006F8FFEE7FFF7C8FB5020EFF3118680F323
:105590001188BFF34F8FBFF36F8FA76BF7B194F9EB
:1055A000445049462046FEF7BDFE7F1EA763681C97
:1055B00004D06D1C84F84450012010E020690028BC
:1055C000FAD004F1100000F059F90028F4D0B8F135
:1055D000000FF1D00121C8F80010EDE7002086F39C
:1055E0001188BDE8F08700002DE9F0410C46050068
:1055F00011D0C4B1FFF718FB174BDA686E6820684A
:10560000911B471C17D02F681B6A9F4219D09642E6
:1056100017D8012410E0502080F31188BFF34F8F7A
:10562000BFF36F8FFEE7502080F31188BFF34F8FD9
:10563000BFF36F8FFEE70024FFF716FB2046BDE89F
:10564000F081884205D9401A20602846FFF7EAFB1E
:10565000F1E700202060DCE7600000202DE9FF5F1B
:105660008346DDE90E87994616468A469000FFF785
:1056700061F905001CD05C20FFF75CF9040014D030
:105680000020256384F85900CDE90240CDE9008768
:105690004B46324651465846FEF710FF2046FEF76D
:1056A000ADFD012004B0BDE8F09F2846FFF7F0FAF9
:1056B0004FF0FF30F6E7F0B585B0DDE90B640A9DE9
:1056C000A6B1DCB15C2700972663022684F85960F6
:1056D000002604AFCDE90246CDE90057FEF7EEFE05
:1056E0002046FEF78BFD049805B0F0BD502080F3F6
:1056F0001188BFF34F8FBFF36F8FFEE7502080F309
:105700001188BFF34F8FBFF36F8FFEE705484169E4
:1057100019B1006B18B100207047012070470220BA
:1057200070470000600000200148C068704700001A
:10573000600000202DE9F0412E4C0027206B28B19D
:10574000A069401CA0613846BDE8F081E668761C7F
:10575000E66013D1606B006838B1502080F3118887
:10576000BFF34F8FBFF36F8FFEE7606BA16B616379
:10577000A063206A401C2062FFF726F8A06ADFF8C9
:105780007880864209D3606B0068A0B1606BC06806
:10579000C5686868864211D2A0622068C06A00EBC2
:1057A000800158F82100012800D90127E06900286C
:1057B000C9D00127C7E74FF0FF30EDE7281DFFF7FD
:1057C000D7F9A86A18B105F11800FFF7D1F9E86A0E
:1057D0002169884200D9206100EB800108EB81003B
:1057E000291DFFF715FAE86A2168C96A8842CAD3F9
:1057F0000127C8E7600000202402002070B50400E3
:105800004FF0000133D01B4D2868844207D0502050
:1058100080F31188BFF34F8FBFF36F8FFEE7206DCA
:1058200038B1401E2065E36CE26A9A421FD040B155
:105830001DE0502080F31188BFF34F8FBFF36F8FAF
:10584000FEE7201DFFF794F9E06CE062C0F138003C
:10585000A061E06A2969884200D92861064900EB05
:10586000800001EB8000211DFFF7D2F901210846DD
:1058700070BD0000600000202402002070B5C068E8
:10588000C46854B104F118000646FFF771F9144DCD
:10589000286B50B13146134815E0502080F3118831
:1058A000BFF34F8FBFF36F8FFEE7201DFFF760F947
:1058B000E06A2969884200D928610B4900EB800021
:1058C00001EB8000211DFFF7A3F9E06A2968C96A8E
:1058D000884202D90120E86170BD002070BD00003F
:1058E00060000020AC060020240200202DE9F047D3
:1058F0002C4D00242746286B38B1FFF795F9286B0B
:10590000401E2863286B40B146E0502080F3118888
:10591000BFF34F8FBFF36F8FFEE7A968224E0120C0
:10592000D1B3A6F5916980463068E0B1F068C468EB
:1059300004F11800FFF71CF9201DFFF719F9E06AC0
:105940002969884200D9286100EB800109EB8100B8
:10595000211DFFF75DF9E06A2968C96A8842E3D32F
:10596000C5F81C80E0E70CB1FEF72EFFAC694CB126
:105970004FEA0806FFF7DEFE00B1EE61641EF9D1C2
:105980000020A861E86938B1084901273807086094
:10599000BFF34F8FBFF36F8FFFF766F93846BDE84F
:1059A000F087000060000020AC06002004ED00E05D
:1059B00010B586B0FEF78AFC114C2068B8B1002003
:1059C0000390049005AA04A903A8FFF7EFF8DDE906
:1059D000032102208DE8070000230AA10B48059A45
:1059E000FFF769FE606010B106B0012010BD5020C5
:1059F00080F31188BFF34F8FBFF36F8FFEE7000076
:105A00009C000020546D722053766300A548000866
:105A10002DE9FF411E46134602000A9D4FF000008B
:105A200016D0144C2768002F0FD0CDE90013029236
:105A3000062917DAFFF76AFE02284FF000030FD09D
:105A4000002269462068FFF7D5FB04B0BDE8F0816D
:105A5000502080F31188BFF34F8FBFF36F8FFEE7A5
:105A60002A46EEE70023324669463846FFF772FCC5
:105A7000EBE700009C00002010B500290AD0087850
:105A8000002807D005487844FAF706FE002801D020
:105A9000002010BD0248784410BD0000B60B000085
:105AA000AE0B000081F00041704780F0004070476D
:105AB00021F00041704720F00040704721F0004283
:105AC000A2F16052B2F5801F01F0004328BFD2F16D
:105AD0007F6C0BD95FEA001C43EAC20242EB5070B4
