:020000040800F2
:10000000100700202902000803160008CF1400087A
:10001000011600081F0400086F1A00080000000005
:1000200000000000000000000000000007160008AB
:100030002104000800000000051600080916000849
:10004000430200084302000843020008430200087C
:100050004302000843020008250400084302000888
:10006000430200084302000843020008430200085C
:10007000430200084302000843020008430200084C
:10008000430200084302000843020008430200083C
:10009000430200084302000843020008430200082C
:1000A000430200084302000843020008B11600089A
:1000B000430200084302000843020008430200080C
:1000C00043020008430200084302000843020008FC
:1000D00043020008430200084302000843020008EC
:1000E00043020008430200084302000843020008DC
:1000F00043020008430200084302000843020008CC
:1001000043020008430200084302000843020008BB
:100110004302000843020008BD160008430200081D
:10012000430200084302000843020008430200089B
:10013000430200084302000843020008430200088B
:10014000430200084302000843020008430200087B
:10015000430200084302000843020008430200086B
:10016000430200084302000843020008430200085B
:100170004302000843020008430200080000000098
:10018000430200084302000800F002F800F03CF8C7
:100190000AA090E8000C82448344AAF10107DA45E2
:1001A00001D100F031F8AFF2090EBAE80F0013F0F8
:1001B000010F18BFFB1A43F001031847381B00005A
:1001C000581B0000103A24BF78C878C1FAD85207EB
:1001D00024BF30C830C144BF04680C6070470000C1
:1001E0000023002400250026103A28BF78C1FBD840
:1001F000520728BF30C148BF0B6070471FB501F0E0
:100200006BFD1FBD10B510BD00F0CFF81146FFF714
:10021000F5FF01F02FFD00F0EDF803B4FFF7F2FF5A
:1002200003BC00F0F5F80000094880470948004782
:10023000FEE7FEE7FEE7FEE7FEE7FEE7FEE7FEE796
:10024000FEE7FEE704480549054A064B70470000F3
:10025000A1160008890100081001002010070020E5
:10026000100300201003002053EA020C00F0698004
:100270002DE9F04B4FF00006002B1FBFB3FA83F5BA
:1002800003FA05F424FA05F65E4012BF1643B2FAEB
:1002900082F502FA05F4C5F120051EBF22FA05FC1D
:1002A00044EA0C04203556EA044C4FEA144418BFC3
:1002B000641C4FF000084FF00009904271EB030CF2
:1002C00039D3002919BFB1FA81F701FA07F6B0FA5C
:1002D00080F700FA07F6C7F120071EBF20FA07FCD7
:1002E00046EA0C062037B6FBF4FCA7EB0507103FE7
:1002F00007F01F0BCBF120060CFA0BFB2CFA06F6CD
:1003000044BFB3460026202FA4BF5E464FF0000B2B
:100310005BEA060C08BF4FF0010B19EB0B09ABFBB6
:10032000027C48EB0608C01B06FB02CC0BFB03CC8F
:1003300071EB0C01C1E70B46024641464846BDE859
:10034000F08B13B54FF000004FF00001AFF30080C9
:10035000BDE81C4070474FF0000200B513469446BC
:100360009646203922BFA0E80C50A0E80C50B1F10D
:100370002001BFF4F7AF090728BFA0E80C5048BF21
:100380000CC05DF804EB890028BF40F8042B08BFBF
:10039000704748BF20F8022B11F0804F18BF00F8BB
:1003A000012B7047704770477047754600F02CF876
:1003B000AE4605006946534620F00700854618B052
:1003C00020B5FFF73FFFBDE820404FF000064FF09B
:1003D00000074FF000084FF0000B21F00701AC467A
:1003E000ACE8C009ACE8C009ACE8C009ACE8C00999
:1003F0008D46704710B50446AFF300802046BDE837
:100400001040FFF70ABF000000487047B00000200E
:1004100001491820ABBEFEE7260002007047FEE748
:100420007047000010B50121024801F03AFB01F0CD
:1004300071FB10BD143C014070B5044600F006F994
:100440000546601C02D004480078044400F0FEF821
:10045000401BA042FAD370BD100000202DE9F84FD8
:10046000DFF8BCA10022012503264FF00F090AF195
:10047000040BAAF1040E00BF0B6805FA02F4234036
:10048000A34270D10F7907F00307012F01D0022F8B
:1004900016D187684FEA420806FA08FC27EA0C07DB
:1004A000D1F80CC00CFA08FC4CEA070CC0F808C0E4
:1004B0004768A7430C79C4F3001494403C4344605C
:1004C0000C79E443A4070AD0C4684FEA420C06FA48
:1004D0000CF7BC438F6807FA0CF72743C7600C7909
:1004E00004F00304022C12D1D40800EB840CDCF8D5
:1004F00020405707FF0E09FA07F824EA0804D1F84C
:10050000108008FA07F848EA0408CCF8208004684C
:100510004FEA420C06FA0CF7BC430F7907F00307C9
:1005200007FA0CF7274307604C6814F4403F70D07B
:100530003C4C276847F480472760246822F0030773
:1005400004F480440094384C07EB040CDCF80848B1
:1005500097074FEA177809FA08F7BC43334FB842B8
:1005600002D1002724E054E0314FB84201D10127E5
:100570001EE0304FB84201D1022719E02E4FB84299
:1005800001D1032714E02D4FB84201D104270FE019
:100590002B4FB84201D105270AE02A4FB84201D1BA
:1005A000062705E0284FB84201D1072700E00827B9
:1005B00007FA08F72743CCF80878DAF800405746DE
:1005C000D1F804C09C435FEACC2C00D51C433C60AE
:1005D000DBF800405F46D1F804C09C435FEA8C2CF6
:1005E00000D51C433C60DEF800407746D1F804C0DB
:1005F0009C435FEA8C3C00D51C433C60084F083F9D
:100600003C68D1F804C09C435FEACC3C00D51C4355
:100610003C60521C102AFFF42FAFBDE8F88F000099
:10062000083C0140443802400030014000000240D4
:100630000004024000080240000C0240001002408A
:100640000014024000180240001C0240014880686B
:1006500070470000100000200248816802781144B1
:1006600081607047100000200B4810B5016841F40C
:1006700000710160016841F480610160016841F42A
:1006800080710160032000F071F8002000F006F88E
:1006900000F024F8002010BD003C024070B50D4D64
:1006A00004464FF47A712878B1FBF0F00A490968E2
:1006B000B1FBF0F000F0ECFA48B9102C07D20022A0
:1006C0002146501E00F032F800206C6070BD012001
:1006D00070BD0000100000201C0000200B4882B0FC
:1006E000016841F480410160006800F4804000909E
:1006F0000648001F016841F080510160006800F069
:1007000080500090072002B000F030B8443802401A
:10071000002809DB00F01F02012191404009800000
:1007200000F1E020C0F8001170470000F0B40E4B5B
:100730001B680C46C3F30223C3F10705042D00D93F
:100740000425191D072901D2002300E0DB1E012624
:1007500006FA05F1491E214099409E40761E16403A
:100760003143F0BC01F084B90CED00E0064900F023
:10077000070208684FF6FF03184040EA0220034AC8
:1007800010430860704700000CED00E00000FA051F
:100790002DE9F0470E46050065D0DFF81481D8F842
:1007A0000000F7B200F00700B04207D288F80070EE
:1007B000D8F8000000F00700B04254D128683D4C42
:1007C000810712D5400703D5206840F4E05020602F
:1007D0002878000703D5206840F460402060206836
:1007E000A96820F0F000084320602878C0072DD0C9
:1007F000304968680839012812D0022813D003282C
:1008000011D00968890700292DDA216821F0030138
:1008100001432160FFF71AFF814641F2883A0EE05A
:1008200009688903EFE709688901ECE7FFF70EFF24
:10083000A0EB0901514502D90320BDE8F0872068EB
:10084000696800F00C00B0EB810FEFD1D8F8001010
:10085000404601F00701B14207D90770006800F077
:100860000700B04201D00120E7E72878400705D50E
:100870002068E96820F4E0500843206028780007E9
:1008800006D52068296920F4604040EAC100206054
:1008900000F018F82168084AC1F30311515CC84000
:1008A0000649086006480068FFF7F8FE0020C4E724
:1008B000003C024008380240E21C00081C000020F6
:1008C00014000020154810B5006810F00C02144800
:1008D00013D04110042A0FD0082A0ED10F4C241F28
:1008E0002268236802F03F025B0207D52068C0F34C
:1008F0008810A0FB010106E0084610BD2168C1F385
:100900008811A1FB00010023FFF7AEFC2168C1F3B1
:100910000141491C4900B0FBF1F010BD083802400C
:100920000024F4002DE9F84F04006ED02078DFF8A1
:100930004C93C007A9F104054AD009F104000168ED
:10094000C1F38101012908D00068C0F381000228A9
:100950000AD1D9F80000400206D52868800337D5AF
:1009600060680028E1D033E06068B0F5803F10D0C7
:10097000B0F5A02F286810D020F4803028602868B7
:1009800020F4802028606068A8B1FFF75FFE06466B
:100990000DE0286840F48030F4E740F480202860BF
:1009A000F7E700BFFFF752FE801B642873D8286862
:1009B0008003F7D50CE0FFF749FE064605E000BFCF
:1009C000FFF744FE801B6428F0D828688003F7D422
:1009D0002078DFF8AC8280074FF0000A3ED5A748A8
:1009E000001D016811F00C0F08D00068C0F38100F1
:1009F00002280BD1D9F80000400207D428688007EC
:100A000016D5E068012800D112E033E1E068B8B102
:100A10000120C8F80000FFF719FE064605E000BFF8
:100A2000FFF714FE801B0228C0D828688007F7D57E
:100A30002868216920F0F80040EAC10028600DE034
:100A4000C8F800A0FFF702FE064604E0FFF7FEFD2F
:100A5000801B02281FD828688007F7D42078000759
:100A600022D5864F87486169703771B101210160D5
:100A7000FFF7ECFD064604E0FFF7E8FD801B0228C7
:100A800009D838688007F7D50EE0C0F800A0FFF756
:100A9000DDFD064605E082E0FFF7D8FD801B022859
:100AA0007DD838688007F7D42078400768D5DFF80C
:100AB000CCB100270BF13C0BDBF80000C0000BD4DD
:100AC000DBF8001041F08051CBF80010DBF800009B
:100AD000012700F0805000906B4E3068C00510D4A4
:100AE000306840F480703060FFF7B0FD009005E0A2
:100AF000FFF7ACFD0099401A022850D83068C005B5
:100B0000F6D55E4EA0686C3601280FD005283068F7
:100B100010D020F001003060306820F00400306018
:100B2000A068B8B1FFF792FD00900FE0306840F088
:100B30000100F4E740F004003060F7E7FFF786FDBE
:100B40000099411A41F28830814266D830688007A6
:100B5000F4D50EE0FFF77AFD009007E0FFF776FD91
:100B60000099411A41F28830814256D83068800796
:100B7000F4D42FB1DBF8001021F08051CBF8001035
:100B8000A069C8B33D49091D0968C1F38101022963
:100B90004AD00228504607D0C8F8600000E03CE088
:100BA000FFF754FD04463BE04746C8F86000FFF7F6
:100BB0004DFD064605E000BFFFF748FD801B0228FB
:100BC0002BD828688001F7D4D4E907010843A16A2B
:100BD0002E4A490802EB0141626A41EA8211084348
:100BE00094F82C1040EA0161C9F800100120386621
:100BF000FFF72CFD044606E03EE000BFFFF726FDB0
:100C0000001B022809D828688001F7D534E000BF0E
:100C1000FFF71CFD001B022802D90320BDE8F88F56
:100C200028688001F4D427E00128F7D0D9F8000023
:100C3000E26900F4800191421CD1226A00F03F0178
:100C4000914217D147F6C071626A0140B1EB821F31
:100C500010D1A26A4FF0FF3300F4403103EB52028F
:100C6000B1EB024F06D194F82C1000F07060B0EB9D
:100C7000016F01D00120D1E70020CFE70438024006
:100C800000004742800E4742007000400000FFFF16
:100C900010B5401EB0F1807F01D3012010BD4FF090
:100CA000E02460610F21601700F0E2FE0020A061E7
:100CB00007202061002010BD7047704770B590F884
:100CC0003C20012A32D0012480F83C40022280F8E6
:100CD0003D2003685A689D6822F070060A68324316
:100CE0005A60134B02689A4214D0B2F1804F11D06F
:100CF000104B9A420ED0104B9A420BD00F4B9A4297
:100D000008D00F4B9A4205D00E4B9A4202D00E4BA0
:100D10009A4204D1496825F080031943916080F814
:100D20003D40002180F83C10084670BD022070BD97
:100D3000000001400004004000080040000C00409A
:100D400000040140004001400018004010B50400BC
:100D500003D094F83D0010B107E0012010BD002041
:100D600084F83C00204600F01FF8022084F83D0083
:100D7000211D206800F0AEFC012084F8460084F8B4
:100D80003E0084F83F0084F8400084F8410084F875
:100D9000420084F8430084F8440084F8450084F855
:100DA0003D00002010BD000010B586B0044614219F
:100DB0006846FFF7D0FA1D4B226800211C489A4272
:100DC00027D1026842F001020260006800F00100D1
:100DD000059017481438026842F01002026000685B
:100DE00000F010000590D81400900220CDE9010118
:100DF0000120CDE9031069460E48FFF72FFB0022C2
:100E000011461B20FFF792FC1B20FFF781FC06B068
:100E100010BD09498A42FAD1016841F4803101606C
:100E2000006800F480300590F1E700000000014008
:100E300044380240001002400040014070B50446B2
:100E400090F83C000025012817D0012684F83C606A
:100E5000022084F83D002068826822F0770222F4A4
:100E60007F4282600868502838D00DDC20284FD09F
:100E700005DC90B3102811D14AE0022070BD302863
:100E800046D040280AD13BE060282FD070280DD0F2
:100E9000B0F5805F03D0B0F5005F12D0012584F873
:100EA0003D60002084F83C00284670BDCB68D1E945
:100EB0000121206800F087FC2068816841F07701FB
:100EC00009E0CB68D1E90121206800F07CFC2068B2
:100ED000816841F480418160E1E719E0CA684968AE
:100EE000206800F045FD5021206806E0CA68496886
:100EF000206800F08FFD6021206800F06EFCCEE7D6
:100F0000CA684968206800F033FD40212068F4E792
:100F1000226801461046F0E707480068816B0748E1
:100F2000416082688A1A00EE102AB8EE400A80ED0D
:100F3000030A8160704700002000002000000020AC
:100F40002DE9F041054690F83C0000260C460128AA
:100F500010D0012085F83C0072B1042A1CD0082A68
:100F60002CD00C2A50D00126002085F83C003046B9
:100F7000BDE8F0810220FBE7D4E90012E3682868AD
:100F800000F008FD2868816921F00C018161286862
:100F90008169A26811430FE0D4E90012E368286870
:100FA00000F04AFD2868816921F440618161286868
:100FB0008169A26841EA02218161D5E72868D4E904
:100FC000002C277B036A016A21F480710162C169E8
:100FD00023F4206321F0030141EA0C0121F0F00C1D
:100FE00039074FF420674CEA116107EA02221A43DD
:100FF000C16102622868C16921F00C01C1612868E1
:10100000C169A26811432BE02868D4E90021E76890
:10101000036AD0F820C02CF4805CC0F820C0D0F85F
:101020001CC023F420432CF4407C4CEA012121F421
:10103000704C4FF6FF7101EA07314FF4204741EA47
:101040000C0107EA02321A43C16102622868C169D1
:1010500021F44061C1612868C169A26841EA0221A6
:10106000C16181E710B5040003D094F83D0010B1D0
:1010700007E0012010BD002084F83C00204600F06D
:101080001EF8022084F83D00211D206800F022FB9C
:10109000012084F8460084F83E0084F83F0084F87C
:1010A000400084F8410084F8420084F8430084F84A
:1010B000440084F8450084F83D00002010BD7047CE
:1010C00030B50446002551B104290DD0082910D0AF
:1010D00094F8410094F84520012811D10EE094F8CD
:1010E0003E0094F84220F7E794F83F0094F843203C
:1010F000F2E794F8400094F84420EDE7012A01D08B
:10110000012030BD022059B1042912D0082919D07C
:1011100084F8410084F845000C2944D0012540E0C2
:1011200084F83E0084F842002068C26842F002025F
:1011300010E084F83F0084F843002068C26842F061
:10114000040207E084F8400084F844002068C26884
:1011500042F00802C2600122206800F027FB144917
:101160002068884214D0B0F1804F11D011498842D4
:101170000ED0114988420BD01049884208D010493E
:10118000884205D00F49884202D00F49884204D1D5
:10119000816801F00701062903D0016841F00101CF
:1011A0000160284630BD2068C26842F01002D1E7D5
:1011B000000001400004004000080040000C004016
:1011C0000004014000400140001800402DE9F041BA
:1011D00004460068C66805694FF00007A90713D5E3
:1011E000B10711D5F91E01610120207720688069BF
:1011F0008007204602D0FFF78FFE04E000F0D1F810
:10120000204600F061F92777680716D5700714D5D6
:1012100021686FF00400086102202077206880694F
:1012200010F4407F204602D0FFF776FE04E000F085
:10123000B8F8204600F048F92777280715D5300779
:1012400013D521686FF0080008610420207720681A
:10125000C0698007204602D0FFF75EFE04E000F080
:10126000A0F8204600F030F92777E80616D5F006FA
:1012700014D521686FF010000861082020772068DD
:10128000C06910F4407F204602D0FFF745FE04E01D
:1012900000F087F8204600F017F92777E80708D014
:1012A000F00706D021686FF001000861204600F0C9
:1012B0000CF9280608D5300606D521686FF08000A5
:1012C00008612046FFF7F8FC680608D5700606D5C9
:1012D00021686FF040000861204600F0F7F8A8068A
:1012E0000AD5B00608D521686FF0200008612046B5
:1012F000BDE8F041FFF7E1BCBDE8F08110B586B074
:10130000044614216846FFF726F80E4920688842F3
:1013100015D10D480021026842F0100202600068F9
:1013200000F010000590202000900220CDE901017E
:101330000320CDE9031069460448FFF78FF806B093
:1013400010BD000000400140303802400010024053
:1013500070B5044690F83C00002501280FD001200C
:1013600084F83C006AB1042A0FD0082A11D00C2A54
:1013700013D00125002084F83C00284670BD0220CF
:1013800070BD206800F032FAF4E7206800F05EFAE1
:10139000F0E7206800F090FAECE7206800F0C0FA6F
:1013A000E8E7704710B5040003D094F83D0010B191
:1013B00007E0012010BD002084F83C00204600F02A
:1013C0001EF8022084F83D00211D206800F082F9FB
:1013D000012084F8460084F83E0084F83F0084F839
:1013E000400084F8410084F8420084F8430084F807
:1013F000440084F8450084F83D00002010BD70478B
:1014000010B50446022249B104290ED0082913D090
:1014100094F84100012816D0012010BD94F83E0038
:101420000128F9D184F83E200FE094F83F0001280C
:10143000F2D184F83F2008E094F840000128EBD175
:1014400084F8402001E084F841200122206800F067
:10145000ADF916492068164A884201D0904203D15E
:10146000436C43F4004343642068884213D0B0F1D6
:10147000804F10D00F4988420DD00F4988420AD0C2
:101480000E49884207D0904205D00D49884202D0CB
:101490000C49884204D1816801F00701062903D074
:1014A000016841F001010160002010BD0000014011
:1014B000000401400004004000080040000C00400F
:1014C0000040014000180040704770477047FEE739
:1014D00010B58AB000242448049405940694079417
:1014E000089409940094019402941E4903940160A5
:1014F00046F2A711C0E901144FF6FF71C0E90314C9
:101500008021C0E90541FFF721FC08B172B6FEE772
:101510004FF48050049004A91348FFF78FFC08B1E2
:1015200072B6FEE71048FFF79DFD08B172B6FEE700
:10153000089408A90C480994FFF7C0FB08B172B6DB
:10154000FEE70120CDE900400294042269460648E6
:101550000394FFF7F5FC002801D072B6FEE70AB04D
:1015600010BD0000000001402000002030B58BB00D
:1015700000240794089409941C2168460A94FEF7F5
:10158000EAFE1E4D1C48286046F2A710C5E901047A
:1015900040F2E730C5E903042846AC61FFF7D6FB0B
:1015A00008B172B6FEE74FF48050079007A91348C0
:1015B000FFF744FC08B172B6FEE71048FFF7F2FEF1
:1015C00008B172B6FEE73020009040F2F310CDE98A
:1015D00001040022694609480494FFF7B9FE08B1E6
:1015E00072B6FEE72868816941F00801816103480D
:1015F000FFF784FE0BB030BD0040014068000020C2
:10160000FEE7FEE770477047FFF726B830B593B0A6
:1016100030216846FEF79FFE14210CA8FEF79BFEC2
:101620001D480024016841F080510160006800F00D
:10163000805011901948016841F4804101600068B0
:10164000022500F4804011900120039010200490A6
:10165000009506950820CDE9074032200990042026
:101660000A9007200B906846FFF75CF908B172B644
:10167000FEE70F20CDE90C054FF48050CDE90E4078
:1016800000210CA81094FFF783F8002801D072B64F
:10169000FEE713B030BD000040380240007000404B
:1016A0000248016841F470010160704788ED00E074
:1016B0000148FFF78BBD00002000002010B501217C
:1016C000034800F0E5F9BDE810400C2000F0A4BA92
:1016D00010100040F0B50268294C2A4D2A4E2B4FBD
:1016E0002B4B4FF0804CA04209D0604507D0A84258
:1016F00005D0B04203D0B84201D0984204D122F0C4
:10170000700E4A6842EA0E02A0421BD0604519D012
:10171000A84217D0B04215D0B84213D0984211D089
:101720001C4DA8420ED01C4DA8420BD01B4DA84208
:1017300008D01B4DA84205D01A4DA84202D01A4D20
:10174000A84203D122F44075CA682A434D6922F0A9
:1017500080022A4302608A68C2620A688262A042EA
:1017600001D0984201D109690163012141610169F8
:10177000C90703D0016921F001010161F0BD00003A
:10178000000001400004004000080040000C004040
:101790000004014000400140004401400048014075
:1017A00000180040001C00400020004010B501F06F
:1017B0001F030121046A99408C430462016A9A4024
:1017C0001143016210BD10B5846842EA032224F47B
:1017D0007F440A432243826010BD826822F0700277
:1017E0000A4342F00701816070470000F0B5036AC8
:1017F000026A22F00102026242688469124E24F0F9
:1018000073050C682C4323F002058B682B430D4DA8
:10181000A84201D0B04205D123F00807CB683B4372
:1018200023F00403A84201D0B04205D14D6922F44F
:10183000407215438A692A43426084614968416362
:101840000362F0BD0000014000040140F0B5026AEF
:10185000036A23F010030362436884690D6824F46B
:10186000E64444EA05248D6822F0200242EA05128B
:101870000F4D104EA84201D0B04206D1CF6822F0E1
:10188000800242EA071222F04002A84201D0B04290
:1018900007D14D6923F4406343EA85038D6943EA28
:1018A000850343608461496881630262F0BD000082
:1018B0000000014000040140F0B5026A036A23F40D
:1018C000807303624368C46922F4007224F07305D4
:1018D0000C68124E2C438D6842EA05220E4DA84238
:1018E00001D0B04206D1CF6822F4006242EA07225A
:1018F00022F48062A84201D0B04207D14D6923F49E
:10190000405343EA05138D6943EA05134360C461FC
:101910004968C1630262F0BD00000140000401405B
:1019200030B5046A026A22F4805202624268C369D6
:101930000D6823F4E64343EA05238D6824F400543C
:1019400044EA0534084DA84202D0084DA84204D10B
:101950004D6922F4804242EA85124260C3614968BF
:101960000164046230BD0000000001400004014039
:1019700010B5036A046A24F001040462846924F047
:10198000F00444EA021423F00A020A43846102626A
:1019900010BD000070B5056A046A24F001040462F9
:1019A0008469154EB04214D0B0F1804F11D0134E5F
:1019B000B0420ED0124EB0420BD0124EB04208D000
:1019C000114EB04205D0114EB04202D0104EB0427E
:1019D00003D124F00304144301E044F001041A0786
:1019E00024F0F00444EA126225F00A0301F00A012F
:1019F00019438261016270BD000001400004004093
:101A000000080040000C004000040140004001407C
:101A10000018004010B5036A046A24F01004046240
:101A2000846923F0A00324F4704444EA023243EAB8
:101A300001118261016210BD30B5046A056A25F0AA
:101A400010050562856925F4407545EA022222F4F5
:101A500070454FF6FF7202EA033224F0A0032A43D6
:101A6000A02404EA011119438261016230BDFEE73E
:101A70000907090E002804DB00F1E02080F80014BB
:101A8000704700F00F0000F1E02080F8141D70474F
:101A900008B5020004D000F017F9884300901060E8
:101AA00008BD08B5020004D000F00EF9084300900C
:101AB000106008BD2DE9F041012484400D46214607
:101AC0001348FFF7EEFF124E0836371D6DB1012D9A
:101AD00012D0022D1AD121463046FFF7E2FF2146EF
:101AE0003846BDE8F041FFF7DCBF21463046FFF73E
:101AF000D8FF2146384605E021463846FFF7D1FF9A
:101B000021463046BDE8F041FFF7C2BFBDE8F08195
:101B1000003C01400149012008707047000000208E
:101B200010B500210846FFF7C5FF00221146062028
:101B3000FEF7FCFDBDE810400620FEF7E9BD000001
:101B40001F4808B5016841F004010160016801F017
:101B500004010091016841F080010160016801F019
:101B600080010091016841F008010160016801F005
:101B700008010091016841F001010160016801F074
:101B800001010091016841F002010160006801213A
:101B900000F0020000900C2000F014F801210D204C
:101BA00000F010F801210E2000F00CF801210F20A8
:101BB00000F008F80021BDE80840084600F002B82F
:101BC0003038024070B505460C460A001BD068004C
:101BD00004FA00F10F48061D012A04D0022A07D09A
:101BE000032A10D10DE0FFF75CFF04FA05F104E0D1
:101BF000FFF757FF681E04FA00F13046FFF748FF71
:101C000001E0FFF74EFF2846BDE87040002100F0DC
:101C100017B80000000C024070B5044610280BD223
:101C2000064D284600F050F80121A14041402846C9
:101C3000BDE8704000F04CB870BD0000140C0240CC
:101C40000A46102809D20121814004481AB1012A0C
:101C500003D1FFF726BFFFF71BBF7047140C0240EC
:101C600010B50C46FFF7D8FF2046BDE81040FEF740
:101C7000E3BB0000FEF7F8FCFFF7C8FCFFF728FC09
:101C8000FFF774FCFFF75CFFFFF74AFF00210C48E9
:101C9000FFF7B6FB0A4804214838FFF711FA094C50
:101CA00000264FF4FA752078012803D126700D2004
:101CB000FFF7B2FF29460F20FFF7D2FFF3E700003E
:101CC0006800002000000020002800D00068704755
:101CD000002800D0016070474FF04070E1EE100A1C
:101CE0007047000000000000000001020304060726
:101CF00008090000141D000800000020200000005A
:101D0000C4010008341D000820000020F006000077
:101D1000E0010008000000000000000000000000DA
:101D200000000000010000001000000000000000A2
:041D30000024F40097
:040000050800018965
:00000001FF
